:020000040800F2
:100000000000032019100008D92B0008DB2B000882
:10001000DD2B0008DF2B0008E12B000800000000AA
:1000200000000000000000000000000081830008C4
:10003000E32B000800000000118400087D7C00080C
:1000400069100008691000086910000869100008AC
:10005000691000086910000869100008691000089C
:10006000691000086910000869100008691000088C
:10007000691000086910000869100008691000087C
:10008000691000086910000869100008691000086C
:10009000691000086910000869100008691000085C
:1000A000691000086910000869100008691000084C
:1000B000691000086910000869100008691000083C
:1000C000691000086910000869100008691000082C
:1000D00069100008E52B0008691000086910000885
:1000E00069100008F12B0008691000086910000869
:1000F00069100008691000086910000869100008FC
:1001000069100008691000086910000869100008EB
:1001100069100008FD2B0008092C0008152C0008A8
:1001200069100008691000086910000869100008CB
:1001300069100008691000086910000869100008BB
:1001400069100008691000086910000869100008AB
:10015000691000086910000869100008691000089B
:10016000691000086910000869100008691000088B
:1001700069100008691000086910000800000000FC
:10018000691000086910000869100008691000086B
:10019000691000086910000869100008691000085B
:0C01A000212C0008691000082D2C00081C
:1001B00010B5054C237833B9044B13B10448AFF3A1
:1001C00000800123237010BDE80200200000000021
:1001D000301F020808B5034B1BB103490348AFF3B6
:1001E000008008BD00000000EC020020301F020863
:1001F000034613F8012B002AFBD1181A0138704767
:1002000001F0FF01102A2BDB10F0070F08D010F8C7
:10021000013B013A8B422DD010F0070F42B3F6D1CB
:10022000F0B441EA012141EA014122F007047FF0E4
:1002300000070023F0E80256083C85EA010586EA3B
:10024000010685FA47F5A3FA87F586FA47F6A5FA77
:1002500087F68EB9EED1F0BC01F0FF0102F0070283
:1002600032B110F8013B013A83EA010313B1F8D12E
:100270000020704701387047002D06BF354603380F
:10028000073815F0010F07D1013015F4807F02BF48
:10029000013015F4C03F0130F0BC0138704700BF99
:1002A00081F0004102E000BF83F0004330B54FEA27
:1002B00041044FEA430594EA050F08BF90EA020F94
:1002C0001FBF54EA000C55EA020C7FEA645C7FEA27
:1002D000655C00F0E2804FEA5454D4EB5555B8BF4A
:1002E0006D420CDD2C4480EA020281EA030382EABB
:1002F000000083EA010180EA020281EA0303362D4D
:1003000088BF30BD11F0004F4FEA01314FF4801C1F
:100310004CEA113102D0404261EB410113F0004F31
:100320004FEA03334CEA133302D0524263EB4303E8
:1003300094EA050F00F0A780A4F10104D5F1200E86
:100340000DDB02FA0EFC22FA05F2801841F10001E1
:1003500003FA0EF2801843FA05F359410EE0A5F1B5
:1003600020050EF1200E012A03FA0EFC28BF4CF0E6
:10037000020C43FA05F3C01851EBE37101F000459C
:1003800007D54FF0000EDCF1000C7EEB00006EEBA9
:100390000101B1F5801F1BD3B1F5001F0CD3490833
:1003A0005FEA30004FEA3C0C04F101044FEA44528A
:1003B00012F5800F80F09A80BCF1004F08BF5FEA11
:1003C000500C50F1000041EB045141EA050130BDF1
:1003D0005FEA4C0C404141EB0101013C28BFB1F503
:1003E000801FE9D291F0000F04BF01460020B1FA4E
:1003F00081F308BF2033A3F10B03B3F120020CDA21
:100400000C3208DD02F1140CC2F10C0201FA0CF0FE
:1004100021FA02F10CE002F11402D8BFC2F1200C63
:1004200001FA02F120FA0CFCDCBF41EA0C01904019
:10043000E41AA2BF01EB0451294330BD6FEA040462
:100440001F3C1CDA0C340EDC04F11404C4F120024D
:1004500020FA04F001FA02F340EA030021FA04F35F
:1004600045EA030130BDC4F10C04C4F1200220FAB6
:1004700002F001FA04F340EA0300294630BD21FAF4
:1004800004F0294630BD94F0000F83F4801306BFBA
:1004900081F480110134013D4EE77FEA645C18BFAE
:1004A0007FEA655C29D094EA050F08BF90EA020F45
:1004B00005D054EA000C04BF1946104630BD91EA3D
:1004C000030F1EBF0021002030BD5FEA545C05D140
:1004D0004000494128BF41F0004130BD14F580047F
:1004E0003CBF01F5801130BD01F0004545F0FE41F3
:1004F00041F470014FF0000030BD7FEA645C1ABF28
:10050000194610467FEA655C1CBF0B46024650EA5E
:10051000013406BF52EA033591EA030F41F400218A
:1005200030BD00BF90F0000F04BF0021704730B510
:100530004FF4806404F132044FF000054FF00001E5
:1005400050E700BF90F0000F04BF0021704730B5A6
:100550004FF4806404F1320410F0004548BF40427B
:100560004FF000013EE700BF42004FEAE2014FEAD0
:1005700031014FEA02701FBF12F07F4393F07F4FAB
:1005800081F06051704732F07F4208BF704793F0AE
:100590007F4F04BF41F40021704730B54FF46074C1
:1005A00001F0004521F000411CE700BF50EA0102C4
:1005B00008BF704730B54FF000050AE050EA01026D
:1005C00008BF704730B511F0004502D5404261EBDD
:1005D00041014FF4806404F132045FEA915C3FF41E
:1005E000D8AE4FF003025FEADC0C18BF03325FEABB
:1005F000DC0C18BF033202EBDC02C2F1200300FA6C
:1006000003FC20FA02F001FA03FE40EA0E0021FA90
:1006100002F11444BDE600BF70B54FF0FF0C4CF47E
:10062000E06C1CEA11541DBF1CEA135594EA0C0F30
:1006300095EA0C0F00F0DEF82C4481EA030621EA6B
:100640004C5123EA4C5350EA013518BF52EA0335A6
:1006500041F4801143F4801338D0A0FB02CE4FF058
:100660000005E1FB02E506F00042E0FB03E54FF088
:100670000006E1FB03569CF0000F18BF4EF0010E80
:10068000A4F1FF04B6F5007F64F5407404D25FEA7C
:100690004E0E6D4146EB060642EAC62141EA55512F
:1006A0004FEAC52040EA5E504FEACE2EB4F1FD0C71
:1006B00088BFBCF5E06F1ED8BEF1004F08BF5FEAEF
:1006C000500E50F1000041EB045170BD06F00046A1
:1006D00046EA010140EA020081EA0301B4EB5C044E
:1006E000C2BFD4EB0C0541EA045170BD41F4801146
:1006F0004FF0000E013C00F3AB8014F1360FDEBF6B
:10070000002001F0004170BDC4F10004203C35DA46
:100710000C341BDC04F11404C4F1200500FA05F3C9
:1007200020FA04F001FA05F240EA020001F000426A
:1007300021F0004110EBD37021FA04F642EB0601E0
:100740005EEA430E08BF20EAD37070BDC4F10C040A
:10075000C4F1200500FA04F320FA05F001FA04F2CE
:1007600040EA020001F0004110EBD37041F10001BA
:100770005EEA430E08BF20EAD37070BDC4F12005C5
:1007800000FA05F24EEA020E20FA04F301FA05F22D
:1007900043EA020321FA04F001F0004121FA04F2D5
:1007A00020EA020000EBD3705EEA430E08BF20EAA5
:1007B000D37070BD94F0000F0FD101F000464000DF
:1007C00041EB010111F4801F08BF013CF7D041EA61
:1007D000060195F0000F18BF704703F00046520065
:1007E00043EB030313F4801F08BF013DF7D043EA36
:1007F0000603704794EA0C0F0CEA135518BF95EAEC
:100800000C0F0CD050EA410618BF52EA4306D1D172
:1008100081EA030101F000414FF0000070BD50EA91
:10082000410606BF1046194652EA430619D094EA1B
:100830000C0F02D150EA013613D195EA0C0F05D105
:1008400052EA03361CBF104619460AD181EA030159
:1008500001F0004141F0FE4141F470014FF0000011
:1008600070BD41F0FE4141F4780170BD70B54FF0AC
:10087000FF0C4CF4E06C1CEA11541DBF1CEA13552C
:1008800094EA0C0F95EA0C0F00F0A7F8A4EB05040E
:1008900081EA030E52EA03354FEA013100F0888005
:1008A0004FEA03334FF0805545EA131343EA1263CE
:1008B0004FEA022245EA111545EA10654FEA002683
:1008C0000EF000419D4208BF964244F1FD0404F53C
:1008D000407402D25B084FEA3202B61A65EB030598
:1008E0005B084FEA32024FF480104FF4002CB6EB55
:1008F000020E75EB030E22BFB61A754640EA0C00D5
:100900005B084FEA3202B6EB020E75EB030E22BF14
:10091000B61A754640EA5C005B084FEA3202B6EB55
:10092000020E75EB030E22BFB61A754640EA9C0014
:100930005B084FEA3202B6EB020E75EB030E22BFE4
:10094000B61A754640EADC0055EA060E18D04FEAA2
:10095000051545EA16754FEA06164FEAC30343EA42
:1009600052734FEAC2025FEA1C1CC0D111F4801F0F
:100970000BD141EA00014FF000004FF0004CB6E708
:1009800011F4801F04BF01430020B4F1FD0C88BFA7
:10099000BCF5E06F3FF6AFAEB5EB030C04BFB6EBB2
:1009A000020C5FEA500C50F1000041EB045170BDA5
:1009B0000EF0004E4EEA113114EB5C04C2BFD4EBD2
:1009C0000C0541EA045170BD41F480114FF0000E56
:1009D000013C90E645EA060E8DE60CEA135594EAD2
:1009E0000C0F08BF95EA0C0F3FF43BAF94EA0C0FD5
:1009F0000AD150EA01347FF434AF95EA0C0F7FF44A
:100A000025AF104619462CE795EA0C0F06D152EA9D
:100A100003353FF4FDAE1046194622E750EA410681
:100A200018BF52EA43067FF4C5AE50EA41047FF492
:100A30000DAF52EA43057FF4EBAE12E74FF0FF3CF7
:100A400006E000BF4FF0010C02E000BF4FF0010CC8
:100A50004DF804CD4FEA410C7FEA6C5C4FEA430C41
:100A600018BF7FEA6C5C1BD001B050EA410C0CBF90
:100A700052EA430C91EA030F02BF90EA020F0020F2
:100A8000704710F1000F91EA030F58BF994208BF59
:100A900090422CBFD8176FEAE37040F00100704716
:100AA0004FEA410C7FEA6C5C02D150EA013C07D16D
:100AB0004FEA430C7FEA6C5CD6D152EA033CD3D0B8
:100AC0005DF8040B704700BF8446104662468C46B2
:100AD0001946634600E000BF01B5FFF7B7FF0028E5
:100AE00048BF10F1000F01BD4DF808EDFFF7F4FF0E
:100AF0000CBF012000205DF808FB00BF4DF808ED99
:100B0000FFF7EAFF34BF012000205DF808FB00BFBB
:100B10004DF808EDFFF7E0FF94BF012000205DF8DD
:100B200008FB00BF4DF808EDFFF7CEFF94BF012092
:100B300000205DF808FB00BF4DF808EDFFF7C4FF8B
:100B400034BF012000205DF808FB00BF4FEA410CD4
:100B50007FEA6C5C02D150EA013C0AD14FEA430CB7
:100B60007FEA6C5C02D152EA033C02D14FF00000F4
:100B700070474FF0010070474FEA410212F5001232
:100B800015D211D56FF47873B3EB625212D94FEAD4
:100B9000C12343F0004343EA505311F0004F23FABE
:100BA00002F018BF404270474FF00000704750EA13
:100BB000013005D111F0004008BF6FF000407047D0
:100BC0004FF00000704700BF4A0011D212F500122A
:100BD00011D20DD56FF47873B3EB62520ED44FEA95
:100BE000C12343F0004343EA505323FA02F0704715
:100BF0004FF00000704750EA013002D14FF0FF3053
:100C000070474FF0000070474FEA4102B2F1E043F5
:100C100024BFB3F5001CDCF1FE5C0DD901F0004CE3
:100C20004FEAC0024CEA5070B2F1004F40EB830033
:100C300008BF20F00100704711F0804F21D113F15F
:100C40003872BCBF01F00040704741F480114FEA98
:100C50005252C2F11802C2F1200C10FA0CF320FA21
:100C600002F018BF40F001004FEAC1234FEAD3233E
:100C700003FA0CFC40EA0C0023FA02F34FEA4303A8
:100C8000CCE77FEA625307D150EA01331EBF4FF031
:100C9000FE4040F44000704701F0004040F0FE404C
:100CA00040F40000704700BF53B94AB9002908BF9B
:100CB00000281CBF4FF0FF314FF0FF3000F0AAB901
:100CC000ADF1080C6DE904CE00F03CF8DDF804E06D
:100CD000DDE9022304B0704738B500220023044642
:100CE0000D46FFF70BFF28B920462946BDE83840DE
:100CF00000F00AB8204605F1004100F005F8404236
:100D000061EB410138BD00BFD0B50C4B0022064657
:100D10000F46FFF781FCFFF757FF0446FFF702FC81
:100D2000074B0022FFF778FC02460B463046394657
:100D3000FFF7BAFAFFF748FF2146D0BD0000F03DAB
:100D40000000F0412DE9F047089D04468E46002B37
:100D50004DD18A42944669D9B2FA82F252B101FA6F
:100D600002F3C2F1200120FA01F10CFA02FC41EA7F
:100D7000030E94404FEA1C48210CBEFBF8F61FFA04
:100D80008CF708FB16E341EA034306FB07F199429F
:100D90000AD91CEB030306F1FF3080F01F81994252
:100DA00040F21C81023E63445B1AA4B2B3FBF8F02C
:100DB00008FB103344EA034400FB07F7A7420AD9B3
:100DC0001CEB040400F1FF3380F00A81A74240F2DB
:100DD00007816444023840EA0640E41B00261DB146
:100DE000D4400023C5E900433146BDE8F0878B427B
:100DF00009D9002D00F0EF800026C5E9000130463A
:100E00003146BDE8F087B3FA83F6002E4AD18B4213
:100E100002D3824200F2F980841A61EB03030120BD
:100E20009E46002DE0D0C5E9004EDDE702B9FFDEA9
:100E3000B2FA82F2002A40F09280A1EB0C014FEA54
:100E40001C471FFA8CFE0126200CB1FBF7F307FBB1
:100E5000131140EA01410EFB03F0884208D91CEB54
:100E6000010103F1FF3802D2884200F2CB804346F1
:100E7000091AA4B2B1FBF7F007FB101144EA0144D0
:100E80000EFB00FEA64508D91CEB040400F1FF315F
:100E900002D2A64500F2BB800846A4EB0E0440EA4D
:100EA00003409CE7C6F12007B34022FA07FC4CEA56
:100EB000030C20FA07F401FA06F31C43F9404FEA49
:100EC0001C4900FA06F3B1FBF9F8200C1FFA8CFE5E
:100ED00009FB181140EA014108FB0EF0884202FAB2
:100EE00006F20BD91CEB010108F1FF3A80F0888073
:100EF000884240F28580A8F102086144091AA4B230
:100F0000B1FBF9F009FB101144EA014100FB0EFEB0
:100F10008E4508D91CEB010100F1FF346CD28E45DF
:100F20006AD90238614440EA0840A0FB0294A1EB70
:100F30000E01A142C846A64656D353D05DB1B3EBCD
:100F4000080261EB0E0101FA07F722FA06F3F140FD
:100F50001F43C5E9007100263146BDE8F087C2F1A4
:100F60002003D8400CFA02FC21FA03F3914001431C
:100F70004FEA1C471FFA8CFEB3FBF7F007FB103655
:100F80000B0C43EA064300FB0EF69E4204FA02F401
:100F900008D91CEB030300F1FF382FD29E422DD954
:100FA000023863449B1B89B2B3FBF7F607FB163389
:100FB00041EA034106FB0EF38B4208D91CEB010109
:100FC00006F1FF3816D28B4214D9023E6144C91A89
:100FD00046EA004638E72E46284605E70646E3E699
:100FE0001846F8E64B45A9D2B9EB020864EB0C0EA3
:100FF0000138A3E74646EAE7204694E74046D1E7B2
:10100000D0467BE7023B614432E7304609E764445F
:10101000023842E7704700BFDFF834D0002103E018
:101020000C4B5B58435004310B480C4B42189A420E
:10103000F6D30B4A02E0002342F8043B094B9A42E4
:10104000F9D302F0D5FF1CF017FA00F007FF704744
:1010500000000320D8F8020800000020E802002069
:10106000E8020020B4280120FEE700F023BC00F0D5
:1010700091BC704710B5042104461BF067FA204666
:1010800010BD000038B50C4B0C4C18800C4B822066
:1010900019806368984740F6110398420AD1094DB8
:1010A00023682C60822098472B688220DB68984751
:1010B000002038BD0120FCE704030020540000207C
:1010C00006030020080300204FF4A071F020FFF772
:1010D000D9BF0000F7B5344D2B6804461B69822048
:1010E000984780B2208000284CD02B680DF1060272
:1010F0005B6901A982209847BDF8063040F674620A
:10110000934241D9ADF80620BDF80620C2F56762CA
:10111000043292B20A2A3DD90B23B2FBF3F2234BDD
:101120001B889A4201D9013B9AB2BDF8043040F6BF
:10113000B8318B4230D8C3F571630E339BB20F21A7
:10114000B3FBF1F31A4909888B4201D94B1E9BB2BC
:10115000184E194D30682F68834281B28CBF591ADE
:10116000C91AB8B2BA428CBF101A801A89B280B2BA
:1011700001440529C8BF33603368C8BF2A60638053
:101180002B68A38003B0F0BDB32B9CBFB423ADF894
:101190000630B9E70022C8E7C3F56D6308339BB298
:1011A0000E2BCCD80023D3E7080300200603002031
:1011B000040300200C0300201003002037B568460C
:1011C0000D461446FFF786FFBDF8000030B1BDF8AC
:1011D00002302B60BDF804302360012003B030BD25
:1011E000704770477047012380F8741080F875309D
:1011F00070470020704700207047836B0BB1084692
:10120000184770474FF6FF707047406803689B6946
:10121000184770477047704770B5044600F05AFC95
:101220002368D3F88050044BD4E90F122046AC4613
:10123000BDE87040604700BF000000D008B50368FB
:1012400004469B6F9847236820461B6F984700F021
:10125000D7F8236820469B6E9847292000F04AFD66
:1012600000F0CEF8236820469B6E9847F8E710B54B
:10127000044609F0BFFE23682046D3F8A030BDE83D
:101280001040184700F018BC00F01CBC00F040BC37
:1012900000F0EEBB00F040BC00F048BC00F0F2BB38
:1012A00009F060B810B57C2104461BF04FF92046C8
:1012B00010BD90F877301BB1406803681B68184771
:1012C0001846704730B590F8341090F87440104BC1
:1012D0008C421A780DD05AB90E4A0F490F4814881B
:1012E0000F4D0C80018811802980048001221A7022
:1012F00030BD002AFCD00948074A01881180054A00
:10130000074D14882C80118004800022EFE700BF75
:1013100008260120042601200A2601200626012095
:101320000C26012008B531B90A4B0B4A0B484FF483
:1013300025711CF057F8C0E90F12003A08494364C0
:1013400018BF01220A70003B064A18BF0123137020
:1013500008BD00BFA81F0208E01F02082E200208D7
:101360000E2601200F260120012108B50022084683
:1013700006F024FD0A4B186028B90A4B0A4A2721B7
:101380000A481CF02FF800220421012006F0B3FDCA
:10139000074B186018B9074B034A2B21F0E708BD2B
:1013A000180300204021020889210208B821020800
:1013B00014030020FC210208024B4FF0FF31186893
:1013C00006F046BD18030020014B186806F06BBDFF
:1013D00018030020024B0021186806F039BD00BF39
:1013E00018030020FFF7F0BF0348044900680023FA
:1013F0001A4606F0BBBD00BF140300200400002005
:1014000013B5084C00231A4601A9206806F0DEFD3A
:1014100020684FF0FF33002201A906F0D7FD02B08B
:1014200010BD00BF1403002006F0ABBC03685B6C6A
:1014300018470120704703689B6A184782B0002351
:1014400001930D4B1A6B42F400021A631A6B02F4FB
:1014500000020192019A1A6942F400021A611A69A3
:1014600022F400021A61054B054A1A61054B4FF040
:1014700080629A6002B07047003802407413002006
:10148000C914000800E100E040F2EF3070470000AE
:10149000054B0360054B4FF08062C3F88820BFF313
:1014A0004F8FBFF36F8F70479823020800E100E071
:1014B00010B504464FF44261FFF7EAFF20461BF0E7
:1014C00045F8204610BD0000024B1B6858680368B1
:1014D0005B6918471026012070B5044625460A4B63
:1014E0000C30002660602672667245F8203B602250
:1014F000294609F0B9FE04F54263EE602035AB429F
:10150000FBD1204670BD00BF9823020808B50B2907
:101510000BD8DFE801F01206100A0A0A0A080808C8
:101520000808012008BD0520FCE7054B054A0648D0
:1015300065211BF057FF0020F4E70220F2E700BF0F
:101540003E22020859220208A522020808B50A29EB
:1015500009D8DFE801F010060E080808080606069C
:101560000600012008BD054B054A064886211BF0F0
:1015700039FF0020F6E70220F4E700BF3E22020810
:10158000E7220208A52202082DE9F8434F7F0C4606
:1015900039468146FFF7BAFF94F81E80054641465A
:1015A0004846FFF7B3FF414606464846FFF7CEFFE1
:1015B000A18A628B494B521A1A649A61228B521A81
:1015C0001A61E28A586342EA01425A6420696268F9
:1015D000D863DA60216894F81CC080294FEA0C6255
:1015E00034D012D8202945EA020473D0402971D0A2
:1015F00004296FD0394B2A4342F400324745DA615F
:1016000014BF374A40F201221EE0B1F5807F07D0B7
:10161000B1F5007FEED142F4003242F0090203E05E
:1016200042F4003242F00A02DA61E1680A024C0137
:1016300002F4780204F47C44C9002243C9B20A438C
:101640001A62284A5E6258611A603FE0A4682A4321
:1016500042F40032211DD962DA6122785E6258615B
:1016600042B1012A1CD0204B204A21484FF48871F6
:101670001BF0B8FEDA69618822F47F42013922F05A
:10168000100242EA0122DA610125144CE36943F0B9
:101690002003E361E3699B0613D5FFF7C5FEF9E775
:1016A0006288D969501E21F47F4222F0100242EA7A
:1016B0000022BCF1FF0542F0100218BF0125DA61DB
:1016C000E3E71023A3601DB1064B2360BDE8F88358
:1016D000034BFAE744F40034DC61B2E700B00240A7
:1016E0000102010001020200342302084E23020815
:1016F000A5220208F8B58F7F0C463946FFF726FF72
:10170000A18AE28A658B1E4B2669586342EA014230
:101710006D1A5A64DE631D642168E268082918D1D5
:101720009D611D615862207F01F1011141EA006154
:10173000D9615001110201F4780100F47C40D2001B
:101740000143D2B20A431A620E4A5E61DE601A6039
:10175000F8BD0021D86119611FB99A63084B0A4A84
:10176000F5E71102500101F4780100F47C40D20049
:101770000143D2B20A43217F42EA0162EDE700BF92
:1017800000B0024001020200010203000120704784
:101790000C2070470C2303FB0100083070470C231A
:1017A00003FB010008307047012070474FF4B87008
:1017B00070474FF4B87303FB0100083070474FF4D3
:1017C000B87303FB010008307047012070471020F8
:1017D000704700EB01100830704700EB0110083033
:1017E0007047084601F0F4BB10B5034B0360044694
:1017F00008F0CCFB204610BD5024020810B504466A
:10180000FFF7F2FF204614211AF0A0FE204610BD7B
:1018100010B5034B0360044608F0B8FB204610BD2A
:101820001C24020810B50446FFF7F2FF20464FF4CF
:10183000BC711AF08BFE204610BD000010B5034BA2
:101840000360044608F0A2FB204610BDE82302080E
:1018500010B50446FFF7F2FF204618211AF076FE75
:10186000204610BD10B5084B0360044600F5D27049
:10187000FFF7BAFF04F12C00FFF7CAFF04F11400D0
:10188000FFF7DCFF204610BD8424020808B502489B
:10189000FFF7E8FF08BD00BF2003002010B5044695
:1018A000FFF7E0FF20464FF445711AF04FFE204647
:1018B00010BD00002DE9F34101F024FA054601F0C6
:1018C00025FA0024014623462846224600940EF0BD
:1018D0006BFF254B254A264D1A60204601F008FF74
:1018E00024480EF0A3FE2B78BFF35B8FDB0735D4C3
:1018F00028461AF02DFE88B31F4C204B236004F5B8
:10190000DE7604F1140004F12C0804F5D27760604F
:10191000C4F80880E760266108F03AFB184B636161
:10192000404608F035FB174BE362384608F030FBC1
:10193000154BC4F8A43104F5DC7001F0D5FF224644
:1019400004F5DC71304601F049FF304601F040FB00
:101950000E481BF065FD28461AF006FE0C4802B042
:10196000BDE8F041FFF758BC6C260120D4120020DE
:101970001C0300200800002020030020842402080B
:10198000E82302081C240208502402088D180008CD
:10199000581200200148FFF751BC00BF5812002028
:1019A00070B5234C234E244B244D23603046FFF763
:1019B00093FD284611F07CFF2148224B0360002252
:1019C0002148DC604FF48071C3E91212C3E901655C
:1019D0001E491F4D1A86F02404804FF4A070C3E9FD
:1019E000191228804FF080711A4D59670121C3E9FF
:1019F0000422C3E90622C3E90822C3E90A22C3E993
:101A00000E22C3E91022C3E91422C3E916221A6682
:101A100083F86C201A6783F878102A700E4A83F8CE
:101A2000341014800D4A10800D4A1A6070BD00BF3A
:101A30003406002038060020981F0208D812002023
:101A40001026012058120020042601200100000168
:101A500006260120082601200A2601200C26012046
:101A60007C2002080148FFF713BD00BF38060020A4
:101A7000034B902283F85A2383F85823704700BF02
:101A800000E100E0094A0A49D3680A48C3F30A039F
:101A9000013B9BB20B801169C1F30A01013901803E
:101AA0001364536B43F001035363704700680140B4
:101AB0005213002050130020014BD3F8AC007047A4
:101AC00000680140024B0122C3F8AC105A62704713
:101AD0000068014070B5044608F097FC2368DD6D8E
:101AE0000BF088FC01462046A8472368054AD3F836
:101AF00080502046AC460023BDE87040A2F5163168
:101B0000604700BF00B004D008F066BC08F070BCAD
:101B100008F02EBC08F087BD034B4FF080629A603E
:101B20004FF080729A60704700E100E0084B4FF080
:101B30008062C3F88820BFF34F8FBFF36F8F4FF0E1
:101B40008072C3F88820BFF34F8FBFF36F8F704749
:101B500000E100E0134B144A1B6C11888B4210B556
:101B6000124C13D1124B198803F010FB226892F823
:101B70006630013382F86630FFF736FC206809F0E2
:101B800039FABDE810400020FFF72ABB03F0FEFA47
:101B90000020FFF726FB20680368BDE81040DB69E2
:101BA000184700BF00680140521300201026012092
:101BB0005013002007B5064BADF806001B6805481A
:101BC00001220DF1060104F0B3FA03B05DF804FB45
:101BD000100000205C15002008B505F04DFF05F051
:101BE00065FF4FF4FA7006F0DDF8F6E710B504482B
:101BF0001446642392B2006805F0EEF9204610BD49
:101C000018000020704770477FB5094B8DF81720EA
:101C10001B6802930DF117020123009201930A46FB
:101C20000146044802F05EFF07B05DF804FB00BF08
:101C30000C000020B41300207FB500238DF817306E
:101C4000084B1B6802930A4601230DF1170100910E
:101C500001930146044802F0D5FF9DF8170007B034
:101C60005DF804FB0C000020B41300201FB5084CE5
:101C700024680092CDE901340A4601230146054853
:101C800002F0C0FF003818BF012004B010BD00BF33
:101C90000C000020B413002002F0E4B908B5064897
:101CA0000022042102F08CFCBDE808400248012219
:101CB000042102F085BC00BF0008024038B50B4D7E
:101CC000044601220A484FF4005102F079FC002238
:101CD0000421284602F074FC2046FFF76BFF2846DB
:101CE0000122BDE83840042102F06ABC000802402D
:101CF000000C024038B50B4D044600220A484FF450
:101D0000005102F05DFC00220421284602F058FC3C
:101D10002046FFF74FFF28460122BDE83840042146
:101D200002F04EBC00080240000C0240F7B5144E11
:101D3000144F05460C4630460022042102F040FCB8
:101D400000224FF40051384602F03AFC2846FFF7D3
:101D500031FF0D4B0D481B68224601A904F08AFB98
:101D6000384601224FF40051019C02F029FC304614
:101D70000122042102F024FC204603B0F0BD00BF84
:101D800000080240000C0240100000205C150020FA
:101D900002F068B90268034B9A4201D102F050B9CF
:101DA000704700BF0010004001481CF063BC00BF3A
:101DB0009024020810B5002494B02146142203A8F0
:101DC000CDE90A440C941BF099FB224B01941A6C48
:101DD00042F080521A641B6C03F080530193019B04
:101DE0001D4B02941A6842F440421A601B6803F4C7
:101DF00040430293029B09214FF480330224CDE932
:101E0000081301234FF48000CDE90D340823CDE9F8
:101E10000F034FF4A873CDE9113408A804231393DA
:101E200003F0D2F908B1FFF7BFFF0F23CDE9033468
:101E300000224FF4A053CDE9052305214FF4805330
:101E400003A8079303F09EFB08B1FFF7ADFF14B0A2
:101E500010BD00BF003802400070004080B59EB049
:101E600002F0D4F8FFF7A6FF1422002111A81BF0FE
:101E700045FB0024BB4B01941A6BBB4842F0100297
:101E80001A631A6B02F010020192019A02941A6B03
:101E900042F020021A631A6B02F020020292029AA8
:101EA00003941A6B42F080021A631A6B02F08002EC
:101EB0000392039A04941A6B42F004021A631A6B99
:101EC00002F004020492049A05941A6B42F0010293
:101ED0001A631A6B02F001020592059A06941A6BB6
:101EE00042F002021A631A6B02F002020692069A8C
:101EF00007941A6B42F040021A631A6B02F0400218
:101F00000792079A08941A6B42F008021A631B6B37
:101F100003F00803089322460421089B02F050FBBB
:101F2000924822464FF4405102F04AFB2246904824
:101F30004FF4C44102F044FB012504238A48139462
:101F4000022611A9CDE91135149602F053FA4FF487
:101F50004053864811A9CDE91135CDE9134602F069
:101F600049FA4FF4C443824811A9CDE91135CDE9AE
:101F7000134402F03FFA7F487F4B036002F0D8F829
:101F800008B1FFF711FF7D487D4BDFF818E24FF4F1
:101F90008042C0E900E30023C0E90233C0E9042322
:101FA000C0E90633036202F0F5FC08B1FFF7FCFE5E
:101FB0007248102102F02EFF08B1FFF7F5FE6F48BE
:101FC000002102F046FF08B1FFF7EEFE6D486E4FAC
:101FD0004FF48273C0E900730023C0E90233C0E903
:101FE0000433C0E908334FF4007C182283620A23CB
:101FF000C0E906C2C36204F03FF808B1FFF7D4FE9F
:102000006248634B0125C0E90035102640230024B7
:10201000C0E904634FF4C073C0E906344FF40063B1
:10202000C0E908344FF400530421072283620223DD
:10203000CDE91312C0E90241CDE9113211A9032201
:10204000CDE91523179303F023FF08B1FFF7ACFE8A
:1020500008264FF6FF720CA94C480994CDE90D658E
:102060000C950F9403F034FF012001F0FBFF0223D5
:102070004FF6FF720CA94548CDE90C3603274FF007
:102080000408CDE90E5403F023FF4FF6FF720CA9AC
:102090003E48CDE90C76CDE90E8403F019FF4FF4EC
:1020A0000C730993099B39480F934FF6FF720CA9E3
:1020B000CDE90C860E9503F00BFF40F26A513348D0
:1020C00003F01DFF3422002111A81BF017FA31483C
:1020D000314B8486C0E900340923C0E905351D234E
:1020E000C0E9073740F20D1240F24313C0E909235B
:1020F00040F2171140F24713C0E90244C0E90B1344
:10210000046180F8364002F049FF08B1FFF74CFE49
:102110004FF4A07302200022CDE91430FF20F021FB
:10212000CDE916024FF480680520CDE91121CDE9F3
:102130001880CDE91A211748139211A91C93ADF804
:1021400074208DF8762002F0F4FF08B1FFF72CFE22
:10215000124C134B23601B6898472368DB68984731
:1021600022E000BF0038024000080240000C02409C
:10217000001802406C13002000300240B41300200D
:10218000A08601005C15002000500140D014002002
:10219000400100A0081400200068014058130020EE
:1021A0001C000020005C0040A048DFF8D8E20023BB
:1021B0000222C0E90A32C0E90C33C0E900E3C0E9F9
:1021C000022302F01BF808B1FFF7EEFD974801214A
:1021D00002F0CCF808B1FFF7E7FD0024142200213B
:1021E0000CA81BF08BF92822214611A80A941BF099
:1021F00085F98F488F4B8461C0E900344FF07F0C24
:10220000FF23C0E902C3C0E9044403F01BFC08B18A
:10221000FFF7CAFD8648ADF8304001220CA9CDE990
:102220000F448DF8324003F066FC08B1FFF7BCFDA7
:10223000012200237E488DF828200AA98DF8292044
:102240008DF82A208DF82B3003F0C6FC08B1FFF77B
:10225000ABFD45F62313ADF8443059238DF84630D5
:102260000023CDE91433CDE91633129318930122DC
:102270004FF480736E488DF8642011A91A9303F00F
:102280000BFD08B1FFF790FD6B486C4E4FF4827365
:10229000C0E900630023C0E90233C0E90433C0E9A8
:1022A00008334FF40077182283620A23C0E90672CC
:1022B000C36203F0E1FE08B1FFF776FD00241022AF
:1022C00000210CA81BF01AF91C22214611A8CDE907
:1022D0000A441BF013F95A4844F29F134FF080450B
:1022E000C0E900536423C0E9033480238460836120
:1022F00004F03AFB08B1FFF757FD4FF48053504804
:102300000C930CA904F024FC08B1FFF74DFD4C48D8
:1023100004F056FB08B1FFF747FD002448480AA91E
:10232000CDE90A4404F028FD08B1FFF73DFD602324
:1023300043481394002211A9CDE91134159404F0F7
:10234000A1FB08B1FFF730FD3D483E4C00F0EAFA32
:102350003D484FF4E133C0E900430C220023C0E9BB
:102360000233C0E905230361C36104F007FE08B12D
:10237000FFF71AFD354C36494FF4E1330025C4E927
:10238000001320460C23C4E90255C4E90535256134
:10239000E56104F0F3FD08B1FFF706FD2D482E4A74
:1023A000856044F29F13C0E9002341F28833CDE9F0
:1023B0001155C360856104F0D7FA08B1FFF7F4FC4A
:1023C0000023244811A9CDE9113304F0D5FC08B14C
:1023D000FFF7EAFCFEF749FE0021194804F0CAFCA9
:1023E00001214FF0804005F0CFF805F09FFA1B481F
:1023F0001B4B43601B4B04601B68836005F0DCFBD8
:1024000019481CF0BDF905F047FC184A184800218E
:1024100005F06EFC174B184A18600021174805F0AC
:1024200067FC174B186005F049FCFEE774130020A9
:10243000B0140020002800400415002000340140A2
:10244000B4150020005000408816002044160020DB
:1024500000100140FC15002000140040CC160020A4
:102460005C1300201400002096240208F0240208C7
:10247000D91B000868130020CC2402086F10000844
:102480005413002000B0024082B00E4B0022009294
:10249000596C41F480415964596C01F480410091B8
:1024A00000990192196C41F0805119641B6C03F082
:1024B00080530193019B0F216FF0010002B001F0E6
:1024C000F7BD00BF003802400268094B9A4282B053
:1024D0000BD100230193074B1A6B42F480521A630D
:1024E0001B6B03F480530193019B02B0704700BF44
:1024F000003002400038024007B50F4B02689A4294
:1025000016D10022A3F5F0430192196B41F40001AA
:1025100019631B6B03F40003019305215A20019BEF
:1025200001F0C6FD5A2003B05DF804EB01F0F2BDE6
:1025300003B05DF804FB00BF00B002402DE9F0439A
:10254000044689B01422002103A81AF0D7FF22689C
:10255000244B9A4243D1244C244800250095236BF8
:1025600043F004032363236B03F004030093009BF5
:102570000195236B43F001032363236B03F00103F5
:102580000193019B4FF012094FF400734FF00108C3
:102590000327042603A9CDE90339CDE9058707966A
:1025A00001F028FF4FF480731148079603A9CDE985
:1025B0000339CDE9058701F01DFF0295236C43F433
:1025C00000032364236C03F400030293029B236A39
:1025D00043F400032362236A23F40003236209B057
:1025E000BDE8F083005C0040003802400008024073
:1025F00000000240F0B599B004461422002107A85B
:102600001AF07CFF30220DEB020000211AF076FF59
:1026100022685E4B9A4240F0B78008230C93C02397
:102620001093042312930CA84FF40033159303F076
:1026300083F808B1FFF7B8FB554B564800240094C7
:102640005A6C42F080625A645A6C02F080620092C6
:10265000009A01941A6B42F020021A631A6B02F07E
:1026600020020192019A02941A6B42F001021A634D
:102670001A6B02F001020292029A03941A6B42F062
:1026800002021A631A6B02F002020392039A049484
:102690001A6B42F040021A631A6B02F04002049275
:1026A000049A05941A6B42F004021A631A6B02F042
:1026B00004020592059A06941A6B42F008021A6306
:1026C0001B6B03F00803069302250E26069B0B9650
:1026D0004FF4806307A9CDE90735CDE9094501F03D
:1026E00089FE41F658032C480B9607A9CDE907351A
:1026F0000927CDE9094501F07DFE032327480B9703
:1027000007A9CDE90735CDE9094501F073FE4FF47E
:10271000706322480B9607A9CDE90735CDE9094535
:1027200001F068FE4FF40C631D480B9607A9CDE934
:102730000735CDE9094501F05DFEC02319480B9628
:1027400007A9CDE90735CDE9094501F053FE082376
:1027500015480B9607A9CDE90735CDE9094501F0E4
:1027600049FE4FF4A0530E480B9707A9CDE9073552
:10277000CDE9094501F03EFE58202246052101F031
:1027800097FC582001F0C6FC19B0F0BD006801406C
:1027900000380240001402400000024000040240E1
:1027A0000018024000080240000C024010B5044628
:1027B0008CB03022002168461AF0A0FE22680E4B31
:1027C0009A4216D12023009368464FF400730A936F
:1027D00002F0B2FF08B1FFF7E7FA084B0122C3F895
:1027E0003C2E29200022052101F062FC292001F065
:1027F00091FC0CB010BD00BF002800400000474213
:1028000010B514228AB0044600210DEB02001AF024
:1028100075FE2368254A934223D1254B002101915F
:102820005A6C42F400525A645A6C02F400520192FB
:10283000019A02911A6B42F010021A631B6B03F0AB
:10284000100302936420029B0223CDE905030324B5
:102850000523CDE90843174805A901F0CBFD0AB0CF
:1028600010BD154A9342FAD1114B1448002103912F
:102870005A6C42F480125A645A6C02F48012039229
:10288000039A04911A6B42F020021A631B6B03F047
:1028900020030493049B4FF4607202230321CDE9CB
:1028A00005230523CDE9081305A9D6E70034014027
:1028B0000038024000100240005001400014024065
:1028C0000368B3F1804F07B50ED100230093134B7B
:1028D0001A6C42F001021A641B6C03F001030093AE
:1028E000009B03B05DF804FB0D4A9342F9D10B4BFA
:1028F00000220192196C41F0200119641B6C03F055
:102900002003019305213720019B01F0D1FB3720E3
:1029100003B05DF804EB01F0FDBB00BF00380240DE
:102920000014004010B5044686B01422002101A80E
:102930001AF0E4FD2368B3F1804F15D10023009312
:102940000A4B0B481A6B42F001021A631B6B03F02F
:1029500001030093009B20220223CDE9012301A95A
:102960000123059301F046FD06B010BD003802407A
:1029700000000240F0B514228BB0044600210DEB9C
:1029800002001AF0BBFD2368384A934240D1384B0D
:102990003848002400941A6C42F480121A641A6CAD
:1029A00002F480120092009A01941A6B42F0040221
:1029B0001A631A6B02F004020192019A02941A6BD4
:1029C00042F008021A631B6B03F008030293029B98
:1029D00002274FF480530326082505A9CDE90537C2
:1029E000CDE9086501F006FD04232348099505A9F2
:1029F000CDE90537CDE9074601F0FCFC352022463C
:102A0000052101F055FB352001F084FB0BB0F0BD32
:102A10001A4A9342FAD1164B1948002403945A6C6F
:102A200042F010025A645A6C02F010020392039AA8
:102A300004941A6B42F001021A631B6B03F001034A
:102A400004934FF4C062049B0223CDE905230321C4
:102A50000723CDE9081305A901F0CCFC2520224667
:102A6000052101F025FB2520CEE700BF00500040E6
:102A70000038024000080240000C024000100140F3
:102A8000000002402DE9F04186B0002303932B4B58
:102A90001C68002C4FD14FF00108C3F80080284B70
:102AA00000949A6B274842EA08029A639B6B03EAF8
:102AB00008030093022703260C25009B01A94FF66B
:102AC0003F03CDE90137CDE9046501F093FC1E48D1
:102AD000059501A9CDE90187CDE9034601F08AFCFE
:102AE00048F233131948059501A9CDE90137CDE91D
:102AF000034601F07FFC4FF683731548059501A945
:102B0000CDE90137CDE9034601F074FC4CF20373C3
:102B10001048059501A9CDE90137CDE9034601F03B
:102B200069FC60230C48059501A9CDE90137CDE981
:102B3000034601F05FFC06B0BDE8F081F41600200A
:102B40000038024000140240000802400018024011
:102B500000100240000C02400004024030B5014663
:102B600089B00022362001F0A3FA362001F0D2FA13
:102B70000025154B02951A6C144C42F010021A6491
:102B80001B6C03F01003029301A903A8029B02F03F
:102B9000B5FD02F093FD0E4B236040F2E733E36096
:102BA00040000C4BB0FBF3F001386060204625611B
:102BB000A56003F0D9FE20B9204603F08DFD09B0D1
:102BC00030BD0120FBE700BF00380240F8160020AE
:102BD0000010004040420F007047FEE7FEE7FEE7AE
:102BE000FEE77047014804F0ADBA00BF441600206C
:102BF000014802F0CBBE00BFB0140020014804F031
:102C0000A1BA00BF88160020014803F0A4BD00BF90
:102C1000F8160020014803F09EBD00BFFC150020FF
:102C2000014802F029BA00BF08140020014801F051
:102C300013BB00BF741300200120704708B51AF0C1
:102C400003FC162303604FF0FF3008BD08B51AF0EF
:102C5000FBFB16230360FEE770B50D4614460E46D7
:102C6000731B9C4201DC204670BDAFF3008006F868
:102C7000010BF5E74FF0FF3070474FF400534B6006
:102C80000020704701207047002070470A4A1168F1
:102C900008B5034609B9094911601068694603443B
:102CA0008B4206D91AF0D0FB0C2303604FF0FF30A3
:102CB00008BD1360FCE700BF40170020B8280120C2
:102CC000704710B50421044619F040FC204610BDA1
:102CD00008B5032913D8DFE801F002060A0E00F058
:102CE00053FD006808BD00F04FFD4068FAE700F0B2
:102CF0004BFD8068F6E700F047FDC068F2E7002072
:102D0000F0E70000004870472825020802207047BD
:102D100013B5002451B1036801948DF8034001AA52
:102D20009C680DF10303A04702B010BD0846FBE705
:102D30004089704780897047808870478379808890
:102D4000184480B27047C07900F07F007047C079A6
:102D5000C0097047704710B50821044619F0F6FB0A
:102D6000204610BD704700F596730868496803C394
:102D70007047704770474160704770470123037286
:102D800070477047704710B4C268416854100346DA
:102D900001EB6200D20748BF0A599B685DF8044BFB
:102DA00048BFD358184743682BB183682BB9C06814
:102DB00000F001007047184670470120704710B5B9
:102DC0000C21044619F0C2FB204610BD10B510219D
:102DD000044619F0BBFB204610BD10B54FF4AC7192
:102DE000044619F0B3FB204610BD10B50AF002FBF3
:102DF0000368BDE810401B6B184710B50446D0F8B7
:102E00003C0158B10368DB68984738B1D4F83C01FD
:102E100003689B6898470023C4F83C3110BD00004C
:102E20002DE9F14FD0E9545A0746A86803681B6A98
:102E30009847B0F5B87F05D2454B464AA32146488E
:102E40001AF0D0FA686803681B6A98470F2803D8FD
:102E5000424B404AA421F2E7E86803681B6A98479E
:102E60000B2803D83E4B3B4AA521E8E7DFF8F89052
:102E70000AF0C0FA0AF0C4FAD9F8000010B10368E9
:102E8000DB689847D9F8000010B103681B689847C1
:102E9000DFF8D880D8F8000010B103685B69984764
:102EA000D7F8380110B103685B689847D8F800007C
:102EB00010B103681B689847D7F8380110B1036850
:102EC0009B689847E868036800215B6A98474FF061
:102ED000000B244B03600446C0F804B080F808B02F
:102EE000A868036859465B6A9847064600F092FD59
:102EF0006868036859465B6A98473146054600F0A2
:102F000067FDC9F80040C7F83851C8F80060E5B15E
:102F10002B1DCAF800303368C5F808A03046DB68BE
:102F2000F56398472B6828461B689847214630462A
:102F30000BF095FE236820461B69984723685B6960
:102F4000204601B0BDE8F04F18472B46E1E700BF2F
:102F500060250208EE250208F22602083927020839
:102F6000DC270208E4280208502601204C26012014
:102F7000F8B5044617460E460AF05CFA104B0025D9
:102F8000C4E954760F4E1C60C4E952550E4B3068AC
:102F900023600E4BC4E95035036801219B68C4E9E6
:102FA0004E559847284600F0A3FB336893F87620E7
:102FB0000AB1D86C00B9986812F0ADF92046F8BD96
:102FC0005C26012010260120A0280208882802087B
:102FD000064BC0F848310023C0F84C3100F5A0730F
:102FE000C0F84401C0F83C31704700BF212E0008F2
:102FF000006A7047406A704770478B8880690A682A
:10300000DB0A50F823001044704710B5C2B1137B9F
:10301000B3B1547BD27A240204F4E0641443C2694D
:1030200098B202EB840213888B4202D192F902001B
:1030300010BD05D8013880B204320028F3D1F7E77B
:103040000020F5E710B52821044619F07FFA204644
:1030500010BD000030B589B00446BDF8505006954B
:10306000BDF84C5005959DF8405004959DF83C5096
:1030700003959DF8385002959DF8345001959DF8C0
:10308000305000950BF0EEF9064B2360119BA361C5
:10309000129BE361159B2362169B6362204609B075
:1030A00030BD00BF082902080020704781807047AA
:1030B000C1807047018170474181704770477047F8
:1030C00070477047704710B4C4880368121B848827
:1030D0001B6D091B12B25DF8044B09B218474FF67D
:1030E000FF7383814FF0FF3303621368C361106085
:1030F00070477047704770477047704790F82520B9
:103100001AB190F8242002B11860704770477047D8
:103110007047704730B4C26844685510034604EBEA
:103120006200D20748BF62599B6830BC48BFD35881
:10313000184743682BB183682BB9C06800F00100C1
:103140007047184670470120704710B5102104469B
:1031500019F0FCF9204610BD10B54FF4B8710446C3
:1031600019F0F4F9204610BD00F1D8028A4202D1CC
:103170000368DB6A1847704770B503680446DB6A6A
:10318000154698472368294620461B6BBDE87040CA
:10319000184770B504461D46BDF91060FFF7ECFFF7
:1031A0002368294620465B6B9847236831462046B2
:1031B0009B6BBDE8704018470022C0E90122C0E9BE
:1031C0000322C0E90522C0E907224FF480728284FD
:1031D000014A0260704700BF6C2A020810B526221F
:1031E000044600211AF08AF92046FFF7E5FF044B58
:1031F0002360FF2384F826300023A362204610BDFD
:103200007C3A020810B52622044600211AF076F90D
:103210002046FFF7D1FF074B2360074BA3624FF611
:10322000FF73A3854FF47F020023C4E90C32238788
:10323000204610BDD4390208582502082DE9F04F68
:10324000044689B0A04600250BF08CFB694BE56372
:1032500048F8403B04F16C0A4046FFF7BFFF04F119
:1032600098075046FFF7BAFF3846FFF7CBFF04F147
:10327000D806614BC4F8983029462622C4F8D450A9
:1032800030461AF03BF93046FFF796FF4FF0010346
:103290005A4A84F8FC3004F588794FF6FF73A4F895
:1032A0000631A4F8083184F80A31C4F8D820A4F80B
:1032B0000C31C4F8005184F804514846FFF7A2FFCE
:1032C0004F4BC4E958344F4B4FF4A07BC4E95A35F7
:1032D000CDF800B0F0232A4629464046FFF759FFB3
:1032E0004FF07F43A366CDF800B0F0232A4629466D
:1032F0005046FFF74EFF444BC4F89430732215211B
:103300003846FFF739FF4FF07F43C4F8C8303F4BD2
:10331000A4F8CC501B6804F5A67B2BB93C4B3D4A66
:10332000AE213D481AF05EF83C4B1B88012B03D8B8
:103330003B4B384AAF21F4E73A4B0121186800F0C3
:1033400013FA394A03460A2158460CF0A5FFC4F87F
:10335000D4B0384608F09DF9DFF8D0B0CDF818B0F9
:1033600006A93846ADF81C5008F0B0F93046E12205
:103370003821FFF701FF4FF0010306AA05A93046E7
:10338000A4F80C51ADF81430ADF8185008F0DEF97F
:1033900004F5B073BB22C4F8003148464021FFF762
:1033A000EBFE4FF07F43C4F8403106A902234846A4
:1033B000A4F84451ADF81C30CDF818B008F086F9E7
:1033C000201D4146039006F08DFE0398514606F0FD
:1033D00089FE0398394606F085FE0398314606F0CB
:1033E00081FE0398494606F07DFE204609B0BDE8FF
:1033F000F08F00BFE82A0208783B0208643902080F
:10340000D02A020869310008FF2200FF602601204F
:10341000582902089A290208C829020864260120AE
:103420000F2A02086C260120612A0208582502088A
:103430007047000030B5154D2C78BFF35B8F14F04A
:1034400001048DB01ED1284619F082F8D0B13F2377
:1034500007930F4B06930F4B0F4910480894012216
:10346000CDE904430423CDE90132CDE909440A231F
:1034700003940094FFF7EEFD094819F0D1FF2846A8
:1034800019F072F805480DB030BD00BF4417002098
:1034900024600208182B0208785E020848170020F2
:1034A000313400087047000030B5154D2C78BFF35B
:1034B0005B8F14F001048DB01ED1284619F048F836
:1034C000D0B13F2307930F4B06930F4B0F49104882
:1034D00008940122CDE904430423CDE90132CDE96A
:1034E00009440A2303940094FFF7B4FD094819F036
:1034F00097FF284619F038F805480DB030BD00BFD9
:1035000070170020286002081C2B0208885E020841
:1035100074170020A53400087047000030B5164D20
:103520002C78BFF35B8F14F001048DB020D12846B6
:1035300019F00EF8E0B13F232E22CDE907320F4BF0
:1035400006930F4B05930123CDE903430293042314
:10355000CDE900330B490C4814231B22CDE9094463
:10356000FFF778FD094819F05BFF284618F0FCFFCB
:1035700005480DB030BD00BF9C1700202C6002082C
:10358000202B0208985E0208A017002019350008B9
:103590007047000030B5154D2C78BFF35B8F14F0E9
:1035A00001048DB01ED1284618F0D2FFD0B13F23C0
:1035B00007930F4B06930F4B0F49104808940122B5
:1035C000CDE904430423CDE90132CDE909442823A0
:1035D00003940094FFF73EFD094819F021FF2846A7
:1035E00018F0C2FF05480DB030BD00BFC81700205D
:1035F00060600208242B020814600208CC17002027
:103600009135000800207047002070470EB403B5C4
:1036100003AB002153F8042B01930AF041FD02B0E3
:103620005DF804EB03B070470CB407B504AB53F876
:10363000042B01930AF034FD03B05DF804EB02B0F3
:1036400070470000C36B10B5044673B3038E2BB9EB
:10365000184B194ABF21194819F0C4FEC38D00EB5D
:1036600043035B8B0BB30CF05DF8238E012B03D867
:10367000134B144AC421EEE7E28D531C9BB2092B75
:10368000194688BFA3F10A0104EB410140F63F103F
:10369000498B814209D10A2B04EB420228BF002347
:1036A00004EB4303508B588351832046BDE8104000
:1036B0000BF01CBF282B0208312B0208DC2B020860
:1036C000262C0208342C02080BF0CABE10B586B0B6
:1036D00002AC84E806001A460AAB05930193099BE5
:1036E00000932146089B09F008FA06B010BD0000BF
:1036F00038B518BB124B13481B681349B3B11A688D
:103700009C681A4402605A681A440A601C440F4BB1
:1037100000221A8000F038F8054600F033F80C4B10
:103720001C600C4B1D600C4B188007E00B4B0360BA
:103730000B4B0B600B4B1C68002CE8D138BD00BF55
:10374000F4170020F8170020FC17002000180020B4
:10375000602601206826012064260120706002088E
:1037600064600208B0600208044B1B6853F8210033
:10377000034B1B6803EB4000704700BFFC170020A1
:10378000F8170020032070470048704704180020F5
:1037900010B5FFF7C3FE064C2060FFF7FBFE60602C
:1037A000FFF782FEA060FFF745FEE06010BD00BF9E
:1037B00004180020704710B54FF4AC71044618F09F
:1037C000C5FE204610BD10B50446D0F8540100F0E7
:1037D0008FF82046BDE8104009F0E4BC10B504465F
:1037E000FFF7C6FB014B2360204610BD102D0208D9
:1037F00030B5421E002308440139CC1AA34207DA2F
:1038000012F8014F10F8015D157001330470F4E7F0
:1038100030BDF8B504460E464B1EC1F101050A2025
:10382000EF1844B194FBF0F100FB1144303403F87D
:10383000014F0C46F4E7D51BBA42B8BF00252A4613
:1038400030213D44F01919F059FE30462946FFF762
:10385000CFFF74552846F8BD2DE970432DED028B3E
:10386000BDEEC08A04460E460022014618EE100A3C
:10387000F0EE408AFFF7CDFF054656B32E232354C2
:103880003046FCF75FFE9FED160B41EC110B18F074
:1038900085FEB8EEC88A59EC108B78EEC87A0135EF
:1038A00017EE900AFCF760FE42464B46FCF7B4FE6A
:1038B000FDF7AAF9BDEC028B07EE900AFDEEE77A60
:1038C00025443246294617EE900ABDE87043FFF7BB
:1038D000A0BFBDEC028BBDE8708300BFAFF30080DA
:1038E0000000000000002440002202607047000039
:1038F00070B5224C002221460546214802F085FA87
:1039000020491F48002202F0A5FA1F4A13783C21E3
:103910000533B3FBF1F001FB1033A178994207D1D5
:1039200011702868194A036892ED000B9B6898474C
:10393000174A13783C211E33B3FBF1F001FB10331F
:10394000A178994218D1114B1170D3E90001FDF70C
:103950005BF9022100EE100A0E48FFF77DFF0D4AC9
:103960000D490E481AF06EFFBDE8704082B20B4957
:103970000B480A2303F030BB70BD00BF18180020AD
:10398000B0140020141800205518002090180020B2
:1039900040180020411800204C2D02082C1800204F
:1039A00088160020704704387047704710B5102102
:1039B000044618F0CBFD204610BDA0F10400F5E749
:1039C000C06800F051B8A0F10400FFF7F9BF000093
:1039D00010B500228260044AC16002F1080424325A
:1039E0000460426010BD00BF542D0208704770474C
:1039F000FFF78EBB02484FF4005100F0E6BD00BF58
:103A00000018024010B54FF4B871044618F09EFD3E
:103A1000204610BD37B505462C46FFF70FFC0F4B6F
:103A200044F8983B204607F034FE20460AF059FC43
:103A30000B4BD3E90001FDF7E7F80A4A019001AB0F
:103A40000A2105F5A6700CF0E7FD204607F021FEDF
:103A500020460AF046FC284603B030BD942D0208EB
:103A600090180020842D0208F7B500F1980457EC57
:103A7000106B0546204607F00CFE20460AF031FC8C
:103A800039463046FDF7C0F8084A019001AB0A21DB
:103A900005F5A6700CF0C0FD204607F0FAFD2046A3
:103AA00003B0BDE8F0400AF01CBC00BF842D020842
:103AB000F02070474FF4A07070472920FEF71AB924
:103AC0002820FEF717B908B5FEF7E8F8CA20FEF778
:103AD00011F9C320FEF7F2F80820FEF7EFF85020A6
:103AE000FEF7ECF8CF20FEF705F90020FEF7E6F828
:103AF000C120FEF7E3F83020FEF7E0F8ED20FEF7F6
:103B0000F9F86420FEF7DAF80320FEF7D7F8122060
:103B1000FEF7D4F88120FEF7D1F8E820FEF7EAF8A6
:103B20008520FEF7CBF80020FEF7C8F87820FEF7D6
:103B3000C5F8CB20FEF7DEF83920FEF7BFF82C20C1
:103B4000FEF7BCF80020FEF7B9F83420FEF7B6F80F
:103B50000220FEF7B3F8F720FEF7CCF82020FEF79E
:103B6000ADF8EA20FEF7C6F80020FEF7A7F800201F
:103B7000FEF7A4F8B120FEF7BDF80020FEF79EF88E
:103B80001B20FEF79BF8B620FEF7B4F80A20FEF7DC
:103B900095F8A220FEF792F8C020FEF7ABF81020AF
:103BA000FEF78CF8C120FEF7A5F81020FEF786F886
:103BB000C520FEF79FF84520FEF780F81520FEF798
:103BC0007DF8C720FEF796F89020FEF777F83620AC
:103BD000FEF790F8C820FEF771F8F220FEF78AF899
:103BE0000020FEF76BF8B020FEF784F8C220FEF745
:103BF00065F8B620FEF77EF80A20FEF75FF8A720EA
:103C0000FEF75CF82720FEF759F80420FEF756F877
:103C10002A20FEF76FF80020FEF750F80020FEF78C
:103C20004DF80020FEF74AF8EF20FEF747F82B206A
:103C3000FEF760F80020FEF741F80020FEF73EF89E
:103C40000120FEF73BF83F20FEF738F8F620FEF79C
:103C500051F80120FEF732F80020FEF72FF8062079
:103C6000FEF72CF82C20FEF745F8C820FEF790F858
:103C70002620FEF73FF80120FEF720F8E020FEF7AF
:103C800039F80F20FEF71AF82920FEF717F824203C
:103C9000FEF714F80C20FEF711F80E20FEF70EF8D0
:103CA0000920FEF70BF84E20FEF708F87820FEF703
:103CB00005F83C20FEF702F80920FDF7FFFF13206E
:103CC000FDF7FCFF0520FDF7F9FF1720FDF7F6FFD4
:103CD0001120FDF7F3FF0020FDF7F0FFE120FEF7D4
:103CE00009F80020FDF7EAFF1620FDF7E7FF1B208B
:103CF000FDF7E4FF0420FDF7E1FF1120FDF7DEFFF3
:103D00000720FDF7DBFF3120FDF7D8FF3320FDF75B
:103D1000D5FF4220FDF7D2FF0520FDF7CFFF0C2095
:103D2000FDF7CCFF0A20FDF7C9FF2820FDF7C6FFED
:103D30002F20FDF7C3FF0F20FDF7C0FF1120FDF777
:103D4000D9FFC820FEF724F82920FDF7D3FFBDE8EE
:103D500008402C20FDF7CEBF08B5FDF79FFF0321DB
:103D6000D320FDF7E3FF80B208BD10B5C4B2022234
:103D700003212046FDF748FF0A20FDF78DFF20466E
:103D800000220321FDF740FFBDE810400220FDF7AF
:103D900083BF38B50446E4B2FDF734FF0021204666
:103DA000FDF74AFF012105462046FDF745FF40EAA1
:103DB000052080B238BD10B5C4B240212046FDF7C1
:103DC0003BFF030607D54C212046FDF735FF0038A1
:103DD00018BF012010BD01224B212046FDF714FF22
:103DE000204600224B21FDF70FFF0020F2E773B5BC
:103DF0000423C4B20E461546D7210DEB030220461C
:103E0000FDF734FF019B1BBA1A0DC3F30B2332805D
:103E100020462B8001224B21FDF7F6FE00224B218C
:103E20002046FDF7F1FE02B070BD000010B50A4B50
:103E30001A78904204460DD0597888420AD00AB1C7
:103E400041B901229C54FDF7DDFE2046BDE810403B
:103E5000FFF78BBF10BD00BF5618002010B5C4B2CD
:103E600009212046FDF7E8FE40F00100C2B2092119
:103E70002046BDE81040FDF7C7BE10B5C4B2092109
:103E80002046FDF7D9FE092100F0FE022046BDE8DC
:103E90001040FDF7B9BE38B5C4B20D4620460A2120
:103EA000FDF7CAFE2843C2B20A212046BDE83840C9
:103EB000FDF7AABE07B50190FDF7A5FE01981F21E9
:103EC000FFF7E9FF019803B05DF804EBFFF7C6BF09
:103ED00038B5C4B20D4620460A21FDF7ADFE20EAF2
:103EE0000500C2B20A212046BDE83840FDF78CBE6D
:103EF00010B50446FFF7C1FF20461F21BDE8104062
:103F0000FFF7E6BF10B5C0B20C460B21FDF794FEDB
:103F1000204010BD1F21FFF7F5BF0A46C0B20B219C
:103F2000FDF772BE1F21FFF7F8BF38B5C4B20D46CA
:103F300020461721FDF780FE20EA0500C2B21721B6
:103F40002046BDE83840FDF75FBE70B5C4B20646F6
:103F500004212046FDF770FE042100F0FB02054617
:103F60002046FDF751FE3046F021FFF7DEFF05F059
:103F7000F80220460421FDF747FE49222021204671
:103F8000FDF742FE0220FDF787FE20460122212197
:103F9000FDF73AFE20469A224121FDF735FE2046E4
:103FA00001224A21FDF730FE204601224B21FDF778
:103FB0002BFE204600224B21FDF726FE2046012243
:103FC0005621FDF721FE204601225821FDF71CFE57
:103FD000204601224021FDF717FE2046FF220B213B
:103FE000FDF712FEBDE870400220FDF755BE00004F
:103FF000054BD3F8882042F47002C3F888204FF0B4
:1040000000629A60704700BF00ED00E008B50B4BFE
:104010001A6842F400721A601A6842F480621A60E8
:104020001A6842F480721A60032000F02FF8002012
:10403000FEF794FDFEF728FA002008BD003C024080
:10404000034A044B11681B780B441360704700BF90
:104050005818002080000020014B1868704700BFEE
:104060005818002038B50446FFF7F6FF631C1CBF44
:10407000054B1B78054618BFE418FFF7EDFF431BFF
:10408000A342FAD338BD00BF800000200749CA68A8
:1040900022F4E0620302120403F4E063120C1343FF
:1040A00043F0BF6343F40033CB60704700ED00E0A2
:1040B000164B30B5DC68C4F30224C4F10705231D98
:1040C000042D28BF0425062B4FF0FF338CBF033C83
:1040D000002403FA05F521EA0501A34022EA0302C0
:1040E000A140002841EA0203ACBF00F16040084A49
:1040F0004FEA0313B8BF00F00F00DBB2AABF00F510
:104100006140135480F8003330BD00BF00ED00E083
:1041100014ED00E0002808DB4209012300F01F0035
:1041200003FA00F0014B43F82200704700E100E081
:1041300010B5044650B1437903F0FF0213B9027180
:10414000FEF7C2F901236371002010BD0120FCE7D6
:1041500070B50446866DFFF77FFF94F83530022B6B
:10416000054606D080236365002384F8343001209F
:1041700070BD23681A6822F016021A605A6922F08C
:1041800080025A61226C0AB9A26C1AB11A6822F034
:1041900008021A601A6822F001021A6023681B687C
:1041A00013F001030AD1E16D3F228A40B26001227F
:1041B00084F8352084F834301846D9E7FFF74CFFEF
:1041C000401B0528EAD9202363650320002384F8D7
:1041D000350084F83430CBE790F83530022B03D02B
:1041E00080234365012070470268052380F835303D
:1041F000136823F0010313600020704710B50446D4
:1042000030B390F8393003F0FF021BB980F8382042
:10421000FEF772F922686168022384F83930136866
:1042200023F440330B431360536BA16823F007035F
:104230000B435363136CE16823F47F5323F03F0374
:104240000B43136400200123E06384F8393010BD70
:104250000120FCE770477047036870B55E681D6811
:10426000F207044614D5E90512D51A6822F48072C3
:104270001A60C26B42F00102C26301229A600423F9
:1042800080F83930002380F83830436903B198470B
:10429000B20616D5AB0414D523681A6822F400526E
:1042A0001A6020229A60E36B43F00203E363042365
:1042B00084F83930002384F8383063690BB1204624
:1042C0009847300716D5290514D523681A6822F4B3
:1042D00000621A6008229A60E36B43F00403E36310
:1042E000042384F83930002384F8383063690BB133
:1042F0002046984772070BD56B0509D523681A68C5
:1043000022F480621A6004229A602046FFF7A2FF1E
:10431000B00714D5A90512D523681A6822F40072D3
:104320001A6002229A60E36BE363012384F8393058
:10433000002384F8383023690BB120469847F206F1
:1043400013D5EB0411D523681A6822F480521A6041
:1043500010229A60E36BE363012384F83930002371
:1043600084F838302046FFF776FF70BDF0B590F83E
:104370003830012B4FF002032BD0012280F8393066
:1043800080F8382000EB0113D3E907425D6A184F2B
:1043900044EA0242093C012C9CBF05F07F431A43CA
:1043A0004FEA0116036888BF42EA056299B9596A63
:1043B00039400A435A62012C82699A6103D8426AE1
:1043C00022F07F429A62012380F83930002380F87E
:1043D00038301846F0BDD96939400A43DA6182198C
:1043E000012C92691A619CBF25F07F451D62EAE7A6
:1043F000F0FFFC002DE9F74FDFF8C0916D4A002374
:104400000D6801249C4004EA050CAC4340F0B980DF
:104410004D6805F003044FEA43080326671E06FAB9
:1044200008F6012F6FEA060634D8876807EA060EF9
:10443000CF6807FA08F747EA0E078760476827EA58
:104440000C0EC5F300179F4047EA0E074760C76888
:1044500007EA060E8F6807FA08F747EA0E07022CEC
:10446000C76019D14FEAD30A00EB8A0A03F0070BA1
:10447000DAF820704FEA8B0B4FF00F0E0EFA0BFE9E
:1044800027EA0E0E0F6907FA0BF747EA0E07CAF87C
:10449000207001E0032CDAD1076804FA08F43E40EA
:1044A000264315F4403F06606BD04FF0000ACDF86C
:1044B00004A0D9F84460404C46F48046C9F84460F2
:1044C000D9F8446006F480460196019E23F0030665
:1044D00006F1804606F59C3603F0030ED6F80880F8
:1044E0004FEA8E0E0F2707FA0EF7A04228EA0707B9
:1044F0004ED004F58064A0424CD004F58064A04204
:104500004AD004F58064A04248D004F58064A042FB
:1045100046D004F58064A04244D004F58064A042F3
:1045200042D004F58064A04240D004F58064A042EB
:104530003ED004F58064A0420CBF09240A2404FA8A
:104540000EF43C43B46014686FEA0C06EF0354BFEA
:1045500034404CEA040414605468AF0354BF344040
:104560004CEA040454609468EF0254BF34404CEAAF
:1045700004049460D468AD0254BF34404CEA04048F
:10458000D4600133102B7FF43BAF03B0BDE8F08F54
:104590005446D4E70124D2E70224D0E70324CEE72F
:1045A0000424CCE70524CAE70624C8E70724C6E7A5
:1045B0000824C4E7003C01400000024000380240EB
:1045C0000AB1816170470904FBE7436901EA03020C
:1045D00021EA030141EA02418161704701684B69A8
:1045E00013F480634FF0000210D06FF480634B61CE
:1045F0002023026380F83D3080F83E20036C80F871
:104600003C2043F0040303640120704718467047C0
:104610002DE9F84606460F4691461D464FEA114AD7
:104620003368BAF1010F0CBF5C699C6927EA040486
:10463000A4B2B4FA84F46409A14501D0002017E0C3
:104640006A1CEED0FFF708FD089BC01AA84201D8EB
:10465000002DE5D100232022336386F83D2086F823
:104660003E30326C86F83C3042F020023264012049
:10467000BDE8F8862DE9F04104460F4616469846F7
:104680002568686927EA000080B2B8B16B695A05ED
:1046900016D52B6843F400732B606FF480636B6155
:1046A00020220023236384F83D2084F83E30226CCE
:1046B00042F00402226484F83C300120BDE8F0811D
:1046C000731CDED0FFF7C8FCA0EB0800B04201D895
:1046D000002ED5D100232022236384F83D2084F8C6
:1046E0003E30226C42F02002E4E770B504460D46ED
:1046F000164621684B6913F0400301D0002010E0FA
:104700004A69D2060ED56FF010024A612022236357
:1047100084F83D2084F83E30226C226484F83C30DA
:10472000012070BDFFF798FC801BA84201D8002D26
:10473000DFD100232022236384F83D2084F83E301B
:10474000226C42F02002E8E770B504460D4616469A
:1047500023685B695B0701D5002070BD2046FFF729
:104760003DFFA8B96A1CF3D0FFF776FC801BA84276
:1047700001D8002DECD100232022236384F83D20B2
:1047800084F83E30226C84F83C3042F020022264EF
:104790000120E2E770B504460D46164623685B69C2
:1047A0001B0601D5002070BD2046FFF717FFA8B9F2
:1047B0006A1CF3D0FFF750FC801BA84201D8002DE3
:1047C000ECD100232022236384F83D2084F83E307E
:1047D000226C84F83C3042F0200222640120E2E79F
:1047E0002DE9F0431546026885B0DDE90C7899465D
:1047F000136843F4807313600E463B46CDF8008087
:1048000000224FF001110446FFF702FF236838B180
:104810001B68DB0502D54FF40073236403200AE014
:1048200006F0FE061E61194943463A462046FFF748
:1048300021FF18B1012005B0BDE8F0832368039083
:104840005A6903929B690393424639462046039B6B
:10485000FFF7A0FF40B1236C042B01BF226813684F
:1048600043F400731360E5E7B9F1010F236802D147
:10487000EDB21D61DFE72A0A1A6139464246204639
:10488000FFF788FF0028E6D12368F1E70200010066
:104890002DE9FF479A46036815461A6842F480627C
:1048A0001A601A68DDE90C7842F480721A600E46CC
:1048B0003B46CDF8008000224FF001110446FFF77F
:1048C000A7FE236848B11B68DB0502D54FF40073CF
:1048D0002364032004B0BDE8F0875FFA86F906F090
:1048E000FE061E612A4943463A462046FFF7C2FEAD
:1048F00008B10120EEE7236803905A6903929B698F
:104900000393424639462046039BFFF743FF40B1DD
:10491000236C042B01BF2268136843F400731360F7
:10492000E7E7BAF1010F23681AD1EDB21D614246E3
:1049300039462046FFF72EFF0028E9D12268136888
:1049400043F4807313604FF001110246CDF80080EC
:104950003B462046FFF75CFE226860B11368B3E770
:104960002A0A1A61394642462046FFF713FF0028FB
:10497000CED12368D9E749F00103136104494346C6
:104980003A462046FFF776FE003818BF0120A1E71F
:104990000200010070B5044608B9012070BD90F80E
:1049A0003D3003F0FF021BB980F83C20FDF7C6FD47
:1049B000242384F83D3023681A6822F001021A602B
:1049C0001A6842F400421A601A6822F400421A601F
:1049D00000F074FE3F4B65689D4294BF3E4B3F4BD9
:1049E00098428CBF00230123002BD6D12268394E78
:1049F00053683B49B0FBF1F123F03F030B43B54251
:104A0000536088BF4FF49676136A88BF714323F0D2
:104A10003F0384BF4FF47A76B1FBF6F101311943BD
:104A20001162D169431E2B4821F44F41854221F088
:104A3000FF0132D86D0040F6FC70B3FBF5F3013393
:104A4000034242D0C3F30B030B43D361D4E90730D5
:104A50001168034321F0C0010B4313609168D4E94E
:104A6000030321F40341034321F0FF010B4393604F
:104A7000D4E90530D168034321F0FF010B43D36033
:104A8000136843F00103136000202023206484F89E
:104A90003D30206384F83E0080E7A06850B905EB04
:104AA0004505B3FBF5F30133C3F30B037BB143F4CB
:104AB0000043C9E719204543B3FBF5F30133C3F3C2
:104AC0000B0323B143F44043BEE70423BCE70123B7
:104AD000BAE700BFA08601007F841E00FF083D00EA
:104AE00040420F002DE9F743044699460C9E0F46BD
:104AF0009046FFF7B1FA94F83D30202B054603D0DD
:104B0000022003B0BDE8F08300903C491923012244
:104B10002046FFF77DFD0028F2D194F83C30012BB0
:104B2000EED02068012384F83C300368D9075EBFCB
:104B3000036843F001030360036823F40063036028
:104B4000212384F83D30402384F83E300023236441
:104B50000A9B6362BDF82C306385638D2385284BE7
:104B6000E362CDE900654B46424639462046FFF7F1
:104B700037FE00282AD00120C3E7FFF70BFE40B123
:104B8000236C042B01BF2268136843F40073136085
:104B9000F1E7636A27681A4612F8011B39616262FD
:104BA000628D218D013A92B262857A69481E80B287
:104BB000520720850AD548B15A783A6102336362B8
:104BC000638D013B02399BB221856385238D2A4683
:104BD00031462046002BD0D1FFF7B6FD0028CFD1BB
:104BE0002268136843F400731360202384F83D3077
:104BF00084F83C0084F83E0083E700BF0200100008
:104C00000000FFFF2DE9F043044687B09946109F4E
:104C10000D469046FFF720FA94F83D30202B0646CB
:104C200004D00225284607B0BDE8F08300907649FD
:104C3000192301222046FFF7EBFC0028F1D194F85C
:104C40003C30012BEDD02068012384F83C30036810
:104C5000DB075EBF036843F001030360036823F4CE
:104C600000630360222384F83D30402384F83E3003
:104C7000002323640E9B6362BDF83C306385638D23
:104C80002385624BE3622946CDE900764B464246D6
:104C90002046FFF7FDFD054608B10125C2E7228D3C
:104CA0002368B2B902905A6902929A690292029AF2
:104CB0001A6842F400721A60DFF85481238D002BC9
:104CC0002CD1202284F83D2084F83C3084F83E30FA
:104CD000A8E7012A0AD11A6822F480621A600390B8
:104CE0005A6903929A690392039AE1E7022A0ED164
:104CF0001A6822F480621A601A6842F400621A602C
:104D000004905A6904929B690493049BD4E705902C
:104D10005A6905929B690593059BCDE7032B56D8ED
:104D2000012B15D1324639462046FFF7DEFC00281C
:104D3000B3D123681A69636A1A70636A01336362C4
:104D4000238D013B2385638D013B9BB26385B5E7D2
:104D5000022B00963B464FF000024146204619D1F7
:104D6000FFF756FC002898D123681A6842F40072B5
:104D70001A601A69636A1A70626A531C6362238D2F
:104D8000013B2385638D013B9BB2638523681B69CF
:104D90005370D2E7FFF73CFC00287FF47EAF236816
:104DA0001A6822F480621A601A69636A1A70636A68
:104DB000009601336362238D013B2385638D013BA4
:104DC0009BB2638502463B4641462046C8E73246D1
:104DD00039462046FFF789FC00287FF45EAF236840
:104DE0001A69636A1A70626A531C6362238D013BFD
:104DF0002385638D013B9BB263852368596949070D
:104E00007FF55CAFC3E700BF020010000000FFFFAA
:104E10000400010010B590F83D30202BDCB216D113
:104E2000242380F83D3003681A6822F001021A60DA
:104E30005A6A22F010025A625A6A114359621A6879
:104E400042F001021A6080F83D40002010BD0220AF
:104E5000FCE730B590F83D30202BDCB216D102686B
:104E6000242380F83D30136823F001031360556A52
:104E70004FF6F0732B400B439BB25362136843F021
:104E80000103136080F83D40002030BD0220FCE7A4
:104E90000068D1F800C0D201843283182DE9F043B4
:104EA000C6685D684C68D1F8189005F470455D607F
:104EB000C5680CF10107C5F30B45C6F30B463D442D
:104EC000264445EA06455D60C568CE68C5F30A0517
:104ED0002E449D6805F470459D60C7688D68C7F3D2
:104EE0000A0701353D4445EA06459D601D690E6986
:104EF00025F007051D614FF0000E1E619D6991F8B8
:104F0000327091F83180C3F818E091F8305045EADA
:104F1000096545EA082545EA07459D615D6925F073
:104F2000FF055D614D695D61DD6925F4E06525F092
:104F30000705DD61D1E907573D43DD619D6A4D6A93
:104F4000C3F828E09D621EB3012E23D0B51E022DAA
:104F500022D9072E0CBF02250125DE6A06F0E026C5
:104F6000DE62A4EB0C048E6AC96A6C436E430334A0
:104F700044EA0644DC621C6B24F4FF6424F007045A
:104F80001C631963835843F001038350BDE8F08329
:104F90000425E2E70325E0E70225DEE738B504460D
:104FA000002863D090F8A13003F0FF021BB980F80D
:104FB000A020FDF71FFB022384F8A13023689A6923
:104FC00022F070429A61D4E901200243E0689969B5
:104FD0000243206902430A439A619A68244960693E
:104FE0000A409A609A6842EA0042A06902439A60C5
:104FF000DA68E0690A40DA60DA6842EA0042206A68
:105000000243DA601A69606A0A401A611A6942EA60
:105010000042A06A02431A615A69114059615A69F3
:10502000E16A42EA0142216B0A435A61D96A94F863
:10503000360094F8355001F07F41D962D96A94F86E
:1050400034200A4342EA052242EA0042DA625A6BFD
:1050500042F006025A639A6942F001029A61002006
:105060000123C4F8A40084F8A13038BD0120FCE776
:1050700000F800F070477047036870B59E6B5D6B79
:105080007207044614D5690712D55A6B22F0040240
:105090005A630422DA63D0F8A43043F00103C0F865
:1050A000A430002380F8A12080F8A030FFF7E2FFB1
:1050B000B20716D5AB0714D523685A6B22F002024B
:1050C0005A630222DA63D4F8A4301343C4F8A4303C
:1050D000042384F8A130002384F8A0302046FFF791
:1050E000C9FFF00710D5E9070ED523685A6B22F0E7
:1050F00001025A630122DA63002384F8A12084F8B4
:10510000A0302046FCF726FD320711D52B070FD51E
:1051100023685A6B22F008025A630822DA630123DB
:1051200084F8A130002384F8A0302046FFF7A3FFC5
:1051300070BD2DE9F04190F8A030012B06460F46D6
:1051400094464FF002001FD04FF0010886F8A0806F
:1051500086F8A10034240D4604FB02640FCD3834D8
:105160000FC40FCD0FC40FCD0FC42B682360304682
:1051700062463946FFF78CFE33680020C3F824806E
:1051800086F8A18086F8A000BDE8F08190F8A030F4
:10519000012B4FF0020312D080F8A13003685A6B44
:1051A00022F001025A63074A11645A6B42F001026D
:1051B0005A63012380F8A130002380F8A0301846FC
:1051C000704700BF006801402DE9F341044640B339
:1051D0000368DD0710D4236898075ED423681A0794
:1051E00000F1A08023685B0700F1C080A06900285F
:1051F00040F0288100202BE08F4B9A6802F00C02CF
:10520000042A07D09A6802F00C02082A0BD15A68C7
:10521000510208D5884B1B689A03DCD56368002BC4
:10522000D9D1012014E06268B2F5803F13D11A6829
:1052300042F480321A60FEF70FFF7F4E0546336856
:105240009B03C8D4FEF708FF401B6428F7D903204E
:1052500002B0BDE8F081784DB2F5A02F2B6807D1E0
:1052600043F480232B602B6843F480332B60E2E708
:1052700023F480332B602B6823F480232B60002AD7
:10528000D9D1FEF7E9FE06462B689F03A3D5FEF7AA
:10529000E3FE801B6428F7D9D9E7674B9A6812F0C0
:1052A0000C0F07D09A6802F00C02082A11D15B6833
:1052B0005E020ED4604A13689D0702D5E368012B95
:1052C000AFD11368216923F0F80343EAC1031360E7
:1052D00084E7E268594BB2B101221A60FEF7BCFEC6
:1052E000554D06462B68980707D52B68226923F091
:1052F000F80343EAC2032B6070E7FEF7ADFE801BA4
:105300000228EFD9A3E71A60FEF7A6FE4A4E05462B
:10531000336899077FF562AFFEF79EFE401B0228B7
:10532000F6D994E76269454B82B10122C3F8802E19
:10533000FEF792FE404E0546736F9F073FF552AF52
:10534000FEF78AFE401B0228F6D980E7C3F8802EBC
:10535000FEF782FE384E0546736F98077FF542AF21
:10536000FEF77AFE401B0228F6D970E7324B1A6C22
:1053700012F0805228D101921A6C42F080521A64C5
:105380001B6C03F080530193019B01272C4D2B686C
:10539000D9051BD5A368284D012B27D12B6F43F0CE
:1053A00001032B67FEF758FE234E054641F288386D
:1053B000336F9B0739D5002F3FF418AF1E4A136C8B
:1053C00023F08053136411E70027DFE72B6843F4D1
:1053D00080732B60FEF740FE06462B68DA05D9D4B1
:1053E000FEF73AFE801B0228F7D930E7052B04D1DF
:1053F0002B6F43F004032B67D0E72A6F22F00102E2
:105400002A672A6F22F004022A67002BCAD1FEF70E
:1054100023FE41F2883806462B6F9807CBD5FEF75E
:105420001BFE801B4045F7D911E7FEF715FE401B18
:105430004045BDD90BE700BF00380240000047429D
:1054400000700040364DAB6803F00C03082B3DD0D4
:10545000344B002202281A662BD1FEF7FDFD0646CA
:105460002B6899011FD4D4E907321343626A43EAD7
:105470008213E26A43EA0263A26A5208013A43EAEB
:1054800002436B60274B264D01221A66FEF7E4FDAE
:1054900004462B689A013FF5ADAEFEF7DDFD001B1B
:1054A0000228F6D9D3E6FEF7D7FD801B0228D7D90C
:1054B000CDE6FEF7D1FD04462B689B017FF59AAE41
:1054C000FEF7CAFD001B0228F6D9C0E601283FF40A
:1054D000BFAE6B68E26903F4800191427FF4A1AE34
:1054E000216A03F03F028A427FF49BAE616A47F66D
:1054F000C0721A40B2EB811F7FF493AEA26A5208C9
:1055000003F44031013AB1EB024F7FF48AAEE26A14
:1055100003F07063B3EB026F3FF46CAE81E600BF43
:105520000038024000004742134908B58B6803F079
:105530000C03042B1CD0082B1CD14A684B6849680B
:1055400013F4800314BF0D480D48C1F3881118BF30
:10555000002302F03F02A1FB0001FBF7A5FB064B75
:105560005B68C3F3014301335B00B0FBF3F008BD9C
:105570000248FCE70248FAE70038024000127A00CD
:105580000024F4002DE9F0410D46044610B9012035
:10559000BDE8F081444B1A6802F00F028A4228D31A
:1055A000226897072DD4D00741D43F4B1A6802F0E8
:1055B0000F02AA4266D8226851076CD4130707D598
:1055C0003A4A2169936823F4604343EAC103936034
:1055D000FFF7AAFF354B364A9B68C3F30313D35C2E
:1055E000D840344B1860344B1868FDF7B7FA0020E8
:1055F000CEE7CAB21A701B6803F00F038B42C6D104
:10560000CEE72A4B12F0040F1EBF996841F4E05117
:105610009960160742BF996841F460419960234937
:10562000A0688B6823F0F00303438B60BBE76268DC
:105630001E4B012A1CD11B6813F4003FA7D01B4E40
:10564000B36823F003031343B360FEF705FD41F293
:1056500088380746B368626803F00C03B3EB820F27
:10566000A3D0FEF7F9FCC01B4045F3D903208FE718
:10567000911E01291B6802D813F0007FDEE713F0AA
:10568000020FDBE7EAB21A701B6803F00F03AB42AC
:105690007FF47DAF8FE70549E0688B6823F4E05322
:1056A00003438B608AE700BF003C024000380240A1
:1056B000C42D02087C00002084000020044B054A11
:1056C0009B68C3F38223D35C034A1068D8407047B9
:1056D00000380240D42D02087C000020044B054A0B
:1056E0009B68C3F34233D35C034A1068D8407047C9
:1056F00000380240D42D02087C0000200F230360F4
:105700000B4B9A6802F0030242609A6802F0F002C2
:1057100082609A6802F4E052C2609B68DB0803F47E
:10572000E0530361034B1B6803F00F030B607047EA
:1057300000380240003C0240036813F0430FF7B505
:10574000044640F08C80236813F00C0F45D08B4B3F
:105750008B4D00221A67FEF77FFC06462B689F00E0
:1057600000F1CF8021684E0715D5D4E90403D5F8A0
:1057700088201B0602F0E04243EA80131343C5F879
:105780008830D5F88C30226A23F4F853013A43EA82
:105790000223C5F88C300D0714D5794AA369D2F8D5
:1057A000881020691B0701F0706143EA80130B43E6
:1057B000C2F88830D2F88C30616A23F440330B434E
:1057C000C2F88C306D4B6E4E01221A67FEF744FC16
:1057D00005463368980040F19B8023689B0633D5CB
:1057E00000230193664B674D1A6C42F080521A6495
:1057F0001B6C03F080530193019B2B6843F480736F
:105800002B60FEF729FC06462B68D90540F18780FE
:105810005B4D2B6F13F4407340F08880A36A03F450
:105820004072B2F5407F564A40F0A480916823F060
:10583000704021F4F81120F4407001439160116F21
:10584000C3F30B030B431367206810F010001FBF56
:105850004D4B94F82C20C3F8E02100204FE0474B3B
:10586000474E00229A66FEF7F7FB054633681F0194
:105870003FD42168CD0741BFD4E901231B0743EA88
:105880008213C6F88430880715D53D4AE368D2F8FC
:10589000840065681B0600F0E04043EA851303437B
:1058A000C2F88430D2F88C00E36920F01F00013B7D
:1058B0000343C2F88C3049060AD5E36862681B06C8
:1058C00043EA8213A26843EA02732D4AC2F8843085
:1058D0002A4B2B4E01229A66FEF7BEFB0546336823
:1058E0001A013FF530AFFEF7B7FB401B0228F6D98F
:1058F00004E0FEF7B1FB401B0228B7D9032003B038
:10590000F0BDFEF7A9FB801B02287FF627AFF5E765
:10591000FEF7A2FB401B02287FF65BAFEEE7FEF727
:105920009BFB801B02287FF66FAFE7E7A26A02F4B9
:10593000407293423FF472AF2B6F104A0121C2F8BC
:10594000401E23F440730021C2F8401E2B672B6FCA
:10595000DA077FF563AFFEF77FFB41F28837064633
:105960002B6F9B073FF55AAFFEF776FB801BB842C3
:10597000F6D9C3E7916821F4F8115FE700004742C8
:1059800000380240007000400010474203689A68E7
:10599000D20410B504460AD5DB68D90507D501F055
:1059A0001BFF2268D368DBB263F4C073D360236843
:1059B0009A6892040BD5DB689B0508D5204600F059
:1059C00066FA2268D368DBB263F42073D360034BBA
:1059D0004FF400325A610123637710BD003C01404F
:1059E000026838B5D36823F0A003D3600446FEF7FD
:1059F00033FB05462368DB689B0601D5002038BDD4
:105A0000FEF72AFB401BB0F57A7FF3D90320F6E7B7
:105A100038B50368DA685206044601D5002038BD5F
:105A20004FF0FF32DA60FEF717FB05462368DB68AC
:105A30005B06F3D4FEF710FB401BB0F57A7FF5D977
:105A40000320ECE738B50446B8B1437F03F0FF020A
:105A500013B90277FCF7AAFE022363772368CA22F0
:105A60005A6253225A622046FFF7D2FF2368054646
:105A700028B1FF225A620423637701252EE09A6839
:105A8000206922F4E00222F040029A60626899687C
:105A90000243606902430A439A60E2681A611A6924
:105AA000A16842EA01421A61DA6822F08002DA60F3
:105AB0009B689B0605D42046FFF792FF08B1236838
:105AC000D7E72368A1691A6C22F480221A641A6C41
:105AD0000A431A64FF225A6201236377284638BDBD
:105AE0000023092803D840EA0310C0B270470A38DF
:105AF0000133C0B2F5E72DE9F041037F012B0546E4
:105B00000E464FF002072ED0012303774777016836
:105B100074783078B7784ABB8A6812F0400208BFC0
:105B2000F270FFF7DDFF80462046FFF7D9FF0446FD
:105B30003846FFF7D5FFF37840EA034242EA0843CC
:105B400043EA0424CA234B6253234B622846FFF7DF
:105B50005FFF2A680746B0B1FF23536204236B77C7
:105B600000232B7701273846BDE8F0818A6812F0C0
:105B7000400208BFF2702402F37844EA00443C4338
:105B800044EA0344DEE704F07F3424F0FE4414606A
:105B9000936823F480239360D6E90330916803432C
:105BA0000B439360D36823F08003D36093689B0614
:105BB0000AD42846FFF714FF30B12B68FF225A623F
:105BC00004236B772F77CDE72B68FF225A620123DE
:105BD0006B7700232B77C6E7F8B5037F012B0446CC
:105BE0004FF0020631D00123037746770D78C8784D
:105BF0004B788F786D03002A48D1DA0603D523F05D
:105C000010030A334B70FFF76BFF06464878FFF727
:105C100067FF01463846FFF763FF40EA050242EAA4
:105C2000064343EA01252368CA225A6253225A6274
:105C30002046FFF7EDFE2268064640B1FF2353627F
:105C4000042363770023237701263046F8BD25F02F
:105C50007F4525F0C0055560D36823F08003D360ED
:105C600093689B060AD42046FFF7BAFE30B123683A
:105C7000FF225A62042363772677E5E72368FF2231
:105C80005A620123637700232377DEE745EA004564
:105C90003D4345EA0325C6E72DE9F34D544B06463F
:105CA0001B684FF4FA40B3FBF0F34FF47A704343B0
:105CB0000193337F012B4FF002034AD0012030774C
:105CC0007377346808784F7891F802B091F82080A3
:105CD000CD69002A41D1A26812F0400208BFCA7003
:105CE000FFF7FEFE82463846FFF7FAFE02465846A8
:105CF000FFF7F6FE07464046FFF7F2FE4B6945EA1E
:105D0000030CCD784CEA054C4CEA070747EA0A45F4
:105D100045EA022242EA00638A6948681043CA22BF
:105D20006262532262624A6AB2F5807FA26844D1FD
:105D300022F48072A260E268D2B262F4C072E260C1
:105D4000019A511E0191DAB9FF236362032373772D
:105D50003277184602B0BDE8F08DA26812F040021A
:105D600008BFCA704A69154345EA0B0545EA004376
:105D7000C87843EA072343EA004343EA0863CBE7D2
:105D8000E268D107DCD5E3616064A36843F4807303
:105D9000A360A36843F48053A360164B1A6842F4CF
:105DA00000321A609A6842F400329A60FF236362FC
:105DB0000123737700233377CBE722F40072A260CC
:105DC000E268D2B262F42072E260019A511E01913F
:105DD000002AB9D0E2689207F7D52362A064A368CD
:105DE00043F40073A360A36843F40053D4E700BFF7
:105DF0007C000020003C0140030903EB830300F01A
:105E00000F0000EB4300C0B270470368986A486017
:105E100070B518691C68C0F30E00C4F30645C4F3DE
:105E20000626886005F04003C4F3054004F07F04B3
:105E300008704E708C70CB7052B9FFF7DDFF0870A0
:105E40003046FFF7D9FF48702046FFF7D5FF88702E
:105E5000002070BD38B503685B68C3F30740C3F327
:105E6000042503F03F04C3F34233C8704D708C70B7
:105E70000B7052B9FFF7C0FFC8702846FFF7BCFF90
:105E800048702046FFF7B8FF8870002038BD704783
:105E900038B50D460446C8B190F82C3003F0FF0227
:105EA0001BB980F82D20FCF7EDFD022384F82C307F
:105EB000211D206801F0C8FA62682068294601F0B7
:105EC000F9FA012384F82C30002038BD0120FCE7CA
:105ED00038B590F82C30022B04460D46D8B20DD0C0
:105EE000022384F82C30206801F020FB2B68022B61
:105EF0000CBF0523012384F82C30002038BD10B5D9
:105F000090F82C30022B0446D8B209D0022384F832
:105F10002C30206801F031FB012384F82C30002064
:105F200010BD00002DE9F3411D4617468846064680
:105F3000FEF792F83D442C1AFEF78EF8224B1B68B0
:105F4000C3F3CB330546634332680193936838EA61
:105F5000030301D000202DE07B1CF7D0FEF77CF876
:105F6000401BA04229D333685A6822F0E0025A60ED
:105F70007268B2F5827F0AD1B268B2F5004F02D0E2
:105F8000B2F5806F03D11A6822F040021A60B26A3B
:105F9000B2F5005F07D11A6822F400521A601A683D
:105FA00042F400521A60012386F85130002386F82B
:105FB0005030032002B0BDE8F081019B002B019B13
:105FC00008BF0024013BBFE77C00002038B5134622
:105FD0004268B2F5827F04461FD18268B2F5004F55
:105FE00002D0B2F5806F07D125682868B2F5806FBE
:105FF00020F04000286007D00A4680212046FFF7A5
:1060000091FF20B9002038BD0A460121F6E7636DF3
:1060100043F0200363650320F5E70A460121EEE71C
:1060200037B51346124A1568124AB5FBF2F54FF41C
:106030007A72554342680195B2F5827F04460BD1CE
:106040000A468021FFF76EFF78B1636D43F02003AD
:106050006365032003B030BD019B33B1019B013B5D
:10606000019323689B681B06F6D40020F2E700BF6B
:106070007C00002000366E0110B50446002855D083
:10608000436A002B4ED14268B2F5827F00D0C361D3
:106090000023A36294F8513003F0FF0223B984F87F
:1060A00050202046FCF7ACFB2168A068A2690223BF
:1060B00084F851300B6823F040030B60636800F4F0
:1060C000044003F482730343E06800F40060034378
:1060D000206900F002000343606900F001000343FF
:1060E00002F400700343E06900F038000343206AC3
:1060F00000F080000343A06A00F4005003430B60EB
:10610000636A120C03F0100302F004021A434A609F
:10611000CB6923F40063CB6100200123606584F820
:10612000513010BD0023C0E90433B1E70120F8E786
:106130002DE9F3411E4690F85030012B04460D46E0
:10614000174600F0A180012380F85030FDF784FF4E
:1061500094F85130012B8046D8B240F09380002D46
:106160005ED0002F5CD0A2682563032384F85130F1
:10617000B2F5004F4FF000036365C4E91033E786C2
:10618000A363A387E387A786236807D11A6822F051
:1061900040021A601A6842F480421A601A68E16884
:1061A00052065EBF1A6842F040021A60B1F5006FF5
:1061B000626841D10AB1012F07D135F8022BDA60AC
:1061C0002563E38E013B9BB2E386E38E9BB2A3B9CA
:1061D000424631462046FFF723FF00284FD1A368EF
:1061E00033B901932368DA6801929B680193019B9C
:1061F000606D003818BF012012E02268936898078C
:1062000005D5236B33F8021BD1602363D9E7FDF773
:1062100023FFA0EB0800B0420BD3711CD5D00320A4
:10622000012384F85130002384F8503002B0BDE8D7
:10623000F081002EC9D1F2E70AB1012F08D12A78E6
:106240001A73236B01332363E38E013B9BB2E38616
:10625000E38E9BB2002BBBD023689A68920702D5CD
:10626000226B1278ECE7FDF7F7FEA0EB0800B042D6
:1062700002D3731CECD0D2E7002EE9D1CFE7202364
:106280006365ACE70220CBE70220CFE72DE9F743B7
:106290001E4690F850300A9F012B04460D46914649
:1062A00000F0E680012380F85030FDF7D5FE94F829
:1062B00051306268012B8046D9B20AD0B2F5827F94
:1062C00040F0D480A368002B40F0D080042940F037
:1062D000CD80002D40D0B9F1000F3DD0002E3BD035
:1062E00094F85130C4F83890042B1CBF052384F86F
:1062F000513000236365C4E910332368E687E686DE
:106300001968A687490658BF1968256358BF41F028
:106310004001A68658BF1960E168B1F5006F52D1FF
:106320000AB1012E07D135F8022BDA60E38E25631E
:10633000013B9BB2E3860125E38E9BB273B9E38FE9
:106340009BB25BB9424639462046FFF769FE0028FA
:1063500000F081802023636501202BE021688B6899
:106360009E070DD5E38E9BB253B14DB1236B33F82D
:10637000022BCA602363E38E013B9BB2E3860025B8
:106380008A6812F001020CD0E38F9BB24BB1A36B71
:10639000C96823F8021BA363E38F013B9BB2E38729
:1063A0001546FDF759FEA0EB0800B842C4D3781C8F
:1063B000C2D00320012384F85130002384F85030E8
:1063C00003B0BDE8F0830AB1012E08D12A781A7310
:1063D000236B01332363E38E013B9BB2E3860125EC
:1063E0002DE02268936899070ED5E38E9BB25BB1CE
:1063F00055B1236B1B781373236B01332363E38E37
:10640000013B9BB2E38600252268916811F00101EF
:106410000DD0E38F9BB253B1A36BD2681A70A36BFC
:106420000133A363E38F013B9BB2E3870D46FDF786
:1064300013FEA0EB0800B8420AD37B1CB9D1E38E4F
:106440009BB2002BCDD1E38F9BB2002BC9D179E752
:10645000002FF4D1ADE7A368002BABD123680190E6
:10646000DA6801929B680193019BA3E70220A1E7F0
:106470000220A5E72DE9F7431D464368B3F5827F67
:106480000446894617460CD1836853B9042380F823
:106490005130134600950A46FFF7F8FE03B0BDE8F9
:1064A000F08394F85030012B00F08680012384F8AB
:1064B0005030FDF7D1FD94F85130012B8046D8B211
:1064C00078D1B9F1000F5CD0002F5AD0A268C4F87F
:1064D000389000260423B2F5004F84F85130C4E907
:1064E000106666652368E787A7872663A686E68623
:1064F00007D11A6822F040021A601A6822F480421A
:106500001A601A6856065EBF1A6842F040021A60A6
:10651000E368F3B1E38F9BB2FBB123689A68D207BB
:1065200039D5DA68A36B23F8022BA363E38F013B11
:106530009BB2E387EEE723689A68D00718D5A26B71
:106540001B7B1370A36B0133A363E38F013B9BB2EF
:10655000E387E38F9BB2002BEDD1424629462046CC
:10656000FFF734FD18BB606D003818BF012008E04C
:10657000FDF772FDA0EB0800A84209D3691CE8D022
:106580000320012384F85130002384F8503085E73C
:10659000002DDED1F4E7FDF75FFDA0EB0800A84277
:1065A00002D36B1CB6D0EBE7002DB3D1E8E7202374
:1065B0006365D8E70220E4E702206FE7036A23F06F
:1065C00001030362036A70B5446882690D6822F0B2
:1065D00073022A438D6823F002032B430E4DA84219
:1065E00002D00E4EB04210D1CE6823F008033343E0
:1065F000A84223F0040302D0084DA84205D1D1E9F6
:10660000055624F4407435432C43446082614A6843
:106610004263036270BD00BF0000014000040140FE
:10662000036A23F480730362036A70B54468C26925
:106630000D6822F073022A438D6823F4007343EA45
:106640000523114DA84203D005F58065A84214D159
:10665000CD6823F4006343EA05230B4DA84223F4DD
:10666000806303D005F58065A84206D1D1E90556BF
:1066700024F44054354344EA05144460C2614A6836
:10668000C263036270BD00BF00000140036A23F4CF
:1066900080530362036A30B54468C2690D6822F40E
:1066A000E64242EA05228D6823F4005343EA0533AB
:1066B000084DA84203D005F58065A84204D14D6974
:1066C00024F4804444EA85144460C2614A68026448
:1066D000036230BD0000014090F83D30012B30D105
:1066E000022380F83D300368DA6842F00102DA6084
:1066F000154A93421AD0B3F1804F17D0A2F57C42CD
:10670000934213D002F5806293420FD002F580626B
:1067100093420BD002F57842934207D002F57052B3
:10672000934203D0A2F59432934204D19A6802F0C6
:106730000702062A03D01A6842F001021A600020FC
:1067400070470120704700BF00000140704770474C
:1067500070477047704703681A69910710B504467F
:106760000ED5DA6892070BD56FF002021A6101228A
:1067700002779B699B0777D0FFF7EAFF0023237717
:1067800023681A69500710D5DA6851070DD56FF0E4
:1067900004021A61022222779B6913F4407F20468B
:1067A00068D0FFF7D5FF0023237723681A69120703
:1067B0000FD5DA6810070CD56FF008021A610422B1
:1067C0002277DB69990720465AD0FFF7C1FF0023E3
:1067D000237723681A69D20610D5DA68D0060DD55A
:1067E0006FF010021A6108222277DB6913F4407FF0
:1067F00020464BD0FFF7ACFF0023237723681A69AC
:10680000D10708D5DA68D20705D56FF001021A6101
:106810002046FBF7BFFA23681A69100608D5DA6824
:10682000110605D56FF080021A61204600F0E3FAE8
:1068300023681A69520608D5DA68500605D56FF044
:1068400040021A612046FFF785FF23681A69910606
:1068500022D5DA6892061FD56FF0200220461A6111
:10686000BDE8104000F0C6BAFFF771FF2046FFF701
:1068700070FF83E7FFF76BFF2046FFF76AFF92E7A1
:10688000FFF765FF2046FFF764FFA0E7FFF75FFF14
:106890002046FFF75EFFAFE710BD0000304A0368F7
:1068A000904212D0B0F1804F0FD0A2F57C429042BE
:1068B0000BD002F58062904207D002F580629042D0
:1068C00003D002F57842904219D14A6823F0700350
:1068D0001343234A904229D0B0F1804F26D0A2F52D
:1068E0007C42904222D002F5806290421ED002F596
:1068F000806290421AD002F57842904216D0194A2E
:10690000904213D002F5806290420FD002F580626F
:1069100090420BD0A2F59832904207D002F58062E7
:10692000904203D002F58062904203D1CA6823F4FA
:10693000407313434A6923F08003134303608B6859
:10694000C3620B688362064B984203D003F58063F1
:10695000984201D10B69036301234361704700BF73
:10696000000001400040014010B5044630B390F8EB
:106970003D3003F0FF021BB980F83C20FBF7A0FF7D
:106980000223206884F83D30211DFFF787FF012393
:1069900084F84630002084F83E3084F83F3084F894
:1069A000403084F8413084F8423084F8433084F831
:1069B000443084F8453084F83D3010BD0120FCE7B8
:1069C00010B5044630B390F83D3003F0FF021BB918
:1069D00080F83C20FFF7BAFE0223206884F83D309F
:1069E000211DFFF75BFF012384F84630002084F867
:1069F0003E3084F83F3084F8403084F8413084F8E9
:106A0000423084F8433084F8443084F8453084F8C8
:106A10003D3010BD0120FCE7036A23F01003036240
:106A2000036A70B5446882690D6822F4E64242EA5E
:106A300005228D6823F0200343EA0513104DA84278
:106A400003D005F58065A84214D1CD6823F08003FA
:106A500043EA05130A4DA84223F0400303D005F58D
:106A60008065A84206D1D1E9055624F44064354337
:106A700044EA8504446082614A688263036270BDAF
:106A80000000014070B590F83C30012B054653D012
:106A90000120082A85F83C003DD006D8C2B1042A5E
:106AA00028D0002385F83C3070BD0C2AF9D1286825
:106AB000FFF7ECFD2B680969DA6942F40062DA61DC
:106AC000DA6922F48062DA61DA6942EA012231E0AD
:106AD0002868FFF773FD2B6809699A6942F008027C
:106AE0009A619A6922F004029A619A690A439A614A
:106AF0000020D6E72868FFF78FFF2B6809699A699D
:106B000042F400629A619A6922F480629A619A69F9
:106B100042EA0122EBE72868FFF782FD2B6809694A
:106B2000DA6942F00802DA61DA6922F00402DA6115
:106B3000DA690A43DA61DBE70220B5E710B5846859
:106B4000114324F47F4441EA03232343836010BDAF
:106B500070B590F83C30012B04464FF0020300F072
:106B60009180012280F83D3080F83C2000688368E5
:106B700023F47F4323F0770383600B68602B52D0AC
:106B800033D8402B67D016D8202B0DD00AD833F03D
:106B9000100109D0012384F83D30002384F83C30F3
:106BA000104670BD302BF5D1826822F0700213437D
:106BB00043F0070317E0502BECD14A68CE68016A16
:106BC000056A25F001050562836921F00A0123F0B9
:106BD000F00343EA06130A4383610262836823F0E9
:106BE000700343F05703836011E0B3F5805F0ED06C
:106BF000B3F5005F0DD0702BCCD1CB68D1E901216A
:106C0000FFF79CFF2268936843F0770393600022AC
:106C1000C0E7CB68D1E90121FFF790FF22689368B4
:106C200043F48043F2E74D68CE68016A21F0100119
:106C300001628269036A22F4704223F0A00343EAEE
:106C4000051342EA063282610362836823F070030F
:106C500043F06703C7E74A68CE68016A056A25F012
:106C600001050562836921F00A0123F0F00343EA7C
:106C700006130A4383610262836823F0700343F0C2
:106C80004703B0E71A468BE7036A01F01F0110B50E
:106C900001248C4023EA04030362036A8A401A43F6
:106CA000026210BD10B5044629B990F83E30012BA0
:106CB00018D001202DE004290DD190F83F30013B80
:106CC00018BF0123002BF4D104294FF0020321D176
:106CD00084F83F3009E008290CBF90F8403090F864
:106CE0004130ECE7022380F83E3020680122FFF7B4
:106CF000CBFF23681C498B4213D01C4A934210D00F
:106D0000B3F1804F14D19A6802F00702062A26D107
:106D1000002010BD08290CBF84F8403084F84130B1
:106D2000E3E75A6C8B4242F400425A64EBD0E7E747
:106D30000F4A9342E7D002F580629342E3D002F516
:106D400080629342DFD002F578429342DBD002F5B5
:106D500070529342D7D0A2F594329342D3D01A689E
:106D600042F001021A60D3E7000001400004014034
:106D700000040040FFF796BF30B590F83C30012B7F
:106D80004FF0020332D080F83D3003680D685C6834
:106D90009A6824F070042C435C60154CA3421AD00E
:106DA000B3F1804F17D0A4F57C44A34213D004F56F
:106DB0008064A3420FD004F58064A3420BD004F595
:106DC0007844A34207D004F57054A34203D0A4F53D
:106DD0009434A34204D1496822F080020A439A60A5
:106DE000012380F83D30002380F83C30184630BD48
:106DF0000000014070477047026802F10C0353E83D
:106E0000003F23F490730C3242E8003102680029FD
:106E1000F2D102F1140353E8003F23F0010302F121
:106E2000140C4CE800310029F3D1036B012B0BD17A
:106E300002F10C0353E8003F23F0100302F10C0CA5
:106E40004CE800310029F3D1202380F83E300023A4
:106E5000036370470268C168136923F440530B430E
:106E600070B51361054683680069D168034368699A
:106E70000343E86921F4164121F00C0103430B435D
:106E8000D3605369A96923F440730B4353611F4BCB
:106E90009A4203D003F580639A4223D1FEF71EFC89
:106EA000EB691921B3F5004FD5E90046A0FB0101BC
:106EB0001BD1B2194FF000035B41F9F7F5FE6421D5
:106EC000B0FBF1F501FB1503DB003233B3FBF1F34B
:106ED00003F007025B0002EB051203F4F87313449E
:106EE000A36070BDFEF7EAFBDAE7B200B30FF9F773
:106EF000DBFE6422B0FBF2F102FB11031B01323313
:106F0000B3FBF2F303EB0113EAE700BF001001400B
:106F1000F8B504460E4617461D462268136836EA41
:106F2000030301D1002028E06B1CF7D025B1FDF749
:106F300093F8C01B8542F0D2226802F10C0353E89B
:106F4000003F23F4D0730C3242E80030216800285F
:106F5000F2D101F1140353E8003F23F0010301F1E2
:106F6000140040E80032002AF3D1202384F83D3099
:106F700084F83C2084F83E300320F8BD10B5044668
:106F800040B390F83D3003F0FF021BB980F83C207D
:106F9000FBF7F0FC2268242384F83D30D36823F407
:106FA0000053D3602046FFF755FF23681A6922F487
:106FB00090421A615A6922F02A025A61DA6842F450
:106FC0000052DA6000202023206484F83D3084F8E9
:106FD0003E3010BD0120FCE7F7B5174690F83D2084
:106FE0000093202A04460E4649D1002945D0002F9F
:106FF00043D090F83C20012A41D0012280F83C2067
:1070000000252122056480F83D20FDF725F8A168C0
:10701000009BA784B1F5805F0246E78403D1216914
:1070200009B935460E46002184F83C10E18C89B23E
:1070300041B940212046FFF76BFF60B9202384F857
:107040003D3009E080212046CDE90023FFF760FFB5
:10705000DDE9002310B1032003B0F0BD20684EB974
:1070600035F8021BC1F308014160E18C013989B296
:10707000E184DBE716F8011BF6E70120ECE70220CC
:10708000EAE77047704708B5806B0023C385C38467
:10709000FFF7F8FF08BD704707B58168836A02688B
:1070A000B1F5805F3ED1016900293ED15268C2F33B
:1070B000080223F8022B8362C38D013B9BB2C38578
:1070C000002B2CD10268D16821F02001D160D16859
:1070D00021F48071D160516921F0010151612022B8
:1070E00080F83E20026B012A026828D1036302F176
:1070F0000C0353E8003F23F0100302F10C0C4CE8A2
:1071000000310029F3D11368DB0605D5019113681E
:10711000019353680193019B818DFFF7BCFF03B07E
:107120005DF804FB39B9016929B95268D2B21A7005
:10713000836A0133BFE7526802F07F02F7E700F08D
:107140006BFDECE7036837B51A68D9685D6912F022
:107150000F0F04460CD1950670D58D066ED590F8AC
:107160003E30222B64D103B0BDE83040FFF794BF1E
:1071700005F0010001F4907505435FD0D50705D5F2
:10718000CB0542BF236C43F001032364550704D5AC
:1071900018B1236C43F002032364930704D518B19C
:1071A000236C43F004032364150707D501F0200383
:1071B00003431EBF236C43F008032364236C002B9E
:1071C00036D0900608D58A0606D594F83E30222B94
:1071D00002D12046FFF760FF23685B69256C03F04E
:1071E000400305F008051D43204623D0FFF704FEA9
:1071F000226853695B0618D502F1140353E8003F77
:1072000023F0400302F1140040E800310029F3D1DB
:10721000A06B50B1724B0365FCF7DEFF40B1A06B71
:10722000036D03B0BDE8304018472046FFF72AFF42
:1072300003B030BDFFF726FF2564F9E7206B012876
:1072400040F09180D50640F18E80C80640F18B80D9
:10725000002201921A6801925A680192019A5A69B1
:1072600055064CD5A16B0A68526892B2002ADFD04D
:10727000A08D9042DCD9E285CA69B2F5807F36D014
:1072800003F10C0252E8002F22F4807203F10C008B
:1072900040E800210029F3D103F1140252E8002F45
:1072A00022F0010203F1140040E800210029F3D18B
:1072B00003F1140252E8002F22F0400203F11400FF
:1072C00040E800210029F3D1202284F83E202163E8
:1072D00003F10C0252E8002F22F0100203F10C001F
:1072E00040E800210029F3D1A06BFCF731FFE38DCA
:1072F000A18DC91A89B22046FFF7CDFE98E7E18D2E
:107300008AB2E18D89B2002992D0A18D891A89B201
:1073100000298DD003F10C0252E8002F22F4907264
:1073200003F10C0545E800200028F3D103F1140215
:1073300052E8002F22F0010203F1140545E8002075
:107340000028F3D1202284F83E20206303F10C02B0
:1073500052E8002F22F0100203F10C0545E800204E
:107360000028F3D1C7E7100628D50D0626D594F8D6
:107370003D20212A7FF45CAFA168226AB1F5805FCD
:1073800017D12169A9B932F8021BC1F3080159606C
:107390002262E28C013A92B2E284002A7FF448AF82
:1073A000DA6822F08002DA60DA6842F04002DA60DD
:1073B0003EE7511C216212785A60EAE750067FF5D9
:1073C00037AF4A067FF534AFDA6822F04002DA6060
:1073D000202384F83D302046FFF753FE28E700BF06
:1073E00087700008C285828522230022026480F80B
:1073F0003E30036880F83C208162D96841F4807196
:10740000D960596941F001015961D96841F0200101
:10741000D9601046704770B490F83E60202E10D1AD
:1074200061B15AB190F83C40012C0AD0012480F897
:107430003C400024046370BCFFF7D4BF012070BC43
:1074400070470220FBE700002DE9F0414A6AD1E9CC
:107450000743D1E90158D1E903ECD1E90576096880
:10746000012943EA0403124904680FD01A432A434E
:1074700042EA080343EA0E0343EA0C033B4321407C
:1074800033430B4303600020BDE8F081134342689F
:10749000114045EA080242EA0E0242EA0C023A436F
:1074A00024F4F844324323430A4303604260EAE78A
:1074B0000080FFFFCB68F0B50C688E680D695F1E19
:1074C0004B6904F1FF3C4C688969013B1B05013C99
:1074D000013E013D0139012A4FEA04144FEA062614
:1074E0004FEA05454FEA016143EA07330CD043EA0E
:1074F0000C032343826833432B4302F070420B4357
:10750000134383600020F0BD876827F4700727F4D9
:10751000704734433B4344EA0C02C76883602A4304
:1075200007F070470A433A43C260EBE773B50023A4
:1075300001931546D1E900321343CA6843EA422356
:107540008A68013A43EA42130193019B03610446AE
:10755000FCF782FD0646A36913F0200301D118460B
:1075600003E06B1CF7D015B9032002B070BDFCF727
:1075700073FD801BA842EED9F6E7436943EA410157
:107580004161002070470000024B1860024B1970E7
:10759000704700BF7C1800205C18002001380328C9
:1075A00012D8DFE800F002060A0E084B1B68596388
:1075B0007047064B1B6899637047044B1B68D9637F
:1075C0007047024B1B681964704700BF7C1800208D
:1075D00008B504280BD8DFE800F0030B0D0F1100ED
:1075E0000021074B1878FFF7D9FF064B197008BD2B
:1075F0001921F6E73221F4E74B21F2E76421F0E7A5
:107600005C1800205E18002073B505460E4600F099
:107610000EF984B2012C06D01B491C4802B0BDE80B
:10762000704017F027B8532E14D10DF107012846EA
:1076300000F013F99DF807003038C0B204288DF827
:1076400007001ED8FFF7C4FF1149104817F012F8C1
:1076500002B070BD442EDFD10DF10701284600F0C5
:10766000FCF89DF80730303BDBB2012B8DF807307A
:1076700003D1084B00221A70E6E713B9054B1C70C2
:10768000E2E70149E1E700BFDC2D0208E12D020835
:10769000DD2D0208781800201FB50C4600F0C7F851
:1076A00082B2002A41D1542C09D1234B2348D3E97B
:1076B0000023214604B0BDE8104016F0DBBF532C78
:1076C00008D11F4B1F481A78462104B0BDE810406E
:1076D00016F0D0BF442C04D11B4B1A781B4821460E
:1076E000F3E7462C03D11A4A1A485621EDE7482CF5
:1076F00001D1194BF1E7552C17D1184C18480392BA
:107700002146FEF782FB039A16491548FEF7A2FBB5
:10771000A37801936378144A00932378127813486E
:10772000432116F0A7FF04B010BD1149114804B061
:10773000BDE8104016F09EBF90180020E62D02080C
:107740005E180020EF2D020878180020F82D02089E
:10775000FF2D02080C2E0208791800206418002062
:10776000B01400205F1800205D180020132E0208BE
:10777000DC2D0208E12D020813B504460DF10601C7
:1077800000F06BF80DF10701204600F066F89DF857
:107790000630532B0CD19DF807102046FFF734FF1D
:1077A0000A4816F0EDFF204600F032F802B010BD96
:1077B000472B05D19DF807102046FFF76DFFEFE737
:1077C0000349044816F056FFEAE700BFB324020855
:1077D000DC2D0208E12D020870B50A4A0A4D137823
:1077E000044600260948AE7001334FF4005113706F
:1077F000FCF7EBFE324629462046BDE87040FEF716
:10780000EBB900BF5D1800205F180020001802408F
:107810000023C0E9023303747047037C2BB9D0E91D
:1078200002301B1A5842584170470020704710B56B
:10783000034640681A7C012A0ED0D3E90241B4FB0A
:10784000F0F28C4200FB1242B1FBF0F300FB131389
:1078500036BF8018D01AC01A10BD10B50246FFF707
:10786000DCFF80B91468D368E35C0B70D36851689F
:107870000133B3FBF1F401FB14339168D3608B4205
:1078800000D1107410BD0120FCE78368026810B5B8
:10789000D154D0E901130133B3FBF1F201FB1233F0
:1078A000027C8360012A06D1C2680132B2FBF1F486
:1078B00001FB1422C260C268934204BF0123037417
:1078C00010BD000008B5134B13491868134B1A88F4
:1078D000C2EB20135200C2EBE002B1F900004243B8
:1078E00003FB03F00E4BB3F9003000135843801331
:1078F0000C4B00EBE220186000EB8000803000129F
:10790000F8F720FE084B0022F8F7B0FF41EC100B0F
:1079100008BD00BFA418002086180020821800208F
:107920008A180020981800200000594010B5184807
:1079300000224FF40071FCF743FE164916486423F9
:107940000122FEF7F5FB10B10124204610BD1349BA
:10795000114864230122FEF7EBFB0028F4D1104903
:107960000D4864230122FEF7E3FB0028ECD10D490A
:10797000094864230122FEF7DBFB04460028E3D11B
:10798000034801224FF40071FCF71AFEDDE700BF47
:107990000018024089000020041500208D000020FE
:1079A000880000208C00002010B50F4800224FF402
:1079B0000071FCF705FE0D490D4864230122FEF716
:1079C000B7FB044668B90B49094803226423FEF754
:1079D00051FD054801224FF40071FCF7F1FD2046EE
:1079E00010BD0124FBE700BF001802408B000020FF
:1079F00004150020A818002010B50F4800224FF4ED
:107A00000071FCF7DDFD0D490D4864230122FEF7EE
:107A10008FFB044668B90B49094803226423FEF72B
:107A200029FD054801224FF40071FCF7C9FD2046ED
:107A300010BD0124FBE700BF001802408A000020AF
:107A400004150020A0180020044A537810781B0168
:107A500043EA0033907843EA10107047A8180020DA
:107A6000044A537810781B0143EA0033907843EAC4
:107A700010107047A018002008B5FFF795FF10B14F
:107A80000121084608BDFFF7B7FF01460028F7D1DE
:107A9000FFF7DAFF034B1860FFF7E2FF024B1860B5
:107AA000EFE700BFA41800209C180020F8B532486A
:107AB00000224FF40071FCF783FD30493048642305
:107AC0000122FEF735FB044610B101242046F8BD23
:107AD0002C4F2B48642302223946FEF7CBFC264864
:107AE00001224FF40071FCF76BFD224622484FF44F
:107AF0000071FCF765FD2449214864230122FEF74B
:107B000017FB04460028E0D1204E1D4864230222C2
:107B10003146FEF7AFFC184801224FF40071FCF724
:107B20004FFD224614484FF40071FCF749FD1849F7
:107B3000134864230122FEF7FBFA04460028C4D14F
:107B4000144D0F48642302222946FEF793FC0A488D
:107B500001224FF40071FCF733FD0F4B3A881A8075
:107B60000E4B32881A800E4B2A881A80FFF7AAFE25
:107B70000C4B83ED000BA9E7001802408E0000209B
:107B800004150020801800208F0000208418002099
:107B900090000020881800208218002086180020FD
:107BA0008A180020901800204368C360836803612E
:107BB0000C30FFF72DBE000013B50446FFF7F4FFAD
:107BC00004F12001206801910122FFF724FC0199B2
:107BD00003480122FFF71FFC024B1C6002B010BDDE
:107BE00088160020AC18002038B50446232C094D17
:107BF000084605D100232B70BDE83840FFF7BCBD17
:107C00002B7813B12146FFF740FE2A2C01D1012326
:107C10002B7038BDAB1800200368124A934210B590
:107C200019D1114B114A1A60114C236893F82000A6
:107C300003F10C01FFF7D8FF2368012203F12001B3
:107C40001868FFF7E8FB21680A48BDE810400122E8
:107C50002031FFF7E0BB084A9342E5D1024B054AC9
:107C6000E1E700BF0010014018000020441600208A
:107C7000AC180020881600200050004008B54FF0D6
:107C8000E0231B6901F01EFE012803D0BDE8084077
:107C900000F0F0BB08BD0000EFF305832BB9064BE5
:107CA000186828B901221A6070476FF00500704704
:107CB0004FF0FF30704700BF101B002010B5EFF3EE
:107CC00005845CB9084B1A68012A0AD1074AD4779F
:107CD00002221A6001F070FB204610BD6FF0050013
:107CE000FBE74FF0FF30F8E7101B002000ED00E04D
:107CF000F0B587B0144600220B460592EFF30582DB
:107D0000D2B9C8B1002C2FD0A569002D08BF182505
:107D1000691E3729AC462BD86168C90728D4666923
:107D20006EB1B208D4E9027E216857B1BEF15F0F8F
:107D300002D9246904B1EEB9059807B0F0BD8022DC
:107D4000F0E7BEF1000FF7D12469002CF4D10C4606
:107D500005A9CDE900C192B2214601F000FB01283E
:107D60001CBF00230593E7E74FF0180C8022EFE7D4
:107D70001046E2E7CDE90147009501F0B8FA059019
:107D8000DAE7EFF3058050B94FF0E0234FF080526F
:107D9000C3F8042DBFF34F8FBFF36F8F70476FF0A1
:107DA0000500704710B5EFF3058424B910B101F058
:107DB00061FC204610BD6FF00500FBE7F7B50446F7
:107DC0000E461546EFF305821AB10024204603B093
:107DD000F0BD0028F9D08842F7D3E5B1D5E90237E4
:107DE000BBB14F2FF1D901282AD1032100911146AF
:107DF00000F0E9FC04460028E7D0DEB100231A4673
:107E0000194600F095FD012814D0204601F0D0F865
:107E1000DBE7002FD9D1012C05D103220021204618
:107E200000F01FFDE6E72046314600F063FD044602
:107E30000028CAD055B92946204601F093F8C5E775
:107E40001A4600F035FD04460028BED02D68F2E742
:107E500013B50C4608B3EFF30583B3B1E9B901AA32
:107E6000019101F030F8012814D1019B13B90020D1
:107E700002B010BD4FF0E0234FF08052C3F8042D44
:107E8000BFF34F8FBFF36F8FF1E700F059FF012869
:107E9000EDD02CB96FF00200EAE76FF00300E7E7DE
:107EA0006FF00100E4E713B510B3EFF30583B3B14E
:107EB000002401A9019400F050FE012815D1019B76
:107EC00013B9002002B010BD4FF0E0234FF08052F4
:107ED000C3F8042DBFF34F8FBFF36F8FF1E71A463E
:107EE000194600F025FD0128EBD06FF00200E9E70C
:107EF0006FF00300E6E7F7B505460E461446EFF3CC
:107F000005871FB10025284603B0F0BD0028F9D031
:107F10000029F7D0DAB1D2E9023283B14F2AF1D980
:107F20002269002AEED066694D43AE42EAD300973B
:107F300000F049FC05460028E4D0246811E0002A3E
:107F4000E0D12369002BDDD16369002BDAD128460B
:107F50000022314600F085FC05460028D2D0002CD6
:107F6000EBD12146284600F0FDFFCCE773B51C4657
:107F7000EFF30586C6B118B311B30BBB01AA019389
:107F800000F089FD012818D1019B13B9002002B02F
:107F900070BD4FF0E0234FF08052C3F8042DBFF3C3
:107FA0004F8FBFF36F8FF1E750B149B1334622468F
:107FB00000F0BEFC0128E9D02CB96FF00200E6E722
:107FC0006FF00300E3E76FF00100E0E737B51C4610
:107FD000EFF30583C3B110B309B304BB01AA019445
:107FE00000F071FF012817D1019B13B9002003B0E5
:107FF00030BD4FF0E0234FF08052C3F8042DBFF3A3
:108000004F8FBFF36F8FF1E748B141B1224600F0C7
:10801000F8FD0128EAD02CB96FF00200E7E76FF015
:108020000300E4E76FF00100E1E70000034B0360A9
:10803000034B0B6080231360704700BFB01A002011
:10804000B0180020034B0360034B0B604FF48073A8
:1080500013607047141F0020141B002010B50F4B35
:108060001A461B688342FBD354681119884201BF2A
:108070004168104609195160446801198B4207D1C3
:10808000074909688B421FBF59681B68091941607D
:108090009042036018BF106010BD00BF8C1F01200C
:1080A000741F00202DE9F041044601F0CBF942484D
:1080B000424D03680BBB42494E071FBFCB1D23F047
:1080C000070301F58032D21A14BF19464FF48032EB
:1080D0000A443C4E083A22F00702002373603160E4
:1080E000C2E90033531AC1E900230260364A136023
:1080F000364A13604FF000432B602F68274255D15A
:10810000002C46D004F1080361071CBF23F00703CD
:108110000833002B4AD02D4C26689E4246D3294A6C
:1081200015686968994204D2D5F800C0BCF1000F07
:1081300015D10068A84239D0C91A2868D2F8008041
:108140001060102912D9E81842070BD04FF05003E5
:1081500083F31188BFF36F8FBFF34F8FFEE72A467B
:108160006546DEE741606B60FFF778FF6B68164994
:10817000174A0868F61A1F4300232B60136826600D
:10818000864203F1010338BF0E6008F108046F60F6
:10819000136001F0FBF963070AD04FF0500383F33B
:1081A0001188BFF36F8FBFF34F8FFEE70024F0E716
:1081B0002046BDE8F08100BF741F0020781F012019
:1081C000781F00208C1F0120801F01207C1F0120B0
:1081D000841F012010B5044690B31A4A50F8043C9D
:1081E0001268134208D14FF0500383F31188BFF394
:1081F0006F8FBFF34F8FFEE750F8081C41B14FF06F
:10820000500383F31188BFF36F8FBFF34F8FFEE7E7
:1082100023EA020340F8043C01F014F90A4A54F836
:10822000043C1168A4F108000B441360FFF716FF2B
:10823000064A1368BDE810400133136001F0A6B987
:1082400010BD00BF781F01207C1F0120881F012066
:1082500000F108034FF0FF32C0E9022343600361DD
:1082600000230360704700230361704743684B603D
:108270009A688A609A68516099600368086101335E
:108280000360704730B50C68631C0AD103695A68F3
:108290004A6091608B605960036808610133036034
:1082A00030BD00F10802134652681568A542FAD99C
:1082B000EDE7D0E9011203698A6051605968814293
:1082C00008BF5A60002202611A68013A1A601868F1
:1082D0007047000008480068006880F308884FF085
:1082E000000080F3148862B661B6BFF34F8FBFF30E
:1082F0006F8F00DF00BF000008ED00E0DFF80C002A
:10830000016841F4700101607047000088ED00E0F1
:1083100082B0002301930D4B1B68013308D04FF04E
:10832000500383F31188BFF36F8FBFF34F8FFEE7C6
:108330004FF0500383F31188BFF36F8FBFF34F8F5C
:10834000019B002BFCD002B0704700BF94000020BE
:108350004FF0807340F8043C074B40F80C3C21F090
:1083600001016FF0020340F8081C40F8202C40F88F
:10837000243C4438704700BF11830008000000000F
:10838000074B19680868B0E8F04F80F30988BFF31D
:108390006F8F4FF0000080F311887047AFF30080BB
:1083A000DC1F01204FF0500383F31188BFF36F8F60
:1083B000BFF34F8F0A4A13680133012B13600ED1AC
:1083C0004FF0E023D3F8043DDBB243B14FF050034C
:1083D00083F31188BFF36F8FBFF34F8FFEE77047B2
:1083E00094000020084A136843B94FF0500383F308
:1083F0001188BFF36F8FBFF34F8FFEE7013B136010
:108400000BB983F31188704794000020000000002E
:10841000EFF30980BFF36F8F154B1A681EF0100F32
:1084200008BF20ED108A20E9F04F10602DE9090007
:108430004FF0500080F31188BFF34F8FBFF36F8F61
:1084400001F03CF94FF0000080F3118809BC196875
:108450000868B0E8F04F1EF0100F08BFB0EC108AAB
:1084600080F30988BFF36F8F704700BFAFF30080C0
:10847000DC1F012008B54FF0500383F31188BFF3D0
:108480006F8FBFF34F8F00F0EBFF28B14FF0E02369
:108490004FF08052C3F8042D002383F3118808BDE8
:1084A0004FF0E022002313619361054B4FF47A7182
:1084B0001B68B3FBF1F3013B536107231361704762
:1084C0007C0000204FF0E02337B5D3F8001D3A4A76
:1084D000914208D14FF0500383F31188BFF36F8F9F
:1084E000BFF34F8FFEE7D3F8002D344B9A4208D1EB
:1084F0004FF0500383F31188BFF36F8FBFF34F8F9B
:10850000FEE72F4B1A78D2B20192FF221A701B7825
:108510002C4ADBB28DF803309DF8033003F0500392
:108520001370294A0723136000219DF803000006F9
:1085300003F1FF340CD411B1032B136011D04FF0B1
:10854000500383F31188BFF36F8FBFF34F8FFEE7A4
:108550009DF803305B00DBB28DF803300121234628
:10856000E3E74FF440731360019B154A4FF0E0249A
:10857000DBB21370D4F8203D43F47003C4F8203DFF
:10858000D4F8203D43F07043C4F8203DFFF788FF46
:108590000E4B00251D60FFF7B1FED4F8343F43F0C9
:1085A0004043C4F8343FFFF795FE01F087F8FFF72A
:1085B000AFFE284603B030BD71C20F4170C20F41FB
:1085C00000E400E0941F0120981F01209400002087
:1085D000EFF305830F2B0ED9114A9B5C114A1278D9
:1085E0009A4208D94FF0500383F31188BFF36F8F7D
:1085F000BFF34F8FFEE74FF0E0230B4AD3F80C3D5B
:10860000126803F4E063934208D94FF0500383F3F8
:108610001188BFF36F8FBFF34F8FFEE7704700BF26
:10862000F0E300E0941F0120981F012010B50446DC
:10863000FFF7B8FEA46BFFF7D5FEB4FA84F040094B
:1086400010BDF8B51546026C866B044652B9076832
:1086500047BB806801F088F9A76005460136A6632C
:108660002846F8BD65B9406814F03AFF6368226C8B
:108670001344A26863609342F0D323686360EDE71C
:10868000C06814F02DFF226CE36851429B1A2268E7
:10869000E36093423EBFA3685B18E360022D01D103
:1086A00016B1013E0025D9E73546D7E7034610B499
:1086B0001A6C08466AB1DC68996814448C4228BF79
:1086C0001968DC6028BFD960D9685DF8044B14F0E4
:1086D00007BF5DF8044B704770B50446FFF762FEB4
:1086E00094F8455004F124066DB2002D14DCFF23EC
:1086F00084F84530FFF776FEFFF754FE94F84450B7
:1087000004F110066DB2002D12DCFF2384F8443012
:10871000BDE87040FFF766BE636A002BE7D03046C5
:1087200001F03EF808B101F0C7F8013D6DB2DCE799
:108730002369002BE9D0304601F032F808B101F08E
:10874000BBF8013D6DB2DEE738B50D46044640B9D1
:108750004FF0500383F31188BFF36F8FBFF34F8F38
:10876000FEE7FFF71FFED4E90F31226862604B433A
:10877000D0185B1A1344A060E3600020FF23A063BD
:1087800084F8443084F84530A5B9236973B104F105
:10879000100001F005F848B14FF0E0234FF080528F
:1087A000C3F8042DBFF34F8FBFF36F8FFFF71AFE8F
:1087B000012038BD04F11000FFF74AFD04F1240048
:1087C000FFF746FDF2E713B51C4640B94FF05003E2
:1087D00083F31188BFF36F8FBFF34F8FFEE743B969
:1087E0004FF0500383F31188BFF36F8FBFF34F8FA8
:1087F000FEE74AB191B94FF0500383F31188BFF3FC
:108800006F8FBFF34F8FFEE741B14FF0500383F3FB
:108810001188BFF36F8FBFF34F8FFEE75023019393
:10882000019B502B08D04FF0500383F31188BFF306
:108830006F8FBFF34F8FFEE7002908BF2246019BD1
:1088400022600123C4E90F0184F84630194620460E
:10885000FFF77AFF9DF8103084F84C30204602B0C4
:1088600010BDF8B50D461746064640B94FF0500307
:1088700083F31188BFF36F8FBFF34F8FFEE7484339
:108880005030FFF70FFC044670B1002380F84630EB
:1088900065B100F15003C4E90F6523600121204652
:1088A000FFF752FF84F84C702046F8BD0346F2E70C
:1088B00013B513460C4640B94FF0500383F31188AB
:1088C000BFF36F8FBFF34F8FFEE7884208D24FF0A0
:1088D000500383F31188BFF36F8FBFF34F8FFEE711
:1088E0000222009200221146FFF76DFF00B184635F
:1088F00002B010BD10B50C4640B94FF0500383F3E1
:108900001188BFF36F8FBFF34F8FFEE7884208D205
:108910004FF0500383F31188BFF36F8FBFF34F8F76
:10892000FEE702220021FFF79CFF00B1846310BD27
:108930002DE9F04385B0884601921F46044640B9B0
:108940004FF0500383F31188BFF36F8FBFF34F8F46
:10895000FEE751B9036C43B14FF0500383F3118824
:10896000BFF36F8FBFF34F8FFEE7022F0BD1E36B87
:10897000012B08D04FF0500383F31188BFF36F8FA2
:10898000BFF34F8FFEE700F09DFF064650B9019BF5
:108990004BB14FF0500383F31188BFF36F8FBFF3D8
:1089A0004F8FFEE700264FF0000937E0019D1DB90B
:1089B000FFF718FD002052E016B902A800F034FFBE
:1089C000FFF710FD00F03EFDFFF7ECFC94F844309B
:1089D000FF2B08BF84F8449094F84530FF2B08BF64
:1089E00084F84590FFF7FEFC01A902A800F028FFDB
:1089F00000284AD1FFF7D6FCA26BE36B9A4231D133
:108A0000FFF7F0FC019904F1100000F091FE204600
:108A1000FFF762FE00F0BAFD60B30126FFF7C2FC6B
:108A2000A26BE36B9A4201D3022FBFD13A46414673
:108A30002046FFF706FE636A1BB104F1240000F034
:108A4000AFFE48B14FF0E0234FF08052C3F8042D41
:108A5000BFF34F8FBFF36F8FFFF7C4FC012005B04A
:108A6000BDE8F083FFF7BEFC2046FFF735FE00F0BF
:108A70008DFDD2E74FF0E0234FF08052C3F8042D74
:108A8000BFF34F8FBFF36F8FC7E72046FFF724FE7A
:108A900000F07CFD8EE72DE9F843894690461F469D
:108AA000044640B94FF0500383F31188BFF36F8F32
:108AB000BFF34F8FFEE751B9036C43B14FF0500342
:108AC00083F31188BFF36F8FBFF34F8FFEE7022F41
:108AD0000BD1E36B012B08D04FF0500383F31188C7
:108AE000BFF36F8FBFF34F8FFEE7FFF771FDEFF31B
:108AF00011864FF0500383F31188BFF36F8FBFF3DC
:108B00004F8FA26BE36B9A4201D3022F23D194F8CB
:108B10004550A36B6DB23A4649462046FFF791FD9A
:108B20006B1C13D1636A0BB901200BE004F1240024
:108B300000F036FE0028F7D0B8F1000FF4D0012085
:108B4000C8F8000086F31188BDE8F88301356DB2DE
:108B500084F84550E8E70020F4E770B50D46044678
:108B600040B94FF0500383F31188BFF36F8FBFF309
:108B70004F8FFEE7036C43B14FF0500383F311882E
:108B8000BFF36F8FBFF34F8FFEE7036853B983685E
:108B900043B14FF0500383F31188BFF36F8FBFF3DE
:108BA0004F8FFEE7FFF714FDEFF311864FF05003F0
:108BB00083F31188BFF36F8FBFF34F8FA26BE36B0B
:108BC00093421CD994F845100132FF294BB2A2639D
:108BD00010D1636A0BB9012009E004F1240000F010
:108BE000DFFD0028F7D0002DF5D00120286086F3A6
:108BF000118870BD01335BB284F84530EBE700208B
:108C0000F5E72DE9FF410F460192044640B94FF0C8
:108C1000500383F31188BFF36F8FBFF34F8FFEE7CD
:108C200051B9036C43B14FF0500383F31188BFF384
:108C30006F8FBFF34F8FFEE700F044FE064650B93A
:108C4000019B4BB14FF0500383F31188BFF36F8F3B
:108C5000BFF34F8FFEE700264FF000083DE0019D77
:108C60001DB9FFF7BFFB002056E016B902A800F0BF
:108C7000DBFDFFF7B7FB00F0E5FBFFF793FB94F894
:108C80004430FF2B08BF84F8448094F84530FF2B14
:108C900008BF84F84580FFF7A5FB01A902A800F0F2
:108CA000CFFD002841D12046FFF7C0FCB8B30199A1
:108CB00004F1240000F03CFD2046FFF70DFD00F01C
:108CC00065FC48B94FF0E0234FF08052C3F8042D03
:108CD000BFF34F8FBFF36F8F0126FFF763FBA56BC9
:108CE000002DBCD039462046013DFFF7DFFCA563CF
:108CF000236973B104F1100000F052FD48B14FF048
:108D0000E0234FF08052C3F8042DBFF34F8FBFF321
:108D10006F8FFFF767FB012004B0BDE8F0812046AC
:108D2000FFF7DAFC00F032FCD6E72046FFF7D4FC70
:108D300000F02CFC2046FFF779FC0028CCD092E70D
:108D4000F0B585B00446019140B94FF0500383F36C
:108D50001188BFF36F8FBFF34F8FFEE7056C45B1EE
:108D60004FF0500383F31188BFF36F8FBFF34F8F22
:108D7000FEE700F0A7FD064650B9019B5BB14FF03E
:108D8000500383F31188BFF36F8FBFF34F8FFEE75C
:108D90002E46002753E00546FBE7019B63B945B12A
:108DA0004FF0500383F31188BFF36F8FBFF34F8FE2
:108DB000FEE7FFF717FB62E016B902A800F034FDEA
:108DC000FFF710FB00F03EFBFFF7ECFA94F844309D
:108DD000FF2B08BF84F8447094F84530FF2B08BF80
:108DE00084F84570FFF7FEFA01A902A800F028FDFB
:108DF00000284DD12046FFF719FC002842D02368F7
:108E00003BB9FFF7CFFAA06800F06CFD0546FFF70D
:108E1000E9FA019904F1240000F08AFC2046FFF7EA
:108E20005BFC00F0B3FB48B94FF0E0234FF08052F9
:108E3000C3F8042DBFF34F8FBFF36F8F0126FFF7E9
:108E4000B1FAA36B002BA8D0013BA363236813B92D
:108E500000F020FEA060236973B104F1100000F05F
:108E60009FFC48B14FF0E0234FF08052C3F8042D2F
:108E7000BFF34F8FBFF36F8FFFF7B4FA012528467A
:108E800005B0F0BD2046FFF727FC00F07FFBD5E7DB
:108E90002046FFF721FC00F079FB2046FFF7C6FBD8
:108EA0000028CBD0002DEAD0FFF77CFA616A19B117
:108EB000236B1968C1F13801A06800F099FD002505
:108EC000FFF790FADBE72DE9F8438946904605461F
:108ED00040B94FF0500383F31188BFF36F8FBFF396
:108EE0004F8FFEE751B9036C43B14FF0500383F34A
:108EF0001188BFF36F8FBFF34F8FFEE7FFF768FB5B
:108F0000EFF311874FF0500383F31188BFF36F8F96
:108F1000BFF34F8FAC6B1CB395F84460494676B2F3
:108F20002846FFF7C3FB013C731CAC6313D12B69CC
:108F30000BB901200BE005F1100000F031FC002816
:108F4000F7D0B8F1000FF4D00120C8F8000087F383
:108F50001188BDE8F883013676B285F84460E8E709
:108F60002046F4E710B5074A002352F833402CB9E5
:108F700042F8331002EBC303586010BD0133082BD5
:108F8000F3D1FAE79C1F012010B5084A002302EB39
:108F9000C3014C68844204D1002042F83300486089
:108FA00010BD0133082BF2D1FAE700BF9C1F01204E
:108FB00010B5044640B94FF0500383F31188BFF356
:108FC0006F8FBFF34F8FFEE7FFF7DEFF94F8463059
:108FD00023B92046BDE81040FFF7FCB810BD70B5BE
:108FE00004460D461646FFF7DDF994F84430FF2B92
:108FF00004BF002384F8443094F84530FF2B04BFAD
:10900000002384F84530FFF7EDF9A36B2BB9324606
:10901000294604F1240000F0A5FB2046BDE870407D
:10902000FFF75ABB2DE9F0410446FFF7BBF9304B7F
:10903000304E1A68304F01321A603568002D4BD11E
:1090400034601B68012B1FD1B84640460135FFF73D
:10905000FFF8382D08F11408F7D1DFF8C480274D48
:109060004046FFF7F5F82846FFF7F2F82448FFF7E7
:10907000EFF82448FFF7ECF82348FFF7E9F8234B13
:10908000C3F80080224B1D60224A1368013313602D
:10909000214A63641168E36A14208B4200FB037069
:1090A00004F1040188BF1360FFF7E0F8FFF79AF9B5
:1090B0001A4B1B6873B13368DA6AE36A9A4209D2C1
:1090C0004FF0E0234FF08052C3F8042DBFF34F8FD1
:1090D000BFF36F8FBDE8F081104B1B68002BD3D11D
:1090E0003368DA6AE36A9A4298BF3460CCE700BF1B
:1090F00048240120DC1F0120E81F012070240120EA
:1091000090240120BC240120A8240120E01F01207C
:10911000E41F01205424012058240120A42401200C
:109120005C240120F8B5154B154E1D6804463068C7
:1091300004300F46FFF7BDF8631C07D137B1316823
:109140001048BDE8F8400431FFF790B833682C1997
:109150005C6007D30C4B18683168BDE8F8400431F7
:10916000FFF790B8094B186831680431FFF78AF8A7
:10917000074B1A68A24288BF1C60F8BDD0240120AA
:10918000DC1F0120A8240120E41F0120E01F012092
:1091900084240120064A13681968064B19B94FF058
:1091A000FF321A6070471268D268D2685268F8E7D6
:1091B000E01F01208424012010B590F85D300446A2
:1091C0003BB9006BFFF706F82046BDE81040FFF7FB
:1091D00001B8012BF9D0022B08D04FF0500383F3D4
:1091E0001188BFF36F8FBFF34F8FFEE710BD0000F4
:1091F00080B5134C134F144D236873B9134B1B6880
:10920000012BF8D94FF0E0234FF08052C3F8042D22
:10921000BFF34F8FBFF36F8FEDE7FFF7C3F8FB6826
:10922000DE68301DFFF745F82B68013B2B60236893
:10923000013B2360FFF7D6F83046FFF7BDFFDBE7C1
:109240004C240120BC24012048240120E81F0120D7
:109250002DE9F047DDE909844FEA82094A460646CE
:109260000D46206BA5211F4614F048F9226BA9F189
:109270000409914429F00709B5B36B1E04F13402C7
:109280000F3513F8010F02F8010B08B1AB42F8D10A
:10929000002384F84330089D372D28BF37254FF031
:1092A000000AE562E564201DC4F850A0FEF7DBFF6C
:1092B000C5F1380504F11800FEF7D5FFC4F858A031
:1092C0002461A5616462C4F854A084F85CA03A46A5
:1092D00031464846FFF73CF82060B8F1000F01D056
:1092E000C8F80040BDE8F08784F83450D3E770B583
:1092F00086B0DDE90B5445B94FF0500383F3118874
:10930000BFF36F8FBFF34F8FFEE744B94FF05003A9
:1093100083F31188BFF36F8FBFF34F8FFEE7602693
:109320000596059E602E08D04FF0500383F31188F8
:10933000BFF36F8FBFF34F8FFEE72563022584F8DD
:109340005D5004AD01950A9D02940095059EFFF7BE
:109350007FFF2046FFF766FE049806B070BD2DE93A
:10936000F043074685B09000884616469946FEF7BA
:1093700099FE0546E8B16020FEF794FE0446A8B1C8
:10938000002380F85D300D9B056301930C9B0290D8
:10939000009332464B4641463846FFF759FF204678
:1093A000FFF740FE012005B0BDE8F0832846FEF738
:1093B00011FF4FF0FF30F6E710B588B0002407AA80
:1093C00006A905A8CDE90544FEF730FE059B0293EA
:1093D000069B079A16491748CDE900432346FFF735
:1093E00086FF18B300F0B4FB012814D14FF05003EE
:1093F00083F31188BFF36F8FBFF34F8F0E4B4FF086
:10940000FF321A600D4B18600D4B1C6008B0BDE8B0
:109410001040FFF757B8013008D14FF0500383F3E5
:109420001188BFF36F8FBFF34F8FFEE708B010BDF9
:10943000292E0208F191000884240120A42401208F
:10944000D0240120024A136801331360704700BF23
:1094500050240120014B1868704700BFD024012020
:109460003F4B1B682DE9F74F002B73D13D4B1D6817
:1094700001351D60BDB93C4B1A68126842B14FF00E
:10948000500383F31188BFF36F8FBFF34F8FFEE755
:10949000364A1968106818601160354A136801333C
:1094A0001360FFF777FE334E334F3368DFF8D48015
:1094B0009D424FF0000411D2D8F80030DB6A14222C
:1094C0005343FB58022B2D4B1B6828BF0124002B54
:1094D00018BF0124204603B0BDE8F08FDFF8889064
:1094E000DFF8A4A0D9F800301B681BB94FF0FF3398
:1094F0003360E1E7D9F80030DB68D3F80CB0DBF873
:109500000420954201D23260D6E70BF104010846EF
:109510000191FEF7CEFEDBF82820019922B10BF174
:109520001800FEF7C6FE0199DBF82C00DAF80020DF
:109530001423904288BFCAF8000003FB0070FEF7B6
:1095400095FED8F80010DBF82C20CB6A9A4228BF91
:109550000124C7E70A4A1368013313600024B9E7FE
:1095600050240120D0240120E01F0120E41F01200D
:109570008824012084240120E81F0120D424012014
:109580008C240120DC1F012058240120F7B5314C28
:10959000236843B94FF0500383F31188BFF36F8FF3
:1095A000BFF34F8FFEE7FEF7FDFE2368013B23600C
:1095B00024682CB10024FEF715FF204603B0F0BD4F
:1095C000254B1B68002BF5D0244D254E254F1EE062
:1095D000EB68DC6804F11800FEF76BFE211D0846FD
:1095E0000191FEF766FEE36A326801991420934206
:1095F00000FB037088BF3360FEF738FE1A4BE26A47
:109600001B68DB6A9A4202D3184B01221A602B684E
:10961000002BDDD10CB1FFF7BDFD154D2C6844B119
:10962000124E0127FFF71CFF00B13760013CF9D152
:109630002C600E4B1B68002BBCD04FF0E0234FF08A
:109640008052C3F8042DBFF34F8FBFF36F8F0124F7
:10965000B1E700BF502401204824012090240120BC
:1096600058240120E81F0120DC1F0120D424012000
:109670008C24012008B550B94FF0E0234FF0805200
:10968000C3F8042DBFF34F8FBFF36F8F08BD0A4B94
:10969000196841B14FF0500383F31188BFF36F8F06
:1096A000BFF34F8FFEE7FFF7CDFEFFF73BFDFFF760
:1096B0006DFF0028E0D0E9E750240120174B1A681D
:1096C000174B70B512B101221A6070BD154D1A60AA
:1096D0002A681549142606FB02F3C818CC588CB129
:1096E00044680833646844600B449C4204BF636868
:1096F0004360142303FB02114B68D9680B4B1960BC
:109700002A60E2E742B94FF0500383F31188BFF3B8
:109710006F8FBFF34F8FFEE7013ADCE75024012043
:10972000D424012058240120E81F0120DC1F01203F
:1097300010B50C4640B94FF0500383F31188BFF3C6
:109740006F8FBFF34F8FFEE7054B19681831FEF797
:1097500099FD20460121BDE81040FFF7E3BC00BFA2
:10976000DC1F012038B50D46144640B94FF05003B8
:1097700083F31188BFF36F8FBFF34F8FFEE7074B63
:1097800019681831FEF772FD002C21460CBF2846DF
:109790004FF0FF30BDE83840FFF7C4BCDC1F0120AC
:1097A000C36813B5DC6844B94FF0500383F31188E4
:1097B000BFF36F8FBFF34F8FFEE704F11801084628
:1097C0000191FEF776FD124B01991B68EBB9211D43
:1097D00008460191FEF76DFD0E4AE36A1068019993
:1097E000834288BF13600C4A142000FB0320FEF75D
:1097F0003DFD0A4BE26A1B68DB6A9A4285BF084B53
:1098000001200020186002B010BD0648EFE700BF3D
:109810005024012058240120E81F0120DC1F0120D2
:10982000D424012090240120034B1B680360034BC8
:109830001B684360704700BF88240120D0240120AA
:1098400070B50C46054640B94FF0500383F31188BC
:10985000BFF36F8FBFF34F8FFEE741B94FF0500357
:1098600083F31188BFF36F8FBFF34F8FFEE7FEF7CF
:1098700099FD0F4B196823685A1C10D00D482E68AB
:1098800000686A68864201D08A420FD9881A8342EA
:109890000AD95B1A134423602846FFF7C5FF00244A
:1098A000FEF7A0FD204670BD002323600124F7E7EA
:1098B000D024012088240120014B01221A60704726
:1098C000D4240120054B1B6833B1054B1B68002BCA
:1098D0000CBF02200020704701207047A424012003
:1098E0005024012073B5044648B31C4DC36A2A684E
:1098F000D26A934229D28269194E002AA1BF2A68EE
:10990000D26AC2F138028261142202FB0363426907
:109910009A4216D1011D08460191FEF7CAFC2B6838
:10992000104ADB6A10680199E36283424FF0140029
:1099300000FB036088BF1360FEF798FC012002B0B3
:1099400070BD2B68DB6AC362F8E72B68C06CDC6A09
:10995000A0422CBF00200120F1E700BFDC1F012046
:10996000E81F01205824012013B510B9002002B0CF
:1099700010BD1C4B1C68844208D04FF0500383F389
:109980001188BFF36F8FBFF34F8FFEE7236D43B98D
:109990004FF0500383F31188BFF36F8FBFF34F8FE6
:1099A000FEE7E16AE26C013B91422365DED0002BC9
:1099B000DCD1211D08460191FEF77BFCE36C019987
:1099C000E362C3F13802A261074A1068834288BF8C
:1099D0001360064A142000FB0320FEF747FC012019
:1099E000C5E700BFDC1F012058240120E81F01202B
:1099F00037B50446002844D0026D42B94FF05003F9
:109A000083F31188BFF36F8FBFF34F8FFEE7C36CF3
:109A1000994238BF1946C36A8B4232D0012A30D1ED
:109A2000194A1268824208D14FF0500383F311881B
:109A3000BFF36F8FBFF34F8FFEE78269134DC16293
:109A4000002A4FF0140202FB03534269A4BFC1F184
:109A5000380181619A4214D1011D08460191FEF737
:109A600028FC0B4AE36A1068019983424FF0140006
:109A700000FB035088BF136003B0BDE83040FEF721
:109A8000F5BB03B030BD00BFDC1F0120E81F012083
:109A900058240120044B1A681AB119680A6D013262
:109AA0000A651868704700BFDC1F0120F7B5114C2C
:109AB000FEF778FC2568BDB90F4F104E3846FEF70B
:109AC000C7FB3046FEF7C4FB0D4B0E4A1F600E4B22
:109AD00010211E600A200D4B0095FEF774FE2060D9
:109AE00010B10B49FFF73EFA03B0BDE8F040FEF7B6
:109AF00079BC00BFFC250120802501209425012090
:109B0000D8240120E0240120DC240120AC25012000
:109B10002E2E0208914208B5416000610AD8D21A7F
:109B200083699A420DD2084B011D1868FEF7AAFB03
:109B3000002008BD9A4201D2994202D2034B011D76
:109B4000F3E70120F5E700BFDC240120D824012041
:109B500010B588B0FFF7AAFF124B1B68B3B1002401
:109B600007AA06A905A8CDE90544FEF76BFA059BEF
:109B70000293069B019302230093079A0A490B481C
:109B80002346FFF7B4FB0A4B186040B94FF050036F
:109B900083F31188BFF36F8FBFF34F8FFEE7012070
:109BA00008B010BDFC250120332E0208B99C000826
:109BB000002601207FB5164604461A4640B94FF0EC
:109BC000500383F31188BFF36F8FBFF34F8FFEE70E
:109BD0000D4D286880B10529CDE9001602940DDCF1
:109BE000FFF770FE0023022808BF089A286818BFF4
:109BF0001A466946FEF79CFE04B070BD0023694614
:109C0000FEF749FFF8E700BFFC2501202DE9FF47DB
:109C1000DFF8A0800646FFF71DFCD8F8003083422D
:109C2000054640D9214F4FF000093B681A685AB9E0
:109C30001F4A116839601360012328463360C8F851
:109C4000005004B0BDE8F087DB68DC68D3F800A002
:109C5000211D08460391FEF72CFB236A20469847F6
:109C600094F82830039913F0040FDED0A36953440D
:109C70009A4505D2386863602461FEF703FBD4E798
:109C80000023CDF80090524619462046FFF792FF78
:109C90000028CAD14FF0500383F31188BFF36F8FB0
:109CA000BFF34F8FFEE70023C7E700BFD824012092
:109CB000DC240120A82501202DE9F0436E4D6F4ED4
:109CC00089B02B68D3F80080B8F1000F35D0DB687D
:109CD000D3F800800024FFF7B5FB04A8FFF796FF38
:109CE000049B8146002B69D1002C4CD1404550D3B8
:109CF000FFF74CFC2B68DB68DF68381DFEF7D9FAEC
:109D000097F8283058071AD5B96943464A4641445E
:109D10003846FFF7FFFEB0B1009423464246214685
:109D20003846FFF747FF70B94FF0500383F31188AF
:109D3000BFF36F8FBFF34F8FFEE70124CBE723F014
:109D4000010387F828303B6A38469847306800227C
:109D500004A9FEF756FF0028B3D0049B0698002BF9
:109D60002FDB069C6369002B32D103A8FFF74EFF5F
:109D7000049B0246092BE9D8DFE803F02E2E2E576C
:109D80005E762E2E575E3E4B1B681C68B4FA84F438
:109D9000640930682246A8EB0901FFF720F9FFF7B4
:109DA000F5FB0028D2D14FF0E0234FF08052C3F8EA
:109DB000042DBFF34F8FBFF36F8FC7E7FFF7E6FBAD
:109DC000C4E7059B07999847049B002BBEDBC8E7B7
:109DD000201DFEF76EFAC8E794F82830A16943F019
:109DE000010384F82830059B20461944FFF792FEB2
:109DF0000028ABD0236A2046984794F828305907AA
:109E0000A4D5A269059900230A4400931946204667
:109E1000FFF7D0FE002899D14FF0500383F311884B
:109E2000BFF36F8FBFF34F8FFEE794F8283023F016
:109E3000010384F8283089E794F8283043F00103BF
:109E400084F828300599A16141B94FF0500383F39C
:109E50001188BFF36F8FBFF34F8FFEE703460144B6
:109E60002046FFF757FE71E794F828309A07DED4B2
:109E70002046FEF7AFF969E7D8240120FC25012030
:109E8000DC24012080887047002383807047000015
:109E9000F8B5036805460E465B6A002198472B68B3
:109EA00004461B6A28469847AB88341BA4B2B4FB0F
:109EB000F0F4A34205D80E4B0E4A1E210E4813F0B3
:109EC00091FA2B6800215B6A284698472B68074661
:109ED0001B6A28469847F31B9BB2B3FBF0F202FBC8
:109EE000103018B1054B034A1F21E7E72046F8BDA3
:109EF0003B2E0208A62F0208502E02087E2E0208D2
:109F000038B503681B6A0D4604469847854205D953
:109F10000C4B0D4A30210D4813F064FA2368A588D4
:109F2000DB6920469847854203D3094B064A312115
:109F3000F1E72368A1885B6A20469847A38801332C
:109F4000A38038BDF82E0208E92F0208502E02081F
:109F50000F2F020870B503681B6A164604460D46AB
:109F60009847864205D9064B064A07483A2113F01E
:109F700039FA2368294620465B6ABDE870401847D5
:109F8000F82E02085C2F0208502E020870470000CD
:109F9000024A026000228280704700BF302F020810
:109FA000806A7047836A00202BB120B95A1A504248
:109FB00050419B69F8E770470022836A23B1996991
:109FC0008162C3E90522F8E7704700238362704786
:109FD0002DE9F0411F4690F824300D46164603B196
:109FE0003860846A14B394F82530EBB1B4F90410E6
:109FF0008D4219DB238989B20B441BB29D4213DACF
:10A00000B4F9062096420FDB638992B213441BB267
:10A010009E4209DA2368B21A691AD3F8208012B274
:10A020003B4609B22046C047A469DBE7BDE8F081A2
:10A030000022028042808280C280704770B5846AAC
:10A040000D4616463CB1236820461B6D3246294614
:10A050009847A469F6E770BD38B5846A0D4634B1F7
:10A060002B6821469B6828469847A469F7E738BDC6
:10A07000704710B52C21044612F068FA204610BD36
:10A08000836A9BB18B4209D19A690021596182622E
:10A0900002B970479961704713463AB19A698A428A
:10A0A000FAD18A699A610023C1E90533704710B477
:10A0B000836A04462BB903685DF8044BDB6D1146D7
:10A0C000184741B99361826254615DF8044B70474F
:10A0D00003460028F9D099429869F9D190618A61C4
:10A0E000F2E70000884208B505D1114B114A212141
:10A0F000114813F077F94B691BB1104B0D4A22211F
:10A10000F6E7C1E90503836A13B9816208BD134606
:10A110009A692AB18B42FAD1094B064A3321E7E703
:10A120008B4203D1064B034A3621E1E79961EDE703
:10A1300027300208783102085330020886300208BE
:10A14000BC3002082DE9F043B1F900708C88B0F9F9
:10A1500000903C44A4B20FFA84F8C1452FDA8288FB
:10A160004A4492B20FFA82FE774528DAB1F90250DA
:10A17000CB88B0F902602B441BB29E421FDAC38821
:10A1800033449BB20FFA83FC654518DA4F45B8BFDC
:10A190004F46B542B8BF3546F045D8BF2246D21B20
:10A1A00082804A88C98807800A4492B211B28C45DD
:10A1B000A8BF13465B1BC3804580BDE8F083002326
:10A1C000038043808380C380F7E7B0F90430002B1D
:10A1D00006DDB0F906000028CCBF00200120704742
:10A1E000012070472DE9F04100238D6A0380044669
:10A1F00043808380C380002D40D0281DFFF7E5FFFA
:10A2000088B92046FFF7E1FFB5F90420B5F906301B
:10A21000B5F908E0B5F90AC038B122806380A4F826
:10A2200004E0A4F806C0AD69E5E7B4F90000B4F9AC
:10A230000210B4F8048090420746A8BF1746724443
:10A24000B4F806E0278099420E464044A8BF1E4657
:10A250007144634400B212B209B21BB29042ACBF67
:10A26000C7EB0002C7EB02029942ACBFC6EB010389
:10A27000C6EB03036680A280E380D4E72046BDE8F6
:10A28000F0812DE9F34190F8253083B3846A74B3EB
:10A29000B1F90050B1F90260B1F90470B1F906806A
:10A2A00094F8253003B36846211DADF80050ADF891
:10A2B0000260ADF80470ADF80680FFF743FF684612
:10A2C000FFF783FF80B9BDF80030A2889B1AADF874
:10A2D0000030E288BDF802309B1AADF802302368E6
:10A2E00069469B6820469847A469002CD8D102B0E3
:10A2F000BDE8F08173B590F825300D46164623B3BE
:10A30000846A14B394F82530EBB1286869686B4609
:10A3100003C36846211DFFF715FF6846FFF755FF89
:10A3200088B9BDF80030A2889B1AADF80030E288E9
:10A33000BDF802309B1AADF80230236832469B6D9F
:10A34000694620469847A469DBE702B070BD13B5A3
:10A350000368D3F89C400023CDE900336B46A04747
:10A3600002B010BD012380F84B3080F8693070478F
:10A37000012380F84B3080F8693070474368012230
:10A380005A72406803681B691847406803689B68F5
:10A39000184730B58BB004689DF8545008959DF867
:10A3A00050500795BDF84C5006959DF848500595BE
:10A3B0009DF844500495BDF840500395BDF83C50BD
:10A3C0000295BDF83850CDE900351346A46B002244
:10A3D000A0470BB030BD0000044B1B7823B190F8B0
:10A3E0006A0080F001007047012070470E260120AE
:10A3F00010B50446406803689B68984794F8693034
:10A4000013B1012384F86A3010BD10B50446F6F785
:10A41000ABFF60680368DB689847E06803689B6887
:10A42000984723682046DB6EBDE8104018470000BF
:10A430007FB503685C4DD3F8A430044698470028E4
:10A4400000F097800120F6F7CBFE94F8663084F890
:10A45000673094F87530002684F8666084F84B60A5
:10A4600033B123682046D3F8B830984784F8756034
:10A4700094F84A30626883F00103537201262E700B
:10A4800002F0B8FF036831469B6B984794F8673039
:10A490000BB984F8676002F0ADFF03685B69984709
:10A4A000A06D03681B69984794F8673094F868209A
:10A4B000013BDBB284F867300AB1002BEBD13B4A99
:10A4C00094F96410137801335BB29942137010DC75
:10A4D000E06800231370036803AADB6802A99847A9
:10A4E0002368002851D0D3F8B030DDE902122046AD
:10A4F0009847606900238DF8073058B103680DF163
:10A500000701DB68984728B1A06D9DF80710036824
:10A51000DB68984704F11C0011F040FF94F86C30A0
:10A520000BB3206903681B699847236F064603B97C
:10A530002067236F1E4AF31A934214D920690368D7
:10A540009B699847236F6422F31AB3FBF2F3B0FBC5
:10A55000F3F000281EDC84F86520206903680021E0
:10A56000DB699847266702F045FF036800219B6B73
:10A57000984723682046D3F8A83098470120F6F77B
:10A5800030FE00232B7004B070BDD3F8B4302046E9
:10A590009847AEE76328CBBF0023C0F1640084F87E
:10A5A000653084F86500D8E71426012015260120BF
:10A5B00000E1F505F6F708BF81651C3011F0ECBE2F
:10A5C00030B587B0044604A8CDE9041202F0D2FCED
:10A5D000049BADF80C3006A9059B21F80A3D03A8A1
:10A5E00002F006FD94F86B10BDF80C20BDF80E309B
:10A5F00004F11C0089B1B4F860500093B4F85C1009
:10A6000013462A4611F0D8FE28B1BDF90C30E36597
:10A61000BDF90E30236607B030BD11F011FF0123E4
:10A6200084F86B30F1E770B5002B50D081EA02005E
:10A63000C60708D5013ACC18A14248D012F8010F3C
:10A6400001F8010BF8E7D50742BF12F8010B01F83A
:10A65000010B03F1FF33012B15D982EA01008407B6
:10A660002DD0941E0846CE1834F8025F20F8025B05
:10A67000351A012DF8D8981E20F00100023001444F
:10A68000024403F00103141F0846CE18351A032DA7
:10A6900010D89C08A0000144013802446FF0030068
:10A6A00000FB04340C44A14211D012F8013F01F820
:10A6B000013BF8E754F8045F40F8045BE6E79007D5
:10A6C000E1D032F8020B21F8020B023BDBE701205C
:10A6D00070BD10B590F86B30044653B1B0F86030DF
:10A6E000B0F85C2001211C3011F0AAFE002384F890
:10A6F0006B3010BD044B1B6893F876200AB1D86C00
:10A7000000B99868704700BF102601202DE9F0437A
:10A710000446806985B00F469046994630B91C4B77
:10A720001C4A4FF4A5711C4812F05CFE04AD0026D3
:10A7300045F8046D06680195BDF830500095356800
:10A74000A847164D0646A5F80090FFF7D3FF03680B
:10A750005B6A9847012812D006D30D280BD8104BFE
:10A760000C4A4FF4B471DEE72B8808FB0372039B9D
:10A77000A3EB4203E363304605B0BDE8F0832A88CB
:10A78000039B08FB027202EB42029A1AE263F2E7B1
:10A7900020330208D8350208653302080A26012052
:10A7A0008B330208F0B58BB0174604460E461D46A3
:10A7B000FFF7A0FF03685B6A9847CDE907000E4BDF
:10A7C00022681B8806939DF8503005939DF84C3005
:10A7D0000493BDF848300393BDF844300293BDF8AC
:10A7E0004030CDE900533146956B3B460022204670
:10A7F000A8470BB0F0BD00BF0A2601202DE9F043A9
:10A80000984603689D6B134B8BB01746B3F80090C6
:10A810000E460446FFF76EFF03685B6A9847022303
:10A82000CDE90693012305939DF854300493BDF8B8
:10A8300050300393BDF84C300293BDF84830089077
:10A84000CDE9008300223B4631462046A8470BB0A5
:10A85000BDE8F0830A2601202DE9F04398460368FD
:10A860005D6D0F4B87B0B3F800900E461746044657
:10A87000FFF740FF03685B6A98479DF840300293FA
:10A88000BDF83C300193BDF838300093CDE903901A
:10A8900043463A4631462046A84707B0BDE8F08314
:10A8A0000A2601202DE9F04F04468FB010460D46D0
:10A8B00091461E4605F0D2FE002800F0B3802368C2
:10A8C000DFF890B15B6ADFF890A15F4F20469847B0
:10A8D000236820469B6A9847BBF8003000930DF12F
:10A8E0003808BAF8003001933B8828F81C9D029381
:10A8F000564B04931A880392404605F069FF38804E
:10A90000404605F09FFF049B1880514B1B78002B9D
:10A9100040F08B803B88ABF80030AAF80000E36B76
:10A9200004934846276C05F099FEC4E90F00002205
:10A9300011462846B5F90490B5F906A0F8F71CFCB5
:10A94000012395F825B085F82530B6F90430002BA1
:10A9500071DDB6F90630002B6DDD2A460AAB52F8E0
:10A96000040F516803C331460AA8FFF7EBFB364BCF
:10A97000B3F90020ADF83420344B0AAA92E8030062
:10A98000B3F90030ADF8363008AB83E80300002699
:10A9900018460CA90C96FFF7D5FB07A806F0AAF8F5
:10A9A0008046FFF7A7FE0268526A9047804549D06B
:10A9B000E06C50B107A806F09DF80646E06C03680D
:10A9C0005B6A9847331A5842584184F8760000264B
:10A9D0002A686B696E610593926808A928469047BA
:10A9E000059B6B61524684F876604946284685F897
:10A9F00025B0F8F7C1FB049B009AC4E90F37154B4B
:10AA00001A80154B019A1A800F4B029A1A800F4B2D
:10AA1000039A1A80236820465B6A98472368204679
:10AA20009B6A98470FB0BDE8F08F3B88ABF80000F9
:10AA3000AAF8003073E72A460AAB52F8040F5168AF
:10AA400003C394E73046C0E7042601200626012010
:10AA5000082601200A2601200C26012010B5074BEC
:10AA60001B7804463BB10368DB6A9847E36B83427B
:10AA700001D1206C10BDE06BFCE700BF0E26012069
:10AA80002DE9F04788B01C464FF480630025BDF8DF
:10AA90004080BDF84470BDF84C900395CDE900317D
:10AAA000BDF84830ADF8148092460646ADF81670F1
:10AAB000ADF818308DF81C50FFF7D0FF09FB04A447
:10AAC00000EB44040494ADF81A908DF81E508DF8F4
:10AAD0001D50B8F1000F00D037B90D4B0D4A4FF49F
:10AAE00001710D4812F07EFC3368009C5B6B3046B0
:10AAF0009847204204D1094B064A40F20521F0E76D
:10AB00007068036869465B68984708B0BDE8F087DD
:10AB1000B33102081334020865330208EB3102082E
:10AB20002DE9F04F89B000241D464FF40063BDF8B5
:10AB30005090BDF84880BDF84C7003948A46934607
:10AB40000646CDE90034FFF789FF09FB05B500EBA8
:10AB500045050495ADF81480ADF81670ADF81840B1
:10AB6000ADF81A90CDF80CA0ADF81C408DF81E4041
:10AB7000B8F1000F00D037B90D4B0E4A40F2192141
:10AB80000D4812F02FFC3368009C5B6B30469847F1
:10AB9000204204D1094B074A40F21A21F0E77068BD
:10ABA000036869465B68984709B0BDE8F08F00BF4D
:10ABB000303202088934020865330208683202081C
:10ABC00010B50B4B1B7804465BB990F84830022B4C
:10ABD00007D0406800F054FB18B16268537A002B2C
:10ABE000FCD0F6F7E9FB2046FFF738FF10BD00BFA9
:10ABF0000E26012008B50D2917D8DFE801F00B0952
:10AC0000070D0D0D0D14141414140D0D202008BD86
:10AC10001820FCE71020FAE7054B064A064840F2E8
:10AC2000772112F0DFFB0820F1E70020EFE700BFFB
:10AC3000E1330208A23702086533020870B50D46F9
:10AC40009DF8141016461C46FFF7D4FFBDF81010EF
:10AC5000C01006FB015100FB014070BD2DE9F0471B
:10AC60008AB04FF0000C9DF86450BDF84C70BDF8F0
:10AC70005060BDF860909DF86880CDF814C00B2D31
:10AC800004469A469DF85C009DF8583029D18020F2
:10AC9000CDE9020104922046BDF85420ADF82020F1
:10ACA0008DF82430ADF81C70ADF81E60FFF7D6FEAD
:10ACB000CDE900980346BDF8482051462046FFF7ED
:10ACC000BDFFADF8229006908DF825508DF82680B6
:10ACD00007B1D6B9174B184A40F2CF11174812F0F6
:10ACE00081FB022D08D1FF2B04D1002814BF402086
:10ACF0002020CDE74020CBE7FF2B04D1002814BF54
:10AD000004200120C4E70420C2E72368029D5B6B96
:10AD100020469847284204D1094B074A4FF4E8716E
:10AD2000DCE76068036802A95B6898470AB0BDE881
:10AD3000F08700BFB33102083C36020865330208D1
:10AD4000EB3102082DE9F04F8BB09B469DF858700F
:10AD50009DF86050BDF85C80FF2F14BF08230223CC
:10AD60000026044689469246CDE902360596FFF74D
:10AD700075FECDE9008503465A4651462046FFF749
:10AD80005DFFBDF85030ADF81C30BDF85430ADF863
:10AD90001E30236806908DF825508DF82650ADF8AA
:10ADA0002060ADF82280CDF814908DF824705B6B94
:10ADB000029D20469847284206D1074B074A08487B
:10ADC00040F22E2112F00EFB6068036802A95B6856
:10ADD00098470BB0BDE8F08FEB3102080D37020841
:10ADE000653302082DE9F3411F460B4B0D46B3F8BE
:10ADF000008016460446FFF77DFC03685B6A9847AF
:10AE00003B46CDE90080324629462046FFF716FF33
:10AE100002B0BDE8F08100BF0A2601202DE9F04113
:10AE200088B0984600230393BDF84C30BDF83860D5
:10AE3000BDF83C50ADF81460CDE90031BDF84030AC
:10AE4000ADF818309DF848308DF81C301746044690
:10AE5000ADF81650FFF702FE42460346394620463B
:10AE6000FFF7C0FF164B04901B88ADF81A30FFF7B0
:10AE700041FC03685B6A98478DF81E008DF81D0041
:10AE800006B135B90F4B104A4FF4F6710F4812F066
:10AE9000A9FA2368009D5B6B20469847284204D19D
:10AEA0000B4B094A40F2ED11F0E7119B60680393E8
:10AEB000036869465B68984708B0BDE8F08100BF49
:10AEC0000A260120B3310208EE3402086533020875
:10AED000EB31020870B58AB06B4683E80600204B60
:10AEE0001B78044633B91F4B1F4A204840F23F21CC
:10AEF00012F078FA00230593012302930368BDF84A
:10AF00000050DB6ABDF80260984732462946034686
:10AF10002046FFF767FF636C0693BDF80430ADF879
:10AF20001C30BDF80630ADF81E30114B03901B8865
:10AF3000ADF82030ADF82230FFF7DCFB03685B6A28
:10AF40009847FF238DF825008DF8260060688DF85E
:10AF50002430036802A95B689847606C0AB070BD32
:10AF60000F260120B232020892350208653302082A
:10AF70000A260120F0B58BB06D4685E806001D4617
:10AF800000230593012302930368BDF80060DB6A88
:10AF9000BDF80270044698473A46314603462046BB
:10AFA000FFF720FFBDF80430ADF81C30BDF80630C7
:10AFB000ADF81E300E4B03901B88ADF82030109B6F
:10AFC000ADF822300695FFF795FB03685B6A98475A
:10AFD000FF238DF825008DF8260060688DF8243059
:10AFE000036802A95B68984728460BB0F0BD00BF14
:10AFF0000A26012070B590F86A3004469BB1022001
:10B00000F6F7F0F8002384F86A3084F86930236892
:10B010002046D3F8AC50FFF721FD2B4601462046D1
:10B02000BDE87040184770BD7047D0E90320131A7F
:10B03000584258417047D0E903239B1A002BDCBFCC
:10B0400082689B18012BCCBF002001207047026949
:10B05000406800EB4210704703681B69184770474F
:10B060007047704770B50123037204464068036857
:10B070009B6998470368402B054639D015D8042BA7
:10B0800022D008D8012B33D0022B08D123682046C8
:10B09000DB6B984725E0082B1ED0202B28D0174BC0
:10B0A000174A18488B2112F09DF9B3F5007F1FD085
:10B0B00004D8802B1CD0B3F5807FEFE7B3F5806F09
:10B0C00016D0B3F5006FE0E72368017F9B6B204645
:10B0D000984723681B6B06E02368017F9B6B204623
:10B0E000984723685B6B29462046BDE870401847A7
:10B0F00023682046DB6B9847EBE700BFEB3702087D
:10B10000AC3802081038020870B504460E46606874
:10B1100003685B6898470028F9D10D4D28680368DB
:10B120005B6F9847F6F756F928680121FFF77CFF17
:10B130006068036831469B68984723682046DB6A4D
:10B14000984728680368BDE870401B6F184700BF28
:10B150001026012008B5F6F72FF9BDE80840F6F7EC
:10B1600033B910B51421044611F0F0F9204610BD92
:10B1700010B50446406803681B68984748B9637A6D
:10B180003BB1237A2BB9236820465B6ABDE81040A7
:10B19000184710BD10B5D0E90342121B002ADCBFCE
:10B1A0008368D218012A18DD436801F11C0203EB01
:10B1B000441351F8044B43F8044B9142F9D10A88E7
:10B1C0001A808A789A70C3688268BFF35B8F0133F4
:10B1D0009A42D8BF9B1AC36010BD034B034A044870
:10B1E000392112F0FFF800BF36380208DC380208B7
:10B1F0001038020810B503681B680446984728B148
:10B20000074B084A08483F2112F0ECF82369A2686E
:10B21000BFF35B8F01339A42D8BF9B1A236110BDE5
:10B22000593802082A3902081038020870B5044655
:10B23000406803681B689847054630B9237A23B1F4
:10B24000606803685B6998472572606803681B68DB
:10B25000984728B9236820465B6ABDE870401847C4
:10B26000BDE87040F6F7BEB810B5044C826000220D
:10B27000C0E90041C0E9032210BD00BF90380208B8
:10B28000406803681B68184790F82C0070477047A7
:10B2900090F82C3033B10B79012B01BFC38D028E96
:10B2A000C285038611F02EB91388838600F04EBA4A
:10B2B00010B53821044611F049F9204610BD10B5EB
:10B2C0000446806A50B10368DB68984730B1A06AD1
:10B2D000036821469B68BDE81040184710BD002256
:10B2E000028042808280C280704770B50368044645
:10B2F000DB6A15469847236829462046DB6DBDE882
:10B30000704018477047000073B5818D4FF6FF738A
:10B31000994229D0154B1B682BB9154B154AAE2104
:10B32000154812F05FF8154A12888A4203D8144B68
:10B33000104AAF21F4E703EB410213F81100114B5F
:10B3400054781B6853F820502B68DE690E4B186840
:10B35000F8F70AFAC4F38104002302460093214659
:10B360002846B04702B070BD0020FBE760260120F0
:10B3700058290208443A0208E629020864260120F6
:10B380000F2A0208682601206C26012070B5036888
:10B39000828D1E6B114B1B6804468DB22BB9104B6E
:10B3A000104AAE21104812F01DF810490988914248
:10B3B00003D80F4B0B4AAF21F4E713F812200D4BC3
:10B3C0001B6853F822000368DB6A9847291A334642
:10B3D000204609B2BDE87040184700BF6026012032
:10B3E00058290208443A0208E62902086426012086
:10B3F0000F2A0208682601202DE9F047838D4FF6B9
:10B40000FF7293428CB0044688465FD0314E32685A
:10B410002AB9314B314AAE21314811F0E3FF314DA9
:10B420002988994203D8304B2C4AAF21F4E702EB2C
:10B43000430112F813202D4B1B6853F82220002AD9
:10B4400044D04B780792C3F3010AC3F381038DF80C
:10B450002130274B90F836C01B68B0F934E093F8E0
:10B46000762090F8389090F8377090F83910006B8B
:10B470008DF820A08DF822900990ADF828E08DF885
:10B480002AC08DF82B708DF82C100AB1DF6C07B92B
:10B490009F680DF114092146484602F0D0FF336839
:10B4A000002BB6D0A18D2B888B42BCD9114B1868CC
:10B4B000F8F75AF90023CDE9023307AB0190009366
:10B4C00099E8060043463846F8F700F90CB0BDE8A5
:10B4D000F08700BF6026012058290208443A02087C
:10B4E000E6290208642601200F2A020868260120A6
:10B4F000102601206C2601200EB42DE9F04F838D1B
:10B500004FF6FF7293429AB0054667D0DFF8E0A08D
:10B5100024AA0292DAF800202AB9314B314AAE212E
:10B52000314811F05FFFDFF8CC80B8F80010994285
:10B5300003D82E4B2B4AAF21F2E7DFF8BC9012F86C
:10B540001320D9F8003053F82240236820461B6BA3
:10B550009847074606B203A803F087FB23682046F6
:10B560005B6C9847236883469B6C204698475B46F4
:10B5700000902399029A03A803F0C4FBDAF8003084
:10B5800095F83910002BC8D0AA8DB8F80000904269
:10B59000CFD903EB420413F812006278D9F80030D7
:10B5A000B5F90840009453F82030C2F3810203A893
:10B5B00001F07EFAB5F93420B118002903B20BDD91
:10B5C000013B13FB02F317FB00331EB230461AB0E7
:10B5D000BDE8F04F03B07047002BF7DC0026F5E71D
:10B5E00058290208443A0208E62902080F2A0208EC
:10B5F00060260120642601206826012010B53C2128
:10B60000044610F0A3FF204610BD000070B5818DE8
:10B610004FF6FF73994204461ED00368DD6E0F4B50
:10B620001B682BB90E4B0F4AAE210F4811F0DAFE02
:10B630000E4B1B888B4203D80D4B0A4AAF21F4E70F
:10B640000C4B1868F8F790F800230146AC462046EA
:10B650001A46BDE870406047002070BD602601209A
:10B6600058290208443A0208E62902086426012003
:10B670000F2A02086C26012070B5036804465B6B34
:10B68000154698472368294620469B6BBDE87040C5
:10B69000184738B5828D4FF6FF739A42044614D08E
:10B6A00003689B6E9847236805465B6E2046984763
:10B6B00094F838302DB213F0FD0F014606BF024654
:10B6C00029462A462046FFF7D7FF38BD8A8882855B
:10B6D000B0F9082022B9B0F90A300BB9FFF7D9BF89
:10B6E000704700238380C3800380438091F8263015
:10B6F000FF2B01BF0B8983804B89C38070470000FB
:10B7000037B50446086849686B4603C32368694631
:10B710009B6A20469847084B1B6893F876200AB12D
:10B72000D86C00B998680368A26A9D6994F82630BD
:10B730006946A84703B030BD10260120704710B5F8
:10B740002C21044610F002FF204610BD70B50B8876
:10B75000C3850546138825F8303F0446284605F082
:10B7600037F80646284605F06DF82368054631B2DD
:10B7700020465B6B9847236829B220469B6BBDE847
:10B780007040184710B591F83230FF2B044606D0B0
:10B790000023038043808380C380204610BD91F83E
:10B7A0002C301BB1303105F087F8F6E72E31FAE77F
:10B7B0002DE9F04190F82C308AB004468846002BE1
:10B7C00044D0038EADF8143005A805F001F8054605
:10B7D00006B205A805F036F8B8F90020B8F80470EC
:10B7E0001744BFB200230FFA87FE9E450FFA80FC74
:10B7F00006932DDD96422BDDB8F90230B8F806101D
:10B80000194489B20FFA81F8B8F1000F20DD9C4588
:10B810001EDD22EAE27223EAE3737645A8BF3D46C5
:10B82000C445A8BF0846AD1AC01AADF81C50ADF803
:10B830001E00ADF81820ADF81A301F4B1B6853B925
:10B840001E4B1F4A1F48872111F0CCFDC38DB9E75D
:10B8500000230793F1E7BDF814204FF6FF739A42D7
:10B8600026D0BDF91C30002B22DDBDF91E30002B87
:10B870001EDD0023CDE90833236808A99B6A204612
:10B880009847114B1B6893F876200AB1D86C00B921
:10B8900098680168BDF92230BDF920200125029584
:10B8A00094F83240019406AC00948C6805A9A04736
:10B8B0000AB0BDE8F08100BF98260120D83A0208FE
:10B8C0003A3B0208143B0208102601207047000092
:10B8D000F7B5818D4FF6FF73994206462AD0164B75
:10B8E0001B682BB9154B164AAE21164811F07AFD8C
:10B8F000154A12888A4203D8144B114AAF21F4E743
:10B9000003EB410213F81100114B54781B6853F8F4
:10B9100020502B68DF690F4B1868F7F725FFC4F339
:10B920008104002300930246F36B21462846B84762
:10B9300003B0F0BD0020FBE7602601205829020873
:10B94000E83B0208E6290208642601200F2A0208C3
:10B95000682601206C26012070B5818D4FF6FF739B
:10B96000994204461ED00368DD6E0F4B1B682BB94D
:10B970000E4B0F4AAE210F4811F034FD0E4B1B88C1
:10B980008B4203D80D4B0A4AAF21F4E70C4B1868E1
:10B99000F7F7EAFEE26B0146AC4620460023BDE81D
:10B9A00070406047002070BD6026012058290208C1
:10B9B000E83B0208E6290208642601200F2A020853
:10B9C0006C26012010B54021044610F0BFFD204632
:10B9D00010BD00002DE9F047838D4FF6FF729342B2
:10B9E0008CB004460E465DD0DFF8DC80D8F800202D
:10B9F0002AB92E4B2E4AAE212E4811F0F3FC2E4FC1
:10BA00003988994203D82D4B294AAF21F4E702EB3C
:10BA1000430112F813202A4B1B6853F82220002AF6
:10BA200040D04B7890F836C090F83910B0F934E037
:10BA300090F8389090F83750006B0792C3F3010AE2
:10BA4000C3F381038DF821308DF82290ADF828E002
:10BA50008DF82AC08DF82B508DF82C108DF820A071
:10BA60000990FEF747FE05AD81462146284602F0C3
:10BA7000E6FCD8F80030002BBBD0A18D3B888B4270
:10BA8000C1D9104B1868F7F76FFE00230393E36BDF
:10BA9000CDE9010307AB009395E80600334648461D
:10BAA000F7F714FE0CB0BDE8F08700BF5829020874
:10BAB000E83B0208E6290208642601200F2A020852
:10BAC000682601206C26012060260120014B1960A8
:10BAD000704700BF182601202DE9F04F9646054615
:10BAE00014460E461F46BEE80F0097B00DF11C0C21
:10BAF000ACE80F00DEF80030CCF8003004F1140E92
:10BB0000BEE80F000DF1300CACE80F00DEF800309D
:10BB1000CCF8003004F1280EBEE80F000DF1440C03
:10BB2000ACE80F009DF88C90BDF890A0BDF888801F
:10BB3000DEF80030CCF80030219A2B680192CDE974
:10BB4000039A209A0092CDF80880D3F830B007AA63
:10BB50003B4631462846D847A646BEE80F000DF1C1
:10BB60001C0CACE80F00DEF80030CCF8003004F11B
:10BB7000280EBEE80F000DF1300CACE80F003C348D
:10BB8000DEF80030CCF800300FCC0DF1440CACE8FE
:10BB90000F002368CCF800302B68CDE9039A219A76
:10BBA0000192209A0092CDF808801C6B07AA3B46B0
:10BBB00031462846A04717B0BDE8F08F2DE9F04F79
:10BBC0008DB088461699D3F800C00F68BDF8704054
:10BBD00092ED094AD2ED0B4AD3ED076A1899DDF8C8
:10BBE00064A0B1F90090BAF90010D3ED0A1A93EDF0
:10BBF0000D2AA7EB0C07BC42A8BF3C4607EE904AB3
:10BC0000B8EEE75AD2ED0D7A25EE044A65EE244AE5
:10BC100025EE275AF7EE007A87EEA67A09EB0C0E8E
:10BC2000714571EEA40A32EE051A36EE840A61EE11
:10BC3000871A22EE072A40F38D80A1EB0E0696FBB1
:10BC4000F4F507EE105AB8EEC77A002D04FB15661E
:10BC5000A7EE040AE7EE240AA7EE051A13DD70EE3C
:10BC6000446A70EEE41AF5EE406AF1EE10FA18BF7D
:10BC700087EEA67A31EE452A08BFB0EE677A61EE0C
:10BC8000871A22EE072A05FB04F2BF1A9444BAF879
:10BC90000420114409EB0C023A4409B28A42C4BFA1
:10BCA000A1EB0902A2EB0C07002F50DD97FBF4F18A
:10BCB00004FB11720AB901392246C7EE803A406886
:10BCC0000B90D0F800A0179808909DF86CB01898C9
:10BCD000CDF824B0B0F902B05B690B985B44F0EE8C
:10BCE000426A60EEA32A21EE233A72EEE17AFEEE7A
:10BCF000C86AFEEEC87A079317EE907A73EE427A1E
:10BD0000B0EE617AFEEEC87A16EE903A97FBF4F741
:10BD100017EE90CABEEEC87A9CFBF4FC0CFB06330F
:10BD2000029317EE103AB64404FB05E5CDE9037C17
:10BD300007FB0637CDE90585CDE900470029CCBFD3
:10BD4000A1469146A9EB0603DAF80840A0470DB0DA
:10BD5000BDE8F08F00252E4699E700002DE9F04F51
:10BD6000DBB01D46BDF898310A939DF89C310B93CA
:10BD7000BDF8A031109303680F919F6B0990144692
:10BD80002946DDE90A23DDF894B1B847099B5860DC
:10BD9000002800F0A1832B6814936B681593C44BA3
:10BDA00094ED027A1978D5E90223F2EE047A00299B
:10BDB000B4EEE77A16BF194611461346F1EE10FAB3
:10BDC0001691CDE9173240F2878394ED077AB4EEED
:10BDD000E77AF1EE10FA40F27F8394ED0C7AB4EE3C
:10BDE000E77AF1EE10FA40F277832268B14B9A427B
:10BDF000C0F27283B04963698A4200F36D8303F530
:10BE00001C33AE48FF33834200F26683A36AAC4D15
:10BE100003F51C33FF33AB4200F25E83626802F528
:10BE20001C33FF33834200F25783A16901F51C33B1
:10BE3000FF33834200F25083E36A03F51C30FF3086
:10BE4000A84200F249838A4280F210819A4200F3AC
:10BE50001981994280F21D8102250127A946B84621
:10BE60004FF0000A214649A803F0C2FC224653467F
:10BE700049A9CDF8009019A803F0EAFD22465346DF
:10BE800049A9CDF8008029A803F0E2FD43462246E7
:10BE900049A9CDF8009039A803F0DAFDAF42B5BF4B
:10BEA000002301230E930E930F9B93E8030012AF20
:10BEB000B9BF29AD19AC19AD29AC87E8030028B981
:10BEC000804B186803685B6A98473860649BBBF8CE
:10BED0000600B3F902300C930C9963692F9A0B4456
:10BEE000BBF90210084400B283420D9080F2DD805D
:10BEF0008B4208DA002A06DDCB1A9A42C0F2E480AF
:10BF0000002B00F3E28067690C9B3B441F460D9BAE
:10BF1000DF1B9742A8BF17460DF15008002F40F3D2
:10BF20006681649B2968B3F90020BBF90030206862
:10BF3000114499421ADDBBF804100B4402441BB2B1
:10BF40009A4213DC099B109A1B6806920B9A059281
:10BF50000A9A0095CDE903B2649A0998CDE9018265
:10BF600012A9D3F83C9049AA2346C847D4E9002334
:10BF70001A44636994ED0A7AD4ED0B7AD4ED0E6A13
:10BF8000A16894ED086A226001336361A36937EE0A
:10BF9000277A013BD4ED0D7AA361236984ED0A7AF7
:10BFA00077EEA67AD4ED076AC4ED0D7A0B44E1680A
:10BFB000236176EE866A8B42C4ED076A15DB94ED49
:10BFC000096A76EE266A0132C4ED076AD4ED0C6A7E
:10BFD000226036EE877A5B1A84ED0A7A94ED0F7A46
:10BFE000236177EE277AC4ED0D7AD5E900231A4450
:10BFF0006B6995ED0A7AD5ED0B7AD5ED0E6AA968D5
:10C0000095ED086A2A6001336B61AB6937EE277AD8
:10C01000013BD5ED0D7AAB612B6985ED0A7A77EEA0
:10C02000A67AD5ED076AC5ED0D7A0B44E9682B6158
:10C0300076EE866A8B42C5ED076A15DB95ED096AD7
:10C0400076EE266A0132C5ED076AD5ED0C6A2A60E4
:10C0500036EE877A5B1A85ED0A7A95ED0F7A2B61B9
:10C0600077EE277AC5ED0D7A013F57E7994213DC49
:10C070009A4214DA02250327A9464FF000084FF030
:10C08000010AEFE601250027A946B8464FF0020A4B
:10C09000E8E601250227E1E600250127F4E702276B
:10C0A00003254FF00009B846E9E7134628E700BF2B
:10C0B00008260120018FFDFF00710200FFE104004E
:10C0C000FEE104001026012013462B991191DDE9B1
:10C0D000290ADDE92C812E9FDDED344A9DED337A6E
:10C0E0009DED374ADDED367ADDED313ADDED306A32
:10C0F0009DED325ADDED355A9DED386A9E469C46DF
:10C100004FF00009BCF1000F47D103EB070CD71A21
:10C11000B9F1000F09D0CDE92EC729908DED337A02
:10C12000CDED367ACDED306A2D911B991191DDE977
:10C13000190ADDE91EC7DDE91C91DDED244ADDEDBC
:10C14000236A9DED274A9DED267ADDED213ADDED4E
:10C15000207A9DED225ADDED255A9DED286A4FF09B
:10C160000008BEF1000F31D0119E314449455044C2
:10C1700076EEA46A37EE047A77EEA37A08DB77EEE0
:10C18000857A76EEA56A37EE067A0130A1EB0901D1
:10C190000EF1FF3E4FF00108E3E7119E31444145A7
:10C1A000504437EE247A77EE847A76EEA36A08DB81
:10C1B00076EE856A37EE257A77EE867A0130A1EB46
:10C1C00008010CF1FF3C4FF001099BE79C44FF1A6A
:10C1D000B8F1000F09D0CDE91EC71990CDED236A43
:10C1E0008DED267ACDED207A1D91D21A8BE60E9B2D
:10C1F0003F9A002B00F0D18019AD39AC649BBBF89D
:10C200000600B3F902300C930C9963690B44BBF937
:10C210000210084400B283420D9080F2C1808B422C
:10C2200008DA002A06DDCB1A9A42C0F2BB80002B46
:10C2300000F3B98067690C9B3B441F460D9BDF1BD5
:10C240009742A8BF17460DF15008002F40F33C81DC
:10C25000649B2968B3F90020BBF9003020681144C1
:10C2600099421ADDBBF804100B4402441BB29A42F7
:10C2700013DC099B109A1B6806920B9A05920A9A86
:10C280000095CDE903B2649A0998CDE9018212A91B
:10C29000D3F83C9049AA2346C847D4E900231A445E
:10C2A000636994ED0A7AD4ED0B7AD4ED0E6AA16835
:10C2B00094ED086A226001336361A36937EE277A3F
:10C2C000013BD4ED0D7AA361236984ED0A7A77EE00
:10C2D000A67AD4ED076AC4ED0D7A0B44E1682361B8
:10C2E00076EE866A8B42C4ED076A15DB94ED096A27
:10C2F00076EE266A0132C4ED076AD4ED0C6A22603C
:10C3000036EE877A5B1A84ED0A7A94ED0F7A236110
:10C3100077EE277AC4ED0D7AD5E900231A446B69CC
:10C3200095ED0A7AD5ED0B7AD5ED0E6AA96895EDF3
:10C33000086A2A6001336B61AB6937EE277A013BEB
:10C34000D5ED0D7AAB612B6985ED0A7A77EEA67A89
:10C35000D5ED076AC5ED0D7A0B44E9682B6176EEE1
:10C36000866A8B42C5ED076A15DB95ED096A76EEA4
:10C37000266A0132C5ED076AD5ED0C6A2A6036EEF1
:10C38000877A5B1A85ED0A7A95ED0F7A2B6177EE45
:10C39000277AC5ED0D7A013F57E739AD19AC2DE786
:10C3A000134644E71346DDE9390A3B9EDDF8F8C041
:10C3B0009DED437ADDED444ADDED467A9DED474A39
:10C3C000DDED406ADDED413A3D99DDF8F0809DED0F
:10C3D000425ADDED455A9DED486A0E969E461F462F
:10C3E0004FF00009002F46D19C44D71AB9F1000F35
:10C3F00009D0CDE93EC739903D91CDED406A8DED34
:10C40000437ACDED467A1B990E91DDE9190ADDE9F3
:10C410001EC7DDE91C91DDED244ADDED236A9DEDAB
:10C42000274A9DED267ADDED213ADDED207A9DED5E
:10C43000225ADDED255A9DED286A4FF00008BEF125
:10C44000000F30D00E9E31444945504476EEA46A28
:10C4500037EE047A77EEA37A08DB77EE857A76EE0C
:10C46000A56A37EE067A0130A1EB09010EF1FF3E15
:10C470004FF00108E3E70E9E31444145504437EE4A
:10C48000247A77EE847A76EEA36A08DB76EE856A04
:10C4900037EE257A77EE867A0130A1EB0801013F6D
:10C4A0004FF001099EE79C44FF1AB8F1000F09D034
:10C4B000CDE91EC71990CDED236A8DED267ACDED1D
:10C4C000207A1D91D21AB5E60F9B1B6823B9044B45
:10C4D000186803689B6A98475BB0BDE8F08F00BF9F
:10C4E0001026012070B504460025237204989DF89B
:10C4F0001430258061606372E06022826582A582CB
:10C50000E58225836583A583A57703685B699847E2
:10C510000646F8B1E06803683146DB689847437B1C
:10C52000827A5B0003F480731343A383637A042B42
:10C5300005460FD1E06803682A46DB6B3146984711
:10C540006B7B5B0003F48072AB7A13431844A38BBC
:10C550001844A083204670BD2DE9F04F002485B01B
:10C560008146884692469B462746254626465445A0
:10C570002ADA002303934FF6FF639D4204D042F270
:10C580000B039D4218BF2F4603AB4246594648460F
:10C5900002F0B4FE0546B8B10A2815D0039A8AB154
:10C5A000507B937A9588400000F480700343019398
:10C5B000D8F800303946DB6B40469847019B184459
:10C5C0000644B6B20134D2E7304605B0BDE8F08F7C
:10C5D000022A30B511D0032A1CD0012A0CD18B8835
:10C5E000B0F904200188448804809B1A5B1AB0F9D2
:10C5F000061043808180C28030BDCB88C2889B1AE0
:10C6000042889B1A8A8881884380521A0188521A6C
:10C610000280F1E7CB88B0F906204188B0F90050DC
:10C62000B0F9044045809B1A5B1A03808280C48065
:10C63000E2E72DE9F04F9FB0169117932999299BB6
:10C6400009889B88DDF8A88012920B441BB21093D6
:10C65000D8F800309DF8B820597A1B7A1593289B9A
:10C6600011909DF8ACB01491B3F90050002A67D036
:10C6700098F810302D9A042B14BF01230223134481
:10C680004FF000090F93CDF838904C46CDF8349018
:10C69000DDE90E32934280F28C8000231C934FF62A
:10C6A000FF639C4206D00D9B42F20B02944218BFDE
:10C6B00023460D930E9B2D99D8F800208B4241DB29
:10C6C000136810465B6998470446D8F80000036871
:10C6D0001DAA9E6821460DF16F03B0471C904FF6CE
:10C6E000FF639C4200F0E98042F20B039C4200F0A1
:10C6F000E480002C00F0F6800A2C60D01C9A6AB30B
:10C700009488BBF1000F3BD092F80D904FEA490995
:10C7100009F4807392F80A90BBF1010F49EA03090A
:10C7200034D10D9BA5EB0905002B4FD1149A09EBD1
:10C7300005031344299AB2F90020934251DA38E0F4
:10C740002D9B9DE70DF16F0301931DAB009359469F
:10C750001CAB2C9802F02AFE0446C0E7D8F8000073
:10C7600003681B6998474FF6FF63984200F0A58065
:10C7700042F20B03984200F0A080BBF1000F00D101
:10C780004D441C9A002ABFD1914696E00D9B002B88
:10C7900000F0AA80BBF1000F18D1D8F800000D9965
:10C7A0000368DB6B98470544159B109AEB1A93427C
:10C7B00017DD002C00F096800A2C40F084800A24BB
:10C7C000B4FA84F040091FB0BDE8F08FD8F800003B
:10C7D0000D990368DB6B9847BBF1010FA5EB0005D2
:10C7E000A4D01C98299B90F90910B3F90060437BF1
:10C7F0005B0103F480728379294413430B44B342F1
:10C800005BDB109B994258DAD8F800000368AE420F
:10C81000C8BF761BDB6ACCBFB6B2002698471C9B0C
:10C820005A7BD10001F48077197A39435706179F54
:10C8300044BFA1F5007109B2C7197F1A2999BFB287
:10C84000B1F902100FFA87FA51453ADD1201D87991
:10C8500002F480720243924451452EDCCF1BBFB2DA
:10C860008A461993119BD8F800001A680168136C66
:10C870001D9A13931892896B884798F806100B91AC
:10C8800098F80E100A919DF86F100991199BD8F82D
:10C8900008100593299B189A0692CDE90701CDE966
:10C8A0000373CDE901A62E4436B2129B00961A6896
:10C8B00016995B681198139EB0470E9B01330E9337
:10C8C000E6E60027CDE70E9D2D9B01359D42BFF684
:10C8D00077AF59462C98F6F7B5FE044610B10A28F2
:10C8E000F2D16CE700246BE7BBF1000F3FF45CAFC3
:10C8F00077E730B5448AC58AC3822C44E41A44825F
:10C90000038B848A22440C44591A42838482018313
:10C9100030BD2DE9F04F437ADA1E87B00446D2B21B
:10C920000F46002936D0012A32D9581ED0F1000B0B
:10C930004BEB000B991E4B424B4103930023CDE977
:10C94000013300256582A582A94642F20B0A002325
:10C9500005932388202B2BD0A3EB0A025642564185
:10C960004FF6FF62934204D0534516BF9946012605
:10C97000002605ABE268217A606802F0BFFC2080E7
:10C98000C8B9228B002311462046FFF7B2FF66E0AC
:10C990008B46CFE7013B012A8CBF00220122012BED
:10C9A0008CBF002301230292019303918B46C8E7B9
:10C9B00099460126DDE7E38A0A2803F10103E382B1
:10C9C000DFD0059A42BB4FF6FF63984201D0504535
:10C9D000BDD12388218B202B01D0534531D1002E8E
:10C9E0000ABF0D46304601200A44A38AB4F810C09D
:10C9F00092B222831344002F3AD0BBF1000F02D130
:10CA0000039901B3F8B1A18B19448C452ADA618AE4
:10CA100041B363459BDD1CE09388238092F80D8031
:10CA20004FEA480808F4807092F80A8048EA000843
:10CA3000E06803684946DB6B984708EB000292B256
:10CA4000C7E70020D0E7634581DD638A002B3FF410
:10CA50007EAF0123A377A28B638B1344638307B05C
:10CA6000BDE8F08F002311462046FFF742FF6EE736
:10CA7000634514DD029B13B101230A4683E7019B42
:10CA8000002B3FF464AF00287FF461AF16B101239F
:10CA90002A4679E7638A002B3FF459AFDFE7002885
:10CAA0007FF455AF002E3FF452AF01232A46DBE757
:10CAB00030B505468BB091B1CDE900311346014642
:10CAC000BDF8382002A8FFF70DFD0124002102A8BF
:10CAD000FFF71FFFBDF8083063B10134F6E702F03D
:10CAE00005FD01240A28284608BF013402F0FEFC97
:10CAF0000028F7D1A0B20BB030BD2DE9F04FDFB068
:10CB00008946DDF8A0A10A901C46BAF1000F00F09A
:10CB1000B1801B68002B00F0AD80A37B002B00F0E0
:10CB2000A98010685168B9F90420ADF840200DF1D2
:10CB30003408434603C30025B9F90630A279ADF89D
:10CB400042300FA940460F95FFF742FD0FA9084656
:10CB5000A27919AFFFF73CFD384602F086F820684D
:10CB600003685B6C98470646206803689B6C98478F
:10CB700033460090699A5146384602F0C3F820685F
:10CB80002379089303681B6B9847B4F90C301E187F
:10CB9000AE4206DDB8F902208242A4BF9D1895FB83
:10CBA000F6F530A802F061F8237C7BB120680368B9
:10CBB0005B6C98478346206803689B6C98475B468C
:10CBC0000090699A514630A802F09CF8217C0191AE
:10CBD000216863790091BDF8402030A911A8FFF7C2
:10CBE00081FC237CBBB91FFA86FA002D45DD38464F
:10CBF00002F07CFC00283DD00A28F6D1BDF83E307A
:10CC00005344ADF83E30BDF84230A3EB0A03013D7A
:10CC1000ADF84230E9E7730009934FF6FF7B1FFA46
:10CC200086FA002D29DDBDF94210099B8B42D4BF45
:10CC30000021012111A8FFF76CFEBDF85630013B21
:10CC40009BB25B450B9305D061793846F6F7FAFC49
:10CC50000B9BF4E7BDF83E305344ADF83E30BDF8D1
:10CC60004230A3EB0A03ADF84230BDF84430013D39
:10CC7000002BD6D15FB0BDE8F08F4FEA460A47AD32
:10CC80004FF0000B237C002B67D0BDF942108A4582
:10CC9000D4BF0021012111A8FFF73BFE089B002B08
:10CCA00056D0237C09935C223946284610F018FCA4
:10CCB000099B002B59D0BDF95E302279012A3DD164
:10CCC000BDF94000C01A022390FBF3F000B2BDF89A
:10CCD0003C301844237CADF81C01002B3AD0BDF841
:10CCE00056209DF86210BDF93E300095CDE9052132
:10CCF000CDE903B7CDE901844A4600210A98FFF740
:10CD000098FC0028B6D1BDF83E30B2B211461344AB
:10CD1000BDF84220521A217C1BB212B2ADF83E304F
:10CD2000ADF8422009B1B242A4DBB8F80620B8F849
:10CD300002100A4412B29342A4DD9BE7022A05D1F5
:10CD4000E27BBDF84000801AC01ABFE70020BEE7B2
:10CD5000E07BBCE747F6FF72C3E7089B002BF7D0E8
:10CD60005C223946284610F0BBFB002347F6FF72D1
:10CD700021682846FFF7F0FB03B29EE710B5022BAF
:10CD8000B0F900400BD0032B0ED0012B01D060185E
:10CD900010BD8088204400B2801A0138F8E78088EE
:10CDA000204400B2401AF8E7A018F1E710B5022BB2
:10CDB000B0F9024006D0032B0AD0012B14BFA018F3
:10CDC000601810BDC088204400B2801A0138F8E70E
:10CDD000C088204400B2401AF8E70000014B00224E
:10CDE0001A607047182601200346C8B1020C1204CD
:10CDF000A2B90304102013F07F4F04BF1B020830B8
:10CE000013F0704F04BF1B01043013F0404F04BFF8
:10CE10009B000230002B04DB013070470020EAE762
:10CE2000202070472DE9F04F87B081469846104684
:10CE3000DDE910470D4681B94BB10B46CDE90047FE
:10CE40004A464146FFF7EEFF07B0BDE8F08F4FF0CE
:10CE5000FF333B606FF00040F6E732FA01FA07D18A
:10CE600009FB02F6B6FBF4F004FB10663E60EBE74C
:10CE700001268E40013E164009FA01FB3046BBFBFD
:10CE8000F4F302930AFB03F30393FFF7ADFF4A4663
:10CE90000B46CDE9004701463046FFF7C3FF029B32
:10CEA00004FB13BB0646584605EB0801FFF79CFF41
:10CEB00005ABCDE900435A4603465046FFF7B2FFA3
:10CEC0003968059A039B1144B1FBF4F2D3181E4450
:10CED00004FB121430443C60B6E72DE9F04385B002
:10CEE000B0F100090C9C1D46BFBF23685B42C9F12D
:10CEF00000092360B4BF4FF0FF360126002A174611
:10CF000004DA23685B42574276422360002D38469C
:10CF1000BABF6D424FF0FF384FF00108FFF764FFD2
:10CF200003ABCDE900533A4603464846FFF77AFF84
:10CF30002368039A46451A4492FBF5F3184418BF38
:10CF4000404205FB1323721C236005D1002BC3F163
:10CF500000020BDB226006E0012E04D1002B02DA76
:10CF60002B440138236005B0BDE8F0830138521B23
:10CF7000F0E700002DE9FF411C4C0768A369054656
:10CF80002BB94068C5E9007004B0BDE8F081A26823
:10CF9000206804AE4FF0020893FBF8F10A4446F80B
:10CFA000042DE16900963A46FFF797FFA3696A6886
:10CFB000216A009607466068FFF78FFF6269A369E0
:10CFC00093FBF8F842440392616A2A68009607448A
:10CFD000E068FFF782FF00968046A3696A68A16A4D
:10CFE0002069FFF77AFF4044CCE700BF1C260120F0
:10CFF00010B5074B1B78012B08D1064B0C881B88FA
:10D00000B0F90020013B1B1B03800A8010BD00BF4C
:10D01000082601200C26012010B50A4B1B78012B95
:10D020000ED1B0F906104388B0F900404480CA1808
:10D03000054B1B889B1A0380B0F90430C3808180A4
:10D0400010BD00BF082601200426012010B5074BA3
:10D050001B78012B08D1B1F90030B0F900400380F2
:10D060009388013B1B1B0B8010BD00BF08260120CD
:10D0700013B5084BB3F90020074BADF80420B3F902
:10D080000030ADF8063000246A460094FFF7DEFF5A
:10D0900002B010BD042601200626012010B50A4B5F
:10D0A0001B78012B0A460DD1818803880B44014669
:10D0B000013B21F8023BFFF7C9FFB0F90430C288F9
:10D0C0008280C38010BD00BF0826012007B5094B30
:10D0D000B3F90020084BADF804200021B3F900306B
:10D0E00000916946ADF80630FFF7D8FF03B05DF850
:10D0F00004FB00BF0426012006260120064BB3F9DD
:10D100000020064BA0F83021B3F90030A0F83231EE
:10D110000021C0F82C1170470426012006260120AA
:10D12000034B186810B103689B691847704700BF2C
:10D130004C2601207047000007B5094BB3F90020C9
:10D14000084BADF80420B3F90030ADF806300368A1
:10D15000002100915B6B6946984703B05DF804FBC2
:10D160000426012006260120034B186810B103682D
:10D17000DB691847704700BF4C260120034B186835
:10D1800010B103681B6A1847704700BF4C26012086
:10D19000034B186810B103689B6A1847704700BFBB
:10D1A0004C26012070B5344D0446286840B1037AFE
:10D1B00033B984F8353103689B68BDE8704018477F
:10D1C00094F835317BB970B1037A63B12B4B186891
:10D1D00010B103681B69984728680368DB689847A3
:10D1E000012384F835310025B4F88400A8420CDD11
:10D1F000631993F8882032B105EB4502134458684F
:10D200000368DB6C98470135EEE700231A46984225
:10D2100014D1251DB4F88410481E80B2914224DD3B
:10D220008842FBD204EB8003043305EB81018B427F
:10D2300018D053F8046F43F8046CF8E7E11891F83C
:10D2400088506DB19A420AD003EB430631444E68D0
:10D2500091B204EB81014E60A11881F8885001322F
:10D260000133D4E7A4F88400D4E7044B186810B164
:10D2700003685B6AA1E770BD502601204C2601209F
:10D28000704710B54FF49C7104460FF05FF92046CB
:10D2900010BD000070B506460C4629B90C4B0D4A6E
:10D2A0000D48672110F09EF80C4D0023A0F8843043
:10D2B000286810B103685B6998472C602368204692
:10D2C000DB689847336830461B6BBDE870401847F1
:10D2D000163C0208E83C0208203C02084C260120CB
:10D2E00010B5B1F900408A88B0F90030224412B27A
:10D2F000934215DA828813441BB29C4210DAB1F9CA
:10D300000230C988B0F90220194409B28A4207DA0A
:10D31000C088104400B28342ACBF0020012010BD81
:10D320000020FCE770B5B1F90040B0F90050AC4204
:10D3300018DBB1F90220B0F902309A4212DB86887C
:10D3400035448E8834442DB224B2A5420ADBC0880D
:10D350001844CB881A4400B212B29042B4BF0020E5
:10D36000012070BD0020FCE7F8B5044608460D46D4
:10D37000FCF72BFF78B92046FCF727FFB5F90060D2
:10D3800050B12680B5F902306380B5F90430A3802E
:10D39000B5F90630E380F8BDB4F90010B5F9022004
:10D3A000B4F90230B5F804C0ED88B1420F46A8BF09
:10D3B0003746934218466644A8BF1046B4F804C0E6
:10D3C00027802A44E588608061442B4436B209B244
:10D3D00012B21BB28E42ACBFC7EB0601C7EB010114
:10D3E0009A42ACBFC0EB0202C0EB0302A180E28014
:10D3F000D1E70000014B1868704700BF5C26012090
:10D400000023A0F8843000F18802A83002F8013B24
:10D410008242FBD17047034600F1400100221A808E
:10D420005A809A80DA8008338B42F8D1A0F84020E5
:10D430007047000070B51A4B036000250446A0F841
:10D440008450A830FFF7E7FF04F1EA00FFF7E3FF9D
:10D45000A4F82C51A4F82E51A4F83051A4F832515C
:10D4600084F8345184F835510E490F480F4E0EF0B0
:10D4700041FF0F4B58B11D800E4A002313600E4A26
:10D48000336020461360FFF7BBFF204670BD4FF4AA
:10D49000806202201A80306001F09CFAECE700BF45
:10D4A000AC3C0208CDB5E8B5C2A507F44C26012076
:10D4B000980000205C26012050260120B0F8403062
:10D4C0008B4210B50ED9013B9BB28B42A0F8403085
:10D4D00008D900EBC30300EBC1041A6840F83120FF
:10D4E0005A68626010BD000037B56B4683E80600DD
:10D4F000B0F84020072A044606D9094B094A0A48D1
:10D500004FF4C0710FF06EFF511CA0F8401000EBFB
:10D51000C20503CB44F83200696003B030BD00BFE0
:10D520004A3C02082C3D0208793C02082DE9F04FE4
:10D530008DB008AC8346204684E80600FCF745FE23
:10D5400000286AD10294BBF8E8500BF1A8030BEB5A
:10D55000C50600240193A036A5420DD0A6EBC40158
:10D560000298FFF7DFFE28B1691E091B89B20198F6
:10D57000FFF7A4FF0134EFE7BBF8E87003977B1EC9
:10D5800000930BEBC70A0024554604972646049BDC
:10D59000002B78D0029905F1A000FFF7A1FE60B33F
:10D5A000BDF920E0B5F9A0C0BDF92290B5F9A2807F
:10D5B000E64535DBBDF82420B5F8A4307244634459
:10D5C00012B21BB29A422BDCB5F8A630BDF8261079
:10D5D0001FFA88F213449BB2C1450FFA83FE1FFA6B
:10D5E00089FC0FDBA3EB0C03C91A09B20029ADF8C3
:10D5F000261012DDADF822E00446049B013B0493A3
:10D60000083DC4E7614409B271453ADCA2EB0C0263
:10D6100012B2ADF82620002AEEDC0DB0BDE8F08F86
:10D62000C1452EDBBDF826309944B5F8A6309844A4
:10D630000FFA89F90FFA88F8C14522DCB5F8A43051
:10D64000BDF824101FFA8CF213449BB2E6451FFA72
:10D650008EF80FFA83F90ADBA3EB0803C91A09B2A3
:10D660000029ADF82410D8DDADF82090C4E741447E
:10D6700009B2494505DCA2EB080212B2ADF824203C
:10D68000C9E70646B9E7002C7FF47DAF002E00F015
:10D69000DD81BDF92270BDF92060BDF82420B9B24A
:10D6A00004910498BDF826100144B3B289B21A441B
:10D6B000059192B2BDF914900FFA82F85546CDE962
:10D6C0000623039B002B54D0029905F1A000FFF71D
:10D6D00007FEDDE90623D8B1B5F9A0E0B5F9A2103F
:10D6E000764526DCB5F8A4C0F4440FFA8CFCE0457E
:10D6F0001FDB8F421FFA81FCB5F8A6100FDC0598DE
:10D70000A5F8A290A0EB0C0CA1EB0C01A5F8A610BB
:10D710002046039901390391083D0446CFE761444F
:10D7200009B24945F5DC0499A1EB0C0CA5F8A6C09B
:10D73000EEE78F42EDDCB5F8A6C0614409B2894539
:10D74000E7DB76451FFA8EFCB5F8A41008DCA2EBE7
:10D750000C0CA1EB0C01A5F8A080A5F8A410D7E74C
:10D76000614409B28845D4DBA3EB0C0CA5F8A4C036
:10D77000CEE7002C00F06A81009B013300F0668147
:10D780000AF1A00421460298FFF7CCFD20B1BDF8B4
:10D7900000100198FFF792FE02992046FFF7A0FDC6
:10D7A000002800F09B80BDF92080BDF82470BAF9F4
:10D7B000A040BAF8A430BDF922C0BAF9A2001FFAFD
:10D7C00088F2D5191FFA85F90FFA89F5A1B20B4431
:10D7D0000395A045BBF8E85007959BB240F39D80A8
:10D7E000521A92B284450FFA83FE15B22FDD009EC5
:10D7F000BDF826100BEBC608039EA6EB0E06B8F884
:10D80000AEE01FFA8CFC80B2ACEB00038C44704499
:10D810009BB20FFA8CFC00B21CB2ACEB000066436A
:10D820006843864209DBB8F8A830A8F8AE40174430
:10D83000ADF82030ADF8247085E60B44ADF8263005
:10D84000B8F8AA30A8F8AC50ADF822307BE6039EB9
:10D85000B64528DA009BBDF826400BEBC30104EB6C
:10D860000C031FFA83F8B1F8AE300344A3EB0803AE
:10D870009BB20FFA88F9A0EB0C000FFA83F8A6EB25
:10D880000E06684308FB06F6B04206DCA1F8AA9033
:10D89000A1F8AE80B1F8A830C9E72344A1F8AC5094
:10D8A000ADF826304FE60798A3EB09039BB2062894
:10D8B0000FFA83FC18D852460AAB52F8A00F5168F1
:10D8C000AAF8A4C003C3039BAAF8A030ADF82C505B
:10D8D0000AAB93E806000198FFF706FE009B013BA8
:10D8E0000093AAF1080A47E70098AC454FEAC00048
:10D8F0000CDB1744BFB25844ADF824700F44ADF8A8
:10D900002040A0F8A870A0F8ACC01CE65844A0F8CD
:10D91000AC503B44ADF8243015E6BDF826501FFA54
:10D920008CF101EB050E82B21FFA8EFE04920FFA03
:10D930008EF20592049EBAF8A620324492B2844533
:10D94000069226DAA3EB0903A2EB0E029BB292B277
:10D950000FFA83FA11B2A0EB0C00A4EB08040AFB47
:10D9600000F04C43A04200984FEAC00006DC584447
:10D97000059AA0F8AE10A0F8AA20CAE70BEB0003A6
:10D980000399A3F8ACA0A3F8A8102A44ADF8262068
:10D99000D9E5049E039A891B1EB289B296420FFAFA
:10D9A00081FC26DDA3EB0903BDF91820059E9BB27F
:10D9B000A6EB020918B2A4EB08040CFB04F400FB6C
:10D9C00009F9009A4C454FEAC20203DB5A44A2F817
:10D9D000AEC09EE70BEB0203039AA3F8A820A3F8BE
:10D9E000AC002944B3F8AA30ADF82230ADF82610C7
:10D9F000A9E5069B079CA3EB0E0292B2062C13B27C
:10DA00000DD851460AAA51F8A00F4968AAF8A630C5
:10DA1000059BAAF8A23003C2ADF82EC058E7009CBF
:10DA200063454FEAC4040DDB2944049AADF8220093
:10DA300089B25C44ADF826101144A4F8AA10A4F8E9
:10DA4000AE3080E55C44A4F8AEC09EE7BBF8E87059
:10DA5000072F06D808AB93E806000198FFF744FDAE
:10DA6000DBE50BF1A80307F1FF396FF0004A0BEB80
:10DA7000C7074FF0FF3500240493B7F9A430009393
:10DA800009F1FF32B7F9A6300393904607F1A003DE
:10DA9000B8F1FF3F14BF0499DDF808E0186806925A
:10DAA00018BF01EBC80E0DF1280CBEF80610BEF829
:10DAB0000460059316FB01F65968ACE80300714653
:10DAC0000AA8FFF751FCBDF82E00BDF82C10039BEF
:10DAD000009A11FB00F102FB03668E1B082091FBEC
:10DAE000F0F1B14221DC5645DDE9053203DAE6B159
:10DAF000B24645464C4608F1FF3818F1020FC7D12F
:10DB0000B2F1FF3FA7F108079146B6D1019BA6B23B
:10DB1000E40018196B1C0BD101460298FFF724FC96
:10DB200031460198FFF7CAFC0DE545464C46EDE746
:10DB3000019BED005919FFF717FC029B03CB5D44D5
:10DB40005C44C5F8A800C5F8AC1054F8A80F029BB7
:10DB5000616803C3E4E7000030B51D4B85B00C4697
:10DB6000B3F900201B4BADF804200021B3F90030BD
:10DB70000091054661682068ADF8063002AB03C32A
:10DB8000694602A8FCF7DEFA02AB03CB124B206019
:10DB90001868616038B195F8343133B12168626832
:10DBA0002846FFF7C3FC05B030BD036821469B68DB
:10DBB00098470A4B186818B1036821469B68984734
:10DBC000074B1868036821469B699847EBE700BF3D
:10DBD00004260120062601204C260120482601208B
:10DBE000102601202DE9F04F04469BB080F8341137
:10DBF00029B10023A0F8E8301BB0BDE8F08F00F594
:10DC000096763046FCF7E1FA054640B996E80600FC
:10DC10002046FFF78BFCC4F82C51C4F83051A74BB9
:10DC20001B683BB3A64D2846FCF7CFFA064608BB57
:10DC30002846FFF7F1F929686A682046FFF776FC65
:10DC40002E806E80AE80EE809E4F09A8FFF7E3FB2A
:10DC50003D882E46B4F8E830B34210D904EBC60331
:10DC600009A8D3F8A810D3F8AC200136FFF73CFC84
:10DC7000B6B2EFE7B4F8E830002BE5D1BCE72E46AA
:10DC8000B4F82A31B3420BD904EBC6032046D3F8CB
:10DC9000EA10D3F8EE200136FFF748FCB6B2EFE702
:10DCA000894A136893F84830012B904640F09480DD
:10DCB00004EBC503B4F8E800AA334FF00009A8420A
:10DCC00003F108030ADD33F8082C33F8041C0A4476
:10DCD00012B29145B8BF91460135F0E77B4B7C4EBF
:10DCE0001D880023CDE905330F2D8CBFED080125DC
:10DCF000BDF81630BDF81A10D8F800000B441BB25E
:10DD0000994502684BDDD2F890309847BDF81A204B
:10DD1000BDF8163013441BB25A19904207DA8145F8
:10DD200005DD984233DA002B31DD484604E09842A5
:10DD3000FBDB4845A8BF4846B6F90020B7F800A06D
:10DD4000ADF816300021C01AADF81410ADF8182047
:10DD5000ADF81A00B4F8E8305345C9D904EBCA024B
:10DD600007AB52F8A80F516803C307A805A9FCF731
:10DD7000E9F907A8FCF729FA20B9236807A95B6B22
:10DD8000204698470AF1010A1FFA8AFAE2E7D8F812
:10DD9000000003680121D3F88C309847A8E7136A84
:10DDA00098474C4B1B78002B3FF426AF00233D884F
:10DDB000A4F82A31EA34BDF86430AB427FF61CAFD8
:10DDC0001AAB03EBC503443B93E80600204601353C
:10DDD000FFF78AFBADB2EEE7022B40F03E813E4BEF
:10DDE0001B78012B2CD004F1A80B3A88B4F8E8106A
:10DDF000013292B20029D4D0B4F8AA50B4F8AE30AF
:10DE00001D442DB210464FF0000A83B299424FEAEA
:10DE1000CA0640F2C580264404EBC009B6F9AA3010
:10DE2000B9F9AAE07345844640F3A780B9F8AE502B
:10DE300075442DB29D42A8BF1D460130E246E4E77D
:10DE400004F1A809B4F8E8B0BBF1000FA9D03B88F1
:10DE5000B4F9A82001339BB2002699B28B454FEA52
:10DE6000C6053BD9254404EBC30AB5F8AC10B5F898
:10DE7000A800BAF9A8E00844BAF8AC10714400B29E
:10DE800009B288429C4606DA86457246B8BF024609
:10DE900001336646E1E70BD1B5F9AEC0BAF9AE1071
:10DEA0008C45B4BF9C46B4467245B8BF7246EFE796
:10DEB0008A42B8BF0A46B446EAE700BF48260120B6
:10DEC000542601209800002010260120062601205B
:10DED000042601200E26012008260120611907AB27
:10DEE00051F8A80F496803C3BDF92030BDF81C10D4
:10DEF000132BD8BFBDF91C20ADF81C200B449B1A76
:10DF000007A8ADF82030FFF7E1F807A8FCF75DF9A6
:10DF1000002897D1BDF922C0D8F80000BDF8203004
:10DF2000D0F800E0BDF81E20BDF81C10BCF1140FA5
:10DF3000A8BF4FF0140C1FFA8CFCCDF800C0DEF81F
:10DF400084A0D0478246ADF8220007A8FFF764F806
:10DF50002368254420465B6B07A99847B5F8AC00B9
:10DF6000A0EB0A0000B2A5F8AC0000287FF46AAF6D
:10DF7000B1B24846FFF7A2FA64E70CD1B6F9ACC0DB
:10DF8000B9F9AC60B445B4BF8446D446B9F8AE60C4
:10DF900033441BB24EE77545A8BF7546D4464CE7DF
:10DFA0000BEB06002644CDE90212B6F9AE90B9F1AA
:10DFB000130FDEBFB6F8AA504D442DB2FCF705F999
:10DFC000DDE9021200287FF415AFB6F9AAC0ADF85A
:10DFD0002200A5EB0C051FFA8CF21FFA89F902EB5F
:10DFE0000900142DA8BF142500B21FFA85FEA0EB6E
:10DFF0000C00B6F9A810B6F9AC30ADF81C10864587
:10E00000D8F80000ADF81EC0ADF82030B8BFF1461A
:10E010000568CDF800909BB289B2D5F88450A84726
:10E020002368ADF822005B6B07A920469847BDF82E
:10E030002210B6F8AE30B6F8AA205B1A0A441BB21A
:10E04000A6F8AA20A6F8AE30002B7FF4CEAE1FFAB9
:10E050008AF15846FFF732FAC7E6B4F8E830AB4227
:10E060007FF69FAE04EBC50207AB52F8A80F5168CC
:10E0700003C307A8FCF7A9F820B9236807A95B6BBD
:10E08000204698470135ADB2E7E700BF034B0022B9
:10E090001A805A809A80DA80704700BF5426012087
:10E0A0002DE9F04F06469BB003A814468A461D464C
:10E0B00000F0DBFD336830465B6C984733680746F9
:10E0C0009B6C304698472A46009021463B4603A861
:10E0D00000F018FE00252C46A946A84642F20B0B7C
:10E0E000002302934FF6FF639C4202D05C4518BFA9
:10E0F000254602AB3246514603A801F0FFF804461C
:10E1000008B10A280AD1C14538BFC1464FF00008FE
:10E11000002CE5D148461BB0BDE8F08F029A002ADA
:10E12000DED0577B33689488DB6B7F0007F4807008
:10E13000977A2946074330469847384480441FFA67
:10E1400088F8E5E708B50368DB68984728B1437BA2
:10E15000807A5B0003F48073184308BD0EB4F0B5F9
:10E160009CB021AB054653F8044B039305A800F07F
:10E170007CFD2B6828465B6C98472B6806469B6C99
:10E180002846984733461CAE21460090039A002447
:10E1900005A800F0B7FD46F8604D2A4633462146F3
:10E1A00005A801F0ABF8F0B10A2818D0049FB7B168
:10E1B000787B3B7AAA88C10001F480711943430639
:10E1C00044BFA1F5007319B20001FB7900F480701F
:10E1D000034313445B1A9BB2A342C8BF1CB233462D
:10E1E0002A460021DCE7A0B21CB0BDE8F04003B035
:10E1F00070470EB470B59BB01FAB044653F8045B78
:10E20000029303A800F031FD236820465B6C984719
:10E21000236806469B6C2046984733460090029A36
:10E22000294603A800F06EFD03A801F05FF9012460
:10E23000A3B240B10A2808BF013303A808BF1CB22B
:10E2400001F054F9F4E718461BB0BDE8704003B084
:10E2500070470EB4F0B59CB021AB044653F8045B94
:10E26000039305A800F001FD236820465B6C9847E6
:10E27000236806469B6C2046984733462946009003
:10E28000039A05A81CAD00F03DFD002145F8601D76
:10E2900022462B4605A801F031F8FF26D8B10A28FE
:10E2A00012D0049880B1477B2279FB0003F480717F
:10E2B000037A0B43790644BFA3F500731BB2D31A4C
:10E2C000DBB29E4228BF1E462B462246002105A8EF
:10E2D00001F014F8E2E730461CB0BDE8F04003B0AE
:10E2E000704713B5011D034603C96A4682E803005F
:10E2F00000210091196818460C691146A04702B028
:10E3000010BD38B50B680C46DB6805469847236896
:10E3100020469B6A29469847284638BD10B40A888B
:10E32000848822440A80C4884A8822444A804069FA
:10E3300020B103685DF8044B9B6A18475DF8044BF5
:10E340007047F0B50B4685B0044601B922B3271DCE
:10E3500097E803006E4686E80300A188E588194423
:10E3600023682A44DB6A09B2204615B2984723681D
:10E37000294620461B6B984797E8030002AD85E8C5
:10E380000300606950B1036831461B6998476069B2
:10E3900003681B692946984705B0F0BDFFF72AF8C6
:10E3A000036831465B6B9847FFF724F803685B6BA3
:10E3B000F0E737B582880B8813440B80C2884B88FE
:10E3C000134402464B80054652F8040F0C46516830
:10E3D0006B4603C321466846FBF7B4FE6B4603CB8E
:10E3E00020606160686928B103681B69214698470D
:10E3F00003B030BDFEF7FEFF03685B6BF6E770B558
:10E4000082880B8813440B80C2884B880C461344C7
:10E410004B800546011D2046FBF794FEB4F90430FD
:10E42000002B0BDDB4F90630002B07DD686928B13D
:10E43000036821465B6ABDE87040184770BD10B59F
:10E44000044608460023238063800368B0F90A204D
:10E45000B1F90810A180E2809B6A214698472046C6
:10E4600010BD000030B583809DF80C309DF8105031
:10E470008371C379016165F306039DF814508282AC
:10E4800065F3C713C3719DF8183003729DF81C30F3
:10E490004372BDF820304381BDF824308381014BA5
:10E4A000036030BD9C3D0208F0B50469BCB3A3888D
:10E4B000828ACB1A02F1FF3231D493420CDD0E2353
:10E4C00003FB02439B885B1AD31A9A4227DB002B7B
:10E4D000BCBF022392FBF3F300250E2695421EDCFF
:10E4E00006FB03408788B9421AD00DD25A1E9542C6
:10E4F00015DC30F80A3C5B1AD31A9A420FDB9D42B6
:10E50000ECDD53195B10E9E75D1CAA4207DB438A87
:10E51000CB1A2B449D4202DC9A42DFDAF1E700205D
:10E52000F0BDF8B5044617461E4611B90025284629
:10E53000F8BD0A29FAD04FF6FF629142F6D042F2B6
:10E540000B029142F2D0FFF7AFFF054650B92368A6
:10E5500020461B69984701462046FFF7A5FF054660
:10E560000028E3D023682946DB6C204698473860B2
:10E57000236820465B6B98473070D8E700207047CF
:10E5800001207047022070477047704770477047FE
:10E5900010B50C2104460DF0D9FF204610BD10B572
:10E5A000102104460DF0D2FF204610BD10B50C21FD
:10E5B00004460DF0CBFF204610BD10B53C210446AB
:10E5C0000DF0C4FF204610BD30B50D46016B87B07D
:10E5D000044601B301A8FFF732FF2A89BDF80430D1
:10E5E0002879B5F906108DF81000D21AA38E206B89
:10E5F000ADF812101A446B89BDF80650ADF814201E
:10E600005B1BE58E2B44054D0395ADF81630036872
:10E6100003A95B6C984707B030BD00BF1C3E0208E1
:10E6200010B5B0F900308B4210DC848823441BB253
:10E6300099420BDAB0F90230934207DCC0881844E3
:10E6400000B28242ACBF0020012010BD0020FCE7D8
:10E65000F0B50C46016B89B00546002954D06846D8
:10E66000FFF7EDFEAE8EEF8E2289E1883A44314409
:10E6700012B209B26846FFF7D3FFD0B1A28961890F
:10E680003A44314412B209B26846FFF7C9FF034663
:10E6900078B91E4A0492286BADF8163002228DF824
:10E6A0001420ADF81830ADF81A30036804A91B6CBB
:10E6B0009847296B02A8FFF7C2FEBDF80820E08842
:10E6C0006189B5F834C0BDF80AE02389EE8E277958
:10E6D0008DF81470801A891AA2890D4C0494604434
:10E6E000A3EB0E03A2EB0E02ADF816003344614417
:10E6F0003244286BADF81A10ADF81830ADF81C2074
:10E70000036804A99B6C984709B0F0BDF43D02086A
:10E71000083E02082DE9F04FD0F830900B79A1B0F7
:10E7200004460D46B9F1000F0FD0002B40F0A08039
:10E7300021B0BDE8F08F04F13003B5F90820B5F938
:10E740000610201DFBF744FC92E0002BF0D15E4B3D
:10E750001B6893F849A0C4F83490BAF1030FEADDBE
:10E76000BAF10C0F4FF00303DCBF0AF1FF3292FB4A
:10E77000F3F30193554B5649B3F90020554BADF8CF
:10E780002C20B3F90030ADF82E300EAB4822002615
:10E7900018460A960EF0A4FE4FF0FF32CDE906208F
:10E7A000CDF808A0DDE9012393FBF2F39BB2B34659
:10E7B000039300230993079B039A53F83B30EF8898
:10E7C000B5F8088013FB02F39BB20493079B03EB9D
:10E7D000CB030AA85B6813FB02F39BB20593049B6F
:10E7E0001F44059B98443FB20FFA88F842463946C9
:10E7F000FFF716FF80B3394609AB4246201DFBF7F1
:10E80000E7FB099941B3494526D00CA8FFF717FE4D
:10E81000BDF93010B5F90630BDF93420022092FB65
:10E82000F0F20A44991ABDF9363093FBF0F3BDF9C2
:10E830003200B5F908200344D31A5B43069A01FB62
:10E840000133934208D2049ADDF82490A286059AF7
:10E85000C4F83090E28606930BF1020BBBF1080F6F
:10E86000A7DD029B53440293019B0136B34299D129
:10E87000216B00293FF45CAF0CA8FFF7E0FDBDF869
:10E880003030EA88BDF8320029798DF83C10D21A70
:10E89000A38E1A442B89ADF83E201B1AE08E034448
:10E8A0000D480E900026206BADF84030ADF8426068
:10E8B00003680EA91B6C98472B79002B3FF438AFE7
:10E8C000C4E90C6634E700BF1026012004260120AD
:10E8D000481F020806260120F43D020837B5044609
:10E8E00034F90C2F013212D10368B0F90810B0F9D5
:10E8F0000A20ADF80410002500956D462946ADF8B4
:10E9000006205B6A984795E8030084E803002046E8
:10E9100003B030BD13B5B0F920300133044609D13E
:10E9200001466846FFF78BFDBDF800302384BDF833
:10E9300002306384B4F9200002B010BD13B5B0F901
:10E9400022300133044609D101466846FFF777FDBE
:10E95000BDF800302384BDF802306384B4F922008E
:10E9600002B010BD70B50546164B45F8043B0023B8
:10E97000038143818381C381038243828382C38273
:10E98000C0E9063303628384C38480F828300E4ACA
:10E990004363C0E90B330D4B4260B3F90060536B26
:10E9A0000B4A0446012180F8291080F83810B2F98A
:10E9B000001028469847636828469B6B3146984765
:10E9C000204670BD303E0208F830020806260120BD
:10E9D0000426012007B5094BB3F90020084BADF818
:10E9E0000420B3F90030ADF806300368002100912F
:10E9F0009B686946984703B05DF804FB0426012034
:10EA0000062601202DE9F04FB1F90430002B89B022
:10EA100080460C4615460EDDB1F90630002B0ADDA6
:10EA20002846FFF75BFF2146FEF75AFCEB6928B941
:10EA30001D46002BF4D109B0BDE8F08F04AE002BC9
:10EA400000F0B5802B682946DB6802A89847284665
:10EA5000FFF760FFBDF8087007442846FFF76EFF18
:10EA6000BDF80A30BDF90C20ADF814201844214639
:10EA7000BDF90E30ADF812003FB23046ADF8163099
:10EA8000ADF81070FBF75EFB2846FFF727FF024644
:10EA900096E8030006AB83E8030011461846FBF72F
:10EAA00051FBBDF91830B4F90010BDF91AA0BDF939
:10EAB0001CB0BDF91E9099420BD1B4F90220524509
:10EAC00007D1B4F904205A4503D1B4F906204A45C8
:10EAD0006DD0BBF1000F65DDB9F1000F62DDB4F957
:10EAE00002201FFA8AF05245009012DA0193009B2F
:10EAF000B4F90400ADF812209A1AADF81010ADF870
:10EB00001400ADF81620EA6931464046FFF77AFF57
:10EB1000019BB4F900209A429FB20DDAADF81020A3
:10EB2000BA1AADF812A0ADF81420ADF81690EA6943
:10EB300031464046FFF766FF2288A3885F441344AE
:10EB40009BB2BFB23AB219B291420DDDDB1BADF8F8
:10EB50001020ADF812A0ADF81430ADF81690EA69A7
:10EB600031464046FFF74EFFE28863881344009A1F
:10EB70004A449BB21FFA82F90FFA89F219B28A420B
:10EB800015DAB4F90410B4F90000ADF81410A3EBD1
:10EB90000903ADF81000ADF81220ADF81630EA699F
:10EBA000314601E0EA6921464046FFF72BFF28463F
:10EBB000FFF794FE616802462068334603C311469E
:10EBC0003046FBF7BFFABDF91430002B7FF733AFA7
:10EBD000BDF91630002B7FF72EAF2846FFF79AFEBF
:10EBE000BDF81030181AADF810002846FFF7A6FE41
:10EBF000BDF81230181AADF812002B6831469B6828
:10EC00002846984717E737B502AA002342F8043D83
:10EC1000044604300D46FBF76DFB019A1AB12946F4
:10EC20002046FFF7EFFE03B030BD37B5024604467D
:10EC300052F8080F0D4651686B4603C329466846D3
:10EC4000FBF780FA94F83830694623B12046FFF785
:10EC5000DAFF03B030BD201DFBF713FBF9E70A68AC
:10EC60000B469269011D1846104738B50025044629
:10EC7000C0E90055C0E902550574C5820583C58504
:10EC80000586C5860587C0E90F550E222946443002
:10EC90000EF034FC01232046A4F85250A4F854503E
:10ECA000A4F8565084F8583084F85950F4F70CFD05
:10ECB000204638BD30B500250124436813B90368E8
:10ECC000F3B14360037C43B1C3682BB11A881AB116
:10ECD0009A1CC260188830BD05744368198879B1E0
:10ECE0009A1C02294260F5D183681A1D82601B6854
:10ECF000C360002BE1D01B88002BDED00474DCE75E
:10ED00000020E8E710B4C363019B03640023826022
:10ED100001604360C36003740386038303875DF867
:10ED2000044BF4F7D1BCF0B505460846E9B105F14E
:10ED300044040B4601F10807224618685968264624
:10ED400003C60833BB423446F7D1186830609B884D
:10ED5000B38095F851305B0103F4807195F84A3027
:10ED60000B435B4285F84D301046F0BD38B50C467C
:10ED700011681046CD681946A847002808BF2046EC
:10ED800038BD0000F8B50446154608463AB9A4F85F
:10ED90005220A4F85420A4F856202846F8BD92F832
:10EDA0000DC093884FEA0C1606F48072EE79164374
:10EDB0006FF463629A1891B21D29B7B200F2838092
:10EDC00001228A4078490A424FEAE6062DD112F420
:10EDD000607F78D004F144022B4605F1080E1546F9
:10EDE000186859689446ACE80300083373456246D6
:10EDF000F6D11868CCF800009B88ACF80430B4F861
:10EE0000541094F85100B3B2CA1A92B284F84C204C
:10EE1000D21020F0600002F060020243CF1B84F8A1
:10EE20005120FB1AA4F85430B7E7238E2BB95F4B5F
:10EE30005F4A6048BF210EF0D5FAE38D04EB43032F
:10EE4000598B40F63363994210D10368DB689847C9
:10EE5000417BCB0003F48072037A480643EA020345
:10EE600044BFA3F500731BB2A4F85230B4F852307B
:10EE70003B4433449BB204F144062A4605F1080C96
:10EE8000A4F85230354610685168374603C7083237
:10EE900062453E46F7D1106838609288BA8094F88F
:10EEA000512084F84C30DB1022F0600203F0600344
:10EEB000134384F8513094F8562094F84D309B1A3F
:10EEC00084F84D3069E723F0040240F61B618A4262
:10EED00003D040F61D62934220D1013B02469BB213
:10EEE00029462046FFF742FF417BCB0003F48072A6
:10EEF000037A490643EA020344BFA3F500731BB239
:10EF0000A4F852306B7BAA7A5B0003F4807313433E
:10EF10005A1102EB9303A4F8563036E04FEACC02C4
:10EF200002F480712A7A1CF0400F42EA01021CBFF1
:10EF3000A2F5007212B2A4F8522040F6096123F043
:10EF400010028A4203D040F6136293422AD16E7BAC
:10EF5000760006F48072AE7A164340F6136293424E
:10EF600018BF03F1FF33024614BF9BB240F60C6397
:10EF700029462046FFF7FAFE437B827A5B0003F4C2
:10EF800080731343F61AA4F85660697BCB0003F430
:10EF900080722B7A13434A0644BFA3F500731BB259
:10EFA000DB1B3FE70023B6E77900C03F282B0208B0
:10EFB0008B400208FA2B02082DE9F043044642B9BF
:10EFC0004FF40043A0F85230A0F85430A4F8563063
:10EFD00046E0517B93880F0107F48070D77907438F
:10EFE000042FBDB2CCBFBF080127B3F5DD6F00F21F
:10EFF000AB8040F2E760834216D240F25B6083420E
:10F0000059D840F2576083420ED2B3F5CA6F4AD244
:10F0100040F24E60834207D240F21A6083422AD007
:10F0200021D8B3F5C26F5BD3B4F9523013F5004F5A
:10F0300040F0D080B4F9540010F5004F40F0CA8081
:10F04000CB0003F48070137A490643EA000344BFFF
:10F05000A3F500731BB2A4F852305D1BA4F8545002
:10F060001046BDE8F08340F24B60834238D340F253
:10F070004C608342D8D9B4F95200B4F9543010F539
:10F08000004F40F0F18013F5004F40F0ED80CB00D1
:10F0900003F48070137A4E0643EA000344BFA3F5DD
:10F0A00000731BB2D9E740F254608342E3D8B3F552
:10F0B000CA6FE0D9B8E740F274608342B4D02DD86B
:10F0C00040F25E60834204D840F25D608342D2D356
:10F0D000AAE740F25F608342CDD0B3F5CE6FA3D0F4
:10F0E000CB0003F48070137A490643EA000344BF5F
:10F0F000A3F500731BB25D1BA4F85230A4F8545062
:10F10000537B5B0103F4807193790B435B00052112
:10F1100093FBF1F392F909100B4457E740F2E260D8
:10F12000834209D840F2DF608342BFF47DAFA3F28F
:10F13000D663052BD4D877E740F2E36083429AD0B8
:10F1400040F2E4608342CAE7B3F50F6F2BD240F67A
:10F15000ED0083428FD240F6E500834216D840F698
:10F16000E4008342BFF460AF40F2EC6083420AD80F
:10F1700040F2EB608342BFF457AF40F2EA60834253
:10F180003FF479AFACE740F2ED60F8E740F6E80015
:10F19000834202D840F6E70098E740F6E900834250
:10F1A0007FF442AF67E740F6F60083423FF463AF77
:10F1B00002D840F6F200F2E740F6FA00834205D8A2
:10F1C00040F6F9008342FFF42FAF54E740F6FE000B
:10F1D0008342AFE704F1440C174602F10808664683
:10F1E00038687968E646AEE8030008374745F446D4
:10F1F000F6D13868CEF80000B988AEF80410B4F93A
:10F20000560010F5004F09D0517B9279490101F465
:10F2100080711143A0EB510084F84D0013F5004FAD
:10F220000DD02B449BB294F8512084F84C30DB1065
:10F2300022F0600203F06003134384F8513094F825
:10F240005110CB0003F4807294F84C304F0643EA1F
:10F25000020344BFA3F500731BB2A4F852305D1B38
:10F26000A4F854503246FBE604F1440E944602F1F1
:10F2700008097646DCF80000DCF80410F046A8E83F
:10F2800003000CF1080CCC45C646F3D1DCF80000B5
:10F29000C8F80000BCF80410A8F80410B4F956002F
:10F2A00010F5004F09D0517B9279490101F480712A
:10F2B0001143A0EB510084F84D0013F5004F0DD021
:10F2C000DB1B94F851209BB284F84C30DB1003F028
:10F2D000600322F06002134384F8513094F8511017
:10F2E000CB0003F4807294F84C30480643EA0203E2
:10F2F00044BFA3F500731BB2B1E700002DE9F04154
:10F300001E46038E044617462BB9254B254A264830
:10F31000BF210EF067F8C38D00EB4303B3F81A80EA
:10F32000F4F790F9054618B930602846BDE8F08139
:10F330003B680146DB6838469847A8F5C063B3F5DB
:10F34000407F0246306013D2434639462046FFF7DD
:10F3500033FE3060336843B15A7B9B7A520002F42B
:10F36000807213430CBF0123002384F85930DCE77B
:10F37000A5F560639BB27F2B04D839462046FFF782
:10F3800001FDE6E794F85930002BE3D040F6021374
:10F390009D42DFD101462046FFF7C5FCD9E700BFFB
:10F3A000282B02088B400208FA2B02082DE9F843AB
:10F3B0001E46038E044617462BB9264B264A27487D
:10F3C000BF210EF00FF8C38D00EB4303B3F81A8092
:10F3D000F4F738F9054618B930602846BDE8F883D7
:10F3E0003B680146D3F808903846DDE90823C84752
:10F3F000A8F5C063B3F5407F0246306013D24346A0
:10F4000039462046FFF7D8FD3060336843B15A7B58
:10F410009B7A520002F4807213430CBF0123002335
:10F4200084F85930D9E7A5F560639BB27F2B04D8E7
:10F4300039462046FFF7A6FCE6E794F85930002B42
:10F44000E3D040F602139D42DFD101462046FFF78C
:10F450006AFCD9E7282B02088B400208FA2B020825
:10F4600010B50446218F238ED9B9238E0A2B36D0AE
:10F470002046FFF71FFC238E092B06D9184B194A8B
:10F48000194840F203110DF0ADFF5A1C2286E28D9F
:10F4900013449BB2092B88BF0A3B04EB43035883F8
:10F4A000E3E70A2B1BD0E28E04EB42000139408EC9
:10F4B0002187511C89B201298ABF02F1FF32E186FE
:10F4C000E286092BDAD85A1C2286E28D13449BB2BD
:10F4D000092B88BF0A3B04EB43035883C2E710BDE6
:10F4E0005C3E0208E1410208FA2B020838B5028EA0
:10F4F00004462AB9134B144A1448D4210DF072FF64
:10F50000C38D00EB4301013A4D8B02865A1C92B227
:10F51000092A86BF093BC385C285FFF7A1FF238B5C
:10F52000012B9CBF01332383E38A0BB90223E382BF
:10F53000E38A013B9BB2E38204EB430428466582E5
:10F5400038BD00BF282B020836410208FA2B0208FA
:10F5500038B58A42048E0CD92CB91C4B1C4AE021C8
:10F560001C480DF03FFF013C04861B4B1B4AC42185
:10F57000F6E78C4203D21A4B1A4ACA21F0E7641A02
:10F580000486C48D214489B2092988BF0A39C185FE
:10F590000A25BAB1013A018E92B2092933F8124014
:10F5A00003D9114B114AE521DAE701310186C18DFA
:10F5B00001B9C585C18D013989B2C18500EB410111
:10F5C0004C83E6E7BDE83840FFF74ABF282B020826
:10F5D0000F3F0208FA2B0208262C0208B93F020846
:10F5E000683E020890420208743E0208873E020804
:10F5F000013A70B592B24FF6FF76B24219D0048B41
:10F6000031F8025B944205D8194B1A4A1A48C421B2
:10F610000DF0E8FEC48A1444A4B2012C88BF023C59
:10F6200000EB4404013A648AAC4292B2E5D0002077
:10F6300070BDBDF8102000241344A2B29A4214DA1F
:10F64000068E31F81450964202D8094B0B4ADDE77A
:10F65000C68D324492B2092A88BF0A3A00EB4202B0
:10F660000134528BAA42E8D0E1E70120E0E700BF75
:10F67000262C020814430208FA2B0208B93F02089C
:10F680002DE9F74F054616468C1C09884FEA113ABA
:10F6900034F81A30B34224D1C1F30329C1F303185B
:10F6A00001F00F07CDF800804B4652462146284610
:10F6B000FFF79EFF834668B10AEB0901414404EB62
:10F6C00041033A4649462846FFF742FF584603B0F1
:10F6D000BDE8F08F07EB0A014944414404EB4101C6
:10F6E000D2E74FF0000BF1E770B51088984217D8B9
:10F6F000481E32F82000984212D300248C420FD2C8
:10F7000060184010850032F82060B34202D9013001
:10F7100084B2F3E701D281B2F0E72A44508870BD89
:10F720000020FCE72DE9F041C56B6F8804467F0897
:10F730000B26013E1BD0238E2BB90E4B0E4A0F48D1
:10F74000BF210DF04FFEE38D04EB43032A46B3F8CF
:10F750001A80394643462046FFF7C6FF38B105EB0D
:10F76000400142462046FFF78BFF0028E1D1BDE86B
:10F77000F08100BF282B02088B400208FA2B0208F8
:10F7800010F10F0301D418117047C0F1010010F0FF
:10F790000F0018BF0120102293FBF2F3181A7047D4
:10F7A000002938B505DC0F4B0F4A1048F7210DF042
:10F7B00019FE002806DB90FBF1F4146001FB140134
:10F7C000196038BD404290FBF1F4654201FB140022
:10F7D000156018600028F4D01068013810601868AF
:10F7E000091AEDE7E543020824440208F54302083C
:10F7F00070B54A698D6A4B68CE6A541B00F0068169
:10F800009B1B03D06343102293FBF2F30C688A69BD
:10F81000651B00F0FD80921B03D06A43102492FB0D
:10F82000F4F29B1A07EE903A9FED884AF8EEE77AD9
:10F83000B7EE007A67EE847A0A4687EE273A0346E7
:10F8400000F10C04B1EE436AD2ED027AC7EE276AEA
:10F850001432E3EC016A52ED027A67EEA67A9C421A
:10F86000C3ED027A52ED017A67EEA67AC3ED057A0E
:10F87000EAD1CA6A8B69D0ED024AD0ED003AD0EDE8
:10F88000016A90ED055A90ED032AD0ED045A90EDEF
:10F89000071AD0ED062A9B1A07EE903A4B689B1A7E
:10F8A00007EE103AF8EEE77A76EEE46A67EE847ACD
:10F8B00073EEE44AB8EEC77A64EEE77A27EE047A8C
:10F8C00075EEC55AE6EE877A32EE455A67EE837AD0
:10F8D000C0ED097A8C6A4A69131B07EE103AB8EE3C
:10F8E000C77A0B6827EE047A1B1B64EEC74A07EE43
:10F8F000103AB8EEC77A27EE047AE6EE874A64EE4D
:10F90000864AC0ED0A4ACA6A8B699B1A06EE903A8B
:10F910004B689B1A07EE103AF8EEE66AB8EEC77A23
:10F9200066EE846A27EE047A65EE666AE5EE876A1B
:10F9300066EE836AC0ED0B6A8C6A4A69131B07EE98
:10F94000103AB8EEC77A0B6827EE047A1B1B25EE37
:10F95000475A07EE103AB8EEC77A27EE047AA5EEBA
:10F96000875AD0ED085A25EE065A31EE651A80ED19
:10F970000C5ACA6A8B699B1A07EE103A4B689B1A9D
:10F9800001EE903AB8EEC77A72EEE55A27EE047AA5
:10F99000F8EEE11A25EEC77A61EE841AA1EE217A1B
:10F9A00027EE037A80ED0D7A8C6A4A69131B03EE09
:10F9B000103AB8EEC33A0B6823EE043A1B1B65EE0F
:10F9C000C35A03EE103AB8EEC33A23EE044AE1EE0E
:10F9D000045A25EE866A62EE675A80ED0E6AE3EEFF
:10F9E000A65AF5EEC05AF1EE10FA13DD4FF40043BB
:10F9F00062EEE77AC363E3EE877AF5EEC07AF1EE62
:10FA000010FA15DD4FF40043036470BD2346FDE694
:10FA10002A4606E702D547F6FF73E9E722EE642A95
:10FA2000A3EE852AB5EEC02AF1EE10FADEDAF2E78F
:10FA300002D547F6FF73E7E762EEE44AE3EE864A53
:10FA4000F5EEC04AF1EE10FADCDAF2E70000803D94
:10FA50002DE9F74F4FF0140808FB03F902EB090AF0
:10FA60000446DAF8040017460D461E46FFF788FEE6
:10FA70000C9B606108FB03F807EB080B0190DBF8B7
:10FA80000400FFF77DFE019A801AA061002800F0B3
:10FA9000888057F8093057F808C0DAF80410DBF806
:10FAA0000400ACEB030C4FEA0C1B0BFB02F20CFB4B
:10FAB0001122401A4FEA001800FB0320013804F11C
:10FAC0001003224641464044FFF76AFE04F1080352
:10FAD000221D41465846FFF763FEC4F80C80DAF851
:10FAE00004306269DFED316A95ED0A6AC3EB0213F7
:10FAF00007EE103A226857F80930C3EB021307EEFD
:10FB0000903AB8EEC77AF8EEE77A05EB860327EE6F
:10FB1000267A67EEA67AD3ED006AE6EE076A95EDDF
:10FB2000096AE6EE276AC4ED076AD4ED016AD5EDED
:10FB3000095A95ED0A6AF8EEE66AA6EEA56A84ED22
:10FB4000086A6A6A6262D5ED0C5A93ED036AA5EE03
:10FB5000876AD5ED0B5AA5EEA76A84ED0A6AD5ED42
:10FB60000B5A95ED0C6AA6EEA56A84ED0B6AEA6A5B
:10FB7000226393ED066AD5ED0E5AA5EE876AB0EEC4
:10FB8000467A95ED0D6AA6EE277A84ED0D7A95ED0D
:10FB90000D7AD5ED0E7AE6EE877AC4ED0E7A6B6BB0
:10FBA000E363204603B0BDE8F08F00BF0000803D56
:10FBB000024648B1002398B2013302EB430131F809
:10FBC000021C0029F7D17047704730B5044659B17F
:10FBD00048B1002398B2824205D9CD5C24F8135075
:10FBE0000133002DF6D130BD0846FCE7F0B58BB0EF
:10FBF0008C4600218DF8241001AE1F21B0FBF3F7D5
:10FC000003FB1705ECB2092DD4BF30345734E4B2EE
:10FC10008C5538464C1E2FB931446046FFF7D5FF4E
:10FC20000BB0F0BD2146E9E7F0B507468BB00846BA
:10FC300041B3991E222925D800218DF824103C4675
:10FC40001F260DF1040C94FBF3FE03FB1E4484EA13
:10FC5000E475A5EBE475ECB2092DD4BF303457340C
:10FC6000E4B20CF806407446711E6CB9002F05DA38
:10FC70000AAB19442D2301F8243CB11E0131614423
:10FC8000FFF7A3FF0BB0F0BD0E46DCE72DE9F04F08
:10FC9000914685B002680192884683469DF84010DF
:10FCA000039110461C469DF848300293FFF780FFF1
:10FCB000B8F1000F0CBF844600F1010CB9F1690FD7
:10FCC0009DF838600F9F139DDDF854A003991FFA2B
:10FCD0008CFCDDE9012341D034D8B9F1630F59D050
:10FCE000B9F1640F3AD0B9F1580F34D00024BDF8FF
:10FCF0005020013A69B111998C4509DAA1EB0C0148
:10FD000089B233B9002E51D000284FD00C44A4B290
:10FD100000212B68934207DAB8F1000F04D02AF8CB
:10FD200013802B6801332B603027002C4ED02E68B7
:10FD3000013CB242A4B249DD2AF816702B680133A7
:10FD40002B60F2E7B9F1730F1DD0B9F1780F02D033
:10FD5000B9F16F0FC9E784464FF00008002CC6D0F8
:10FD600047B9012806D11488302C02BF0232CBF8E3
:10FD700000203846BC4514DABFB2A7EB0C04A4B28D
:10FD8000BC460026B3E784466CB1B84200DDB8B289
:10FD9000002403E04FF0010C002460462646A046F4
:10FDA000A5E70024EDE72646A046A0E70029B0D04D
:10FDB00020272E680029ACD00139964289B2A7DAF3
:10FDC0002AF816702B6801332B60F2E788B12B6894
:10FDD00001389A4280B20CDDDBF800309C1CCBF875
:10FDE00000401C882B682AF813402B6801332B60D5
:10FDF000ECE7202651B128680139824289B205DD3D
:10FE00002AF810602B6801332B60F3E705B0BDE8DA
:10FE1000F08F2DE9F043DDE9078CDDE909E6DDE946
:10FE20000B75002414801C7088F800408CF800408A
:10FE30008EF800403C700468A4B124884FF001099A
:10FE400014B32B2C01D0202C10D1148004680CB1D9
:10FE5000023404600C680CB101340C6004687CB19D
:10FE60002488EDE70C687CB12478E7E72D2C02D1DB
:10FE700083F80090EAE7232C07D188F80090E5E7A3
:10FE80000C680CB12478DBE70024A4F13003092BC3
:10FE900001D92A2C22D10123302C8EF800300DD12B
:10FEA0008CF8003003680BB1023303600B680BB1B0
:10FEB00001330B600368002B2FD01C882A2C35D10E
:10FEC0004FF0FF33336003680BB1023303600B68FC
:10FED0000BB101330B6003681BB31C882E2C1AD1A5
:10FEE00001233B7003680BB1023303600B680BB155
:10FEF00001330B600368002B36D01B882A2B37D1C7
:10FF00004FF0FF332B6003680BB1023303600B68C3
:10FF10000BB101330B60BDE8F0830C6834B1247879
:10FF2000CCE70B68002BF6D01C78D7E700233360B2
:10FF30000A22A4F1300C1FFA8CF3092BCED83368B7
:10FF400002FB03C3336003680BB1023303600B6829
:10FF50000BB101330B6003680BB11C88E9E70C6837
:10FF6000002CE6D02478E4E70B680BB11B78C5E7DA
:10FF700000222A600A24303B9EB2092E2A6813D838
:10FF800004FB02332B6003680BB1023303600B6880
:10FF90000BB101330B6003680BB11B88EBE70B68F7
:10FFA000002BE8D01B78E6E7062AA8BF06222A60C5
:10FFB000B1E72DE9F04FA3B000260DF14409074643
:10FFC0008846CDE908323146422248462C9C0D969F
:10FFD0000DF094FA5FB108F1FF3A099A0D9B52B106
:10FFE00012880AB19A452EDC002227F813203846E1
:10FFF00023B0BDE8F08F089A002AF5D01278F0E718
:020000040801F1
:10000000002DEAD02A7842B1252A01D09A4508DC91
:10001000BBF1000F21D1002DDFD02A784FF0000B6B
:100020001DE0BBF1000F78D0BBF8002027F81320AB
:10003000BBF1000F02D00BF1020209920DB10135A4
:10004000089501330D93DDE9085B0D9BBBF1000FB3
:10005000D6D0BBF80020002AD6D1BBF80020002A59
:10006000BBD09A45B9DDADF832608DF82D608DF8C2
:100070002E608DF82F608DF830600E968DF831600F
:100080000F96BBF1000F02D00BF1020309930DB1E3
:100090006B1C08930FAB05930DF1310304930EAB6A
:1000A00003930CAB02930DF12F0301930DF12E037B
:1000B00000930DF132020DF12D0308A909A8FFF7F5
:1000C000A8FE0E9B002BBEBF236823EAE3730E93AA
:1000D0000F9BB8BF0434002BB8BF2368DDE90821AB
:1000E000BEBF23EAE3730F930434D9B10B88692BA5
:1000F0001FD02FD8582B1CD018D8252B34D0CDE9A1
:10010000085B0D9BBBF1000F00F0B880BBF80050FE
:1001100027F8135001330D9329E00DB12A7885E7B4
:100120002A4683E7002AEAD01378E0E7633B012BF5
:10013000E5D8CDF8409029B30B88692B63D025D83A
:10014000632B38D0642B5ED0582B7BD0ADF8446045
:10015000254636E0732BECD002D86F2BCFD1E8E7E1
:10016000752BE6D0782BF9E70D9A27F81230099B0A
:100170000BB102330993089B002B3FF42EAF0133E0
:1001800008932AE7002AE1D01378D6E7732B36D0FC
:1001900007D86F2BDAD10D9A251DA8EB0202082390
:1001A0004AE0752B43D0782BD0D10D9A251DA8EBB2
:1001B0000202102340E02378ADF84430251DADF84D
:1001C0004660099BBDF83210002B52D01A889DF86A
:1001D00031300DA805909DF82D0004900E980390E5
:1001E0009DF8300002900F9801909DF82F0000902C
:1001F000CDE9068710A8FFF749FD2C46B7E723682D
:10020000251D1093DDE70D9A2068A8EB02020A2352
:1002100092B24946FFF708FDBDF844302D2B04F19A
:100220000405CED1ADF83230109B0233E9E70D9AC8
:10023000251DA8EB02020A2392B249462068FFF767
:10024000D5FCBEE70D9A2068A8EB020292B21023FB
:100250004946FFF7CBFC251D0DF1420232F8023F63
:10026000002BAED0A3F161011929F7D8203B1380F0
:10027000F4E7089A002AAAD01278A8E7002D3FF4E4
:1002800047AF2D7844E707B5009313460022FFF7E8
:1002900090FE03B05DF804FB0CB407B504AB53F853
:1002A000042B0193FFF7EFFF03B05DF804EB02B0FE
:1002B000704700002DE9F04FC3B000260DF1400853
:1002C00007468946CDE908323146C8224046DDF866
:1002D00030A10C960DF012F96FB14FF00A0B099A8C
:1002E0000C9B62B112881AB109F1FF31994226DCE8
:1002F000002227F81320384643B0BDE8F08F089A53
:10030000002AF5D01278EEE7002CE8D0227832B13E
:10031000252A01D0994205DCCDB9002CDFD0227806
:10032000002515E0002D73D02A8827F813200DB181
:10033000023509950CB10134089401330C93DDE9C1
:1003400008450C9B002DDFD02A88002AE0D12A889E
:10035000002AC4D09942C2DD0023ADF82E308DF8BA
:1003600029308DF82A308DF82B308DF82C300D93F4
:100370008DF82D300E930DB1AB1C09930CB1631C9D
:1003800008930EAB05930DF12D0304930DAB03936E
:100390000BAB02930DF12B0301930DF12A03009394
:1003A0000DF12E020DF1290308A909A8FFF731FD6F
:1003B0000D9B002B0BDA0AEB8603D3ED007AFDEEE2
:1003C000E77A013617EE903A23EAE3730D930E9B1A
:1003D000002B0BDA0AEB8603D3ED007AFDEEE77A09
:1003E000013617EE903A23EAE3730E93099BA3B10B
:1003F0001A88252A16D0662A1AD0CDE908450C9B02
:10040000002D00F0FD802C8827F8134001330DE00B
:100410000CB1227889E7224687E7089B002BECD0B5
:100420001A78E6E70C9B27F8132002330C934BE075
:100430000AEB860393ED007A9DF82D30CDF83C80D1
:10044000013623B901238DF82D3006230E93B5EE26
:10045000C07AF1EE10FA48BFB1EE477AF7EE007AB3
:1004600077EE676A48BF2D23F4EE476A48BFADF8C0
:100470002E30F1EE10FA32D177EE277AF4EE477A89
:10048000F1EE10FA2BD1614B109366231193099B67
:10049000BDF82E10002B00F0AD801A889DF82D308D
:1004A0000CA805909DF8290004900D9803909DF8E4
:1004B0002C0002900E9801909DF82B000090CDE941
:1004C00006970FA8FFF7E2FB099B0BB102330993D4
:1004D000089B002B3FF403AF01330893FFE6B4EE13
:1004E000477AF1EE10FA0BD10E98DFED497A00232E
:1004F000B2EE046A834207DAC7EE867A0133F9E77F
:10050000444B10936E23C1E777EE877AF7EE006ACB
:10051000B0EE677AB4EEC67AF1EE10FA27DA0C9AEA
:100520000021A9EB0202F6EE005AF4EEE56AF1EEC4
:1005300010FA8CB221DB531A002B1EDD63291BD06D
:1005400087EEA67ABDEEC77A17EE103A092BA8BF40
:10055000092307EE103AB8EEC77A03F1300428F801
:100560001140E7EE667A0131C6EE866ADDE766EE97
:10057000866A87EE067ACDE70C46632AD4BFC4EBC1
:100580000202C4F16302002A2FDD03460125002B7D
:100590000DDD67EE867A013BBDEEE77A17EE101AA5
:1005A000B8EEC77A0BFB051577EEC77AEFE70028A0
:1005B00000F1FF33ACBF181A184664000E900A23EE
:1005C00092B208EB04012846FFF72EFB012D0ADC4E
:1005D0009DF82A30002B0CBF00232E2342AA14447E
:1005E00024F8C83C53E72E23F8E742AB03EB44045E
:1005F0000023F5E7089A002A3FF450AF12784DE740
:10060000002C3FF401AF2478FEE600BF69006E00C5
:100610000200003F6E00610007B500931346002200
:10062000FFF748FE03B05DF804FB0000014B1860C3
:10063000704700BF70260120064B1A88824207D8F7
:10064000054B1B8813449842ACBF00200120704723
:1006500000207047902601209426012008B501460D
:10066000FFF7EAFF18B1024B1B6853F8210008BDE1
:10067000742601202DE9F041284D2B68002B4AD02B
:10068000274A284E1088B6F80080274C274F404450
:10069000411C21F001010904090C4FEA800E4FEAC8
:1006A000410C03EB0E020EEB0C0122605A183A606B
:1006B0000E2202FB08F2033222F0030211440B4423
:1006C0001B490B601B4900230B801B490968A1EBE8
:1006D0000E01A1EB0C018A1A18490A60184A9C46BF
:1006E00013804FF6FF7183420DD13588386800239F
:1006F0000E249D420FD904FB03020133117B6FF3DB
:1007000045111173F5E72A6842F823C0226822F8E0
:1007100013100133E7E7BDE8F08100BF7426012024
:100720009026012094260120882601207826012089
:1007300080260120922601207C2601208C26012083
:100740008426012010B5104B1B68DBB9D1B10F4BCB
:100750001A800F4B1B8892B20E2413446243062466
:1007600004FB03228A4205D30A4B0B4A0B4835216E
:100770000CF038FE0A4B19600A4B1860BDE81040B7
:10078000FFF778BF10BD00BF80260120942601200E
:1007900090260120C24402081B4502089D4402081D
:1007A0007C2601207426012070B4074C266805467B
:1007B0001046039A36B92560044C218070BC194656
:1007C000FFF7C0BF70BC704798260120902601201B
:1007D00008B5144B196831B9134B144A144840F248
:1007E00086410CF0FFFD134A03881288934204D21D
:1007F000142202FB0313188908BD0F49098811440C
:100800008B4206DA9B1A0D4A12680E2101FB032364
:10081000F1E74FF6FE7293420ABF094B0020188899
:10082000EAE700BF98260120D83A0208C845020826
:100830009D4402089026012094260120782601205C
:100840000426012008B5144B196831B9134B144A1A
:10085000144840F29A410CF0C5FD134A03881288EF
:10086000934204D2142202FB0313588908BD0F4996
:10087000098811448B4206DA9B1A0D4A12680E2130
:1008800001FB0323F1E74FF6FE7293420ABF094BC7
:1008900000201888EAE700BF98260120D83A02080D
:1008A000F44502089D440208902601209426012068
:1008B000782601200626012010B5234B1C6834B988
:1008C000224B234A234840F2AE410CF08BFD224AD2
:1008D0000B881288934211D2142202FB03431A8A16
:1008E000B3F90C40B3F90E105B8A0480C2F30C021A
:1008F000C3F30C0341808280C3800EE0174909884E
:1009000011448B420ADA9B1A154A12680E2101FB28
:1009100003231A6802605A68426010BD4FF6FE72E7
:1009200093420BD10F4BB3F900100F4B8180B3F9F9
:100930000020C280002303804380EEE70023038071
:1009400043808380D8E700BF98260120D83A020868
:10095000614502089D44020890260120942601204A
:10096000782601200426012006260120184B1B684A
:100970004BB3184A00881288904211D2142202FB0D
:1009800000331A8A1989C2F30C028A421DDB588A85
:10099000C0F30C005B899842ACBF00200120704777
:1009A0000D4B1B88134498420DDA0C4B1B68801AC0
:1009B0000E2202FB0033B3F904101A89914204DBC2
:1009C000B3F90600E6E7002070470120704700BF3A
:1009D00098260120902601209426012078260120C7
:1009E00008B5124B196831B9114B124A124840F23E
:1009F000D2410CF0F7FC03884FF6FF72934212D0FD
:100A00004FF6FE72934203D10C4B1B68586C08BD25
:100A10000B4A12681AB152F823000028F7D11422A9
:100A20005343C858F3E70020F1E700BF98260120A0
:100A3000D83A0208974502089D4402081026012072
:100A40007426012002884FF6FD739A4245D8244B44
:100A50001888824221D2234B1968142303FB021306
:100A6000586800283AD020490968002936D051F842
:100A70002210002932D01A89588950435A7CDB7CD5
:100A80005209C3F3421343EAC2030B2B18BF4000C1
:100A9000033020F0030008447047144B1B880344C4
:100AA0009A421ADA124B1B68101A0E2101FB003011
:100AB000037B03F01F030B2B0BD1038940895843A1
:100AC000094B1968033020F0030351F82200184441
:100AD00070470D2B01D10D3070470020704700BFCB
:100AE00090260120982601207426012094260120BA
:100AF0007826012010B5174B19680388E9B1164A0A
:100B000012889A420AD9142202FB0313587C420924
:100B1000D87CC0F3421040EAC20010BD0F490988DA
:100B200011448B4209DA9B1A0D4A12680E2101FB0F
:100B30000323187B00F01F00EFE74FF6FE7293428D
:100B400006D1F9F7D7FD0368BDE810405B6A184786
:100B50000020E2E79826012090260120942601201B
:100B6000782601201020704700207047FF2B50D0BE
:100B70000B2A4AD00ED8032A3FD004D8012A3ED0EF
:100B80003FD9806B7047092A3FD03CD8082A3AD019
:100B9000002070472F2A24D00DD82D2A14D026D813
:100BA0002C2AF5D14B681B78012B18D023D3022BAC
:100BB000EED180687047312A04D028D3322A26D05B
:100BC000332AE5D1006F70474B681B78012B04D0A6
:100BD0000BD3022BDCD100697047006A7047806933
:100BE00070474B681B78002BD2D1006B70474B6865
:100BF0001B78002BCCD1806A7047806C7047006DE9
:100C00007047006C7047806D7047006E7047806E53
:100C100070470B2A49D00ED8032A40D004D8012AA5
:100C20003FD040D9C06B7047092A3ED001D8082A6E
:100C3000AED1C06D70472F2A24D00DD82D2A14D0E4
:100C400026D82C2AA4D14B681B78012B18D024D38A
:100C5000022B9DD1C0687047312A04D027D3322A95
:100C600025D0332A94D1406F70474B681B78012BF5
:100C700004D00BD3022B8BD140697047406A704778
:100C8000C06970474B681B78002B81D1406B70475F
:100C90004B681B78002B7FF47BAFC06A7047C06C39
:100CA0007047406D7047406C7047406E7047C06E33
:100CB00070472DE9F04F87B0159805929DF8642094
:100CC0000292DDE9162401914168DDF860E001FB44
:100CD0000424026802EB4404DEF800200392DEF8EC
:100CE000042004320492029AD643F6B2019A002AF2
:100CF00003DC059A002A40F32981119ABEF908C045
:100D0000BEF90C7002F50041129A02F50042002B68
:100D10000EDD081405D4604503DA101401D4B8427E
:100D200007DB139801441498013B02440234EEE7B8
:100D300071D0139D581E05FB00152D145FD4654519
:100D40005DDA149D05FB0020001458D4B84256DA31
:100D5000BDF808B09946A246B9F1000F57DDBEF9BB
:100D6000087003984FEA224C0D1407FB0C0009F1A0
:100D7000FF39405D049D35F81000BAF800502F127D
:100D80004FEA202C07F0F80717FB06F74FEAE508B3
:100D90000CF0F80CED000CFB0B7C08F0FC08C71005
:100DA000EDB2C00018FB06F815FB06F507F0FC07CE
:100DB000C0B21FFA8CFC07FB0B8700FB0B5080B204
:100DC000BFB20CF1010505EB1C2C07F10108451C15
:100DD00005EB102508EB172813980CF4784CC5F395
:100DE000C4254FEA581845EA0C0C08F4FC68014485
:100DF00014984CEA080C2AF802CB0244ACE7BDF880
:100E000008A04FF0000803EB0800002841DC23EAAB
:100E1000E37304EB4304019B002B40F3978030EE17
:100E2000040AB7EE007AC7EE007A109B70EEA40AAF
:100E300031EE051A20EEA77AF0EE626A61EE277AAB
:100E4000FEEEC86A77EE622ACDED116AFEEEC82A80
:100E5000F0EE436A37EEC33A12EE902ABEEEC83A7D
:100E600092FBF3F313EE102A1393109B92FBF3F310
:100E70001493019B059AFEEEC86A013B0193CDEDE8
:100E8000126A109BB0EE673A08BF1346F0EE472A8D
:100E90002CE70F1453D4DEF80850BD424FDD5FEA53
:100EA000224C4CD4DEF80C00604548DD03982DB28E
:100EB0000CFB0505E85D049D35F810006FF0010599
:100EC00005FB08FB4FEA202C34F80B502F1207F0DB
:100ED000F80717FB06F74FEAE5090CF0F80CED00F0
:100EE0000CFB0A7C09F0FC09C710EDB2C00019FB2D
:100EF00006F915FB06F507F0FC07C0B21FFA8CFCDB
:100F000007FB0A9700FB0A50BFB280B20CF1010543
:100F100005EB1C2C07F10109451C05EB102509EB1D
:100F200017290CF4784CC5F3C4254FEA591945EA42
:100F30000C0C09F4FC694CEA090C24F80BC013985A
:100F40000144149808F1FF3802445CE707B0BDE89B
:100F5000F08F2DE9F04F85B09346139E169D706873
:100F60000091DDE9142400FB0424326802EB440400
:100F70002A6801926A68DDE911EC04320292F7EE08
:100F8000006A009A002A03DCBBF1000F40F3A08046
:100F90000F9AB5F90890B5F90C8002F50040109A47
:100FA00002F50042002B0CDD061405D44E4503DA91
:100FB000161401D4464505DB70446244013B0234FB
:100FC000F0E70FD05E1E0EFB06073F1441D504EB81
:100FD000430698460396B8F1000F59DC23EAE37301
:100FE00004EB4304009B002B72DD30EE040A70EE2C
:100FF000A40AC6EE807A0E9B31EE051A20EEA77A7F
:10100000B0EE626A61EE277ABEEEC86A77EE622AB7
:101010008DED0F6AFEEEC82AB0EE436A37EEC33A92
:1010200012EE902ABEEEC83A92FBF3FE13EE102A9F
:1010300092FBF3FC009BBEEEC86A013B00938DED72
:10104000106A0E9BB0EE673A08BF5B46F0EE472A87
:1010500097E74F45BBDA0CFB06263614B7D4464556
:10106000B5DA1E46A046002EB8DDB5F908A00199F4
:1010700017144FEA20490AFB0717029917F809705D
:1010800031F8177028F8027B70446244013EEAE7A9
:101090005FEA204917D4AE684E4514DD5FEA224A64
:1010A00011D4EF6857450EDD019F36B20AFB067674
:1010B000029F16F809606FF0010137F8167001FB06
:1010C00008F603998F537044624408F1FF3882E7B1
:1010D00005B0BDE8F08F2DE9F04F87B0159C059263
:1010E0009DF864200392DDE9162002916168DDF825
:1010F00060C001FB0020226802EB40020092DCF895
:1011000000200492DCF8042004320192039AD543B3
:10111000EDB2029A002A03DC059A002A40F32C81E2
:10112000119ABCF908E0BCF90C7002F50041129A62
:1011300002F50042002B10DD0C1405D4744503DACF
:10114000141401D4BC4209DB139C00982144149C64
:1011500002302244013B0090ECE771D0139E5C1EEC
:1011600006FB041636145DD476455BDA149E06FB46
:101170000424241456D4BC4254DADDF80090BDF89F
:101180000CA09846B8F1000F54DDBCF90870049823
:10119000141407FB04040E14019814F806E0B9F8BF
:1011A00000400EEB4E0E00EB0E0B27129BF8026078
:1011B0009BF801B010F80EE0139816FB0AF607F042
:1011C000F80707FB0567E610E400E4B21BFB0AFB27
:1011D00014FB05F406F0FC06BFB206FB05B60EFBD9
:1011E0000A4EB6B21FFA8EFE7C1C04EB172706F1DE
:1011F000010B0EF1010404EB1E240BEB162B07F47C
:101200007847C4F3C4244FEA5B1B27430BF4FC6B01
:101210000144149847EA0B0729F8027B024408F1BD
:10122000FF38AFE7BDF80C904FF0000E03EB0E0453
:10123000002C43DC009A23EAE37302EB43030093A0
:10124000029B002B40F3988030EE040AB7EE007A40
:10125000C7EE007A109B70EEA40A31EE051A20EE5C
:10126000A77AF0EE626A61EE277AFEEEC86A77EE40
:10127000622ACDED116AFEEEC82AF0EE436A37EE1F
:10128000C33A12EE902ABEEEC83A92FBF3F313EE85
:10129000102A1393109B92FBF3F31493029B059A6D
:1012A000FEEEC86A013B0293CDED126A109BB0EED0
:1012B000673A08BF1346F0EE472A2AE70F1454D4C2
:1012C000DCF80860BE4250DD5FEA22484DD4DCF80D
:1012D0000C40444549DD049C36B208FB06466FF0DD
:1012E000010016F80780019C00FB0EFA08EB480885
:1012F000009804EB080B30F80A409BF80260019854
:101300009BF801B010F808800098271216FB09F628
:1013100007F0F80707FB0567E610E400E4B21BFBE3
:1013200009FB14FB05F406F0FC06BFB206FB05B68C
:1013300008FB0948B6B21FFA88F87C1C04EB172793
:1013400006F1010B08F1010404EB18240BEB162B3A
:1013500007F47847C4F3C4244FEA5B1B27430BF41C
:10136000FC6B47EA0B0720F80A70139801441498A5
:101370000EF1FF3E024459E707B0BDE8F08F0000D0
:101380002DE9F04F85B0F7EE006A139E0392DDE978
:1013900014247068169DDDF844C06F68019100FB4D
:1013A0000424326802EB44042A6802920437019A4A
:1013B000002A03DC039A002A40F3CC800F9AB5F987
:1013C0000890B5F90C8002F50040109A02F5004231
:1013D000002B0DDD061405D44E4503DA161401D496
:1013E000464506DB129E60443244013B0234EFE77F
:1013F0000FD05E1E0CFB060E5FEA2E4E43D59846BC
:1014000004EB430AB8F1000F71DC23EAE37304EB49
:101410004304019B002B40F39D8030EE040A70EEE4
:10142000A40AC6EE807A0E9B31EE051A20EEA77A4A
:10143000B0EE626A61EE277ABEEEC86A77EE622A83
:101440008DED0F6AFEEEC82AB0EE436A37EEC33A5E
:1014500012EE902ABEEEC83A92FBF3FC13EE102A6D
:1014600092FBF3F31293019B039ABEEEC86A013B11
:1014700001938DED106A0E9BB0EE673A08BF1346DC
:10148000F0EE472A93E7CE45B9DA129901FB06261A
:101490003614B4D44645B2DA9846A246B8F1000FE5
:1014A000B3DDB5F908900299161409FB06164FEA48
:1014B000204E2A4916F80EE00EEB4E0E07EB0E0BEF
:1014C00060449BF801609BF80290F60001EA09294C
:1014D00006F4FC6649EA060617F80E90129946EAE9
:1014E000D9062AF8026B0A4408F1FF38D6E75FEA0A
:1014F000204929D4AE684E4526DD5FEA224B23D42D
:10150000E968594520DD02990FFA86FE0BFB0E1E95
:101510006FF001011EF809E00EEB4E0E07EB0E0610
:1015200001FB08F996F802B07678A1F2FE71F60098
:1015300001EA0B2B06F4FC664BEA060617F80EB020
:1015400046EADB062AF80960129960440A4408F169
:10155000FF3857E705B0BDE8F08F00BF00F8FFFF88
:101560002DE9F04F87B08B46159804929DF86420C2
:101570000592DDE916244168DDF860C001FB042412
:10158000026802EB4404DCF800200192DCF804203D
:1015900004320292F7EE006ABBF1000F03DC049AFA
:1015A000002A40F33881119ABCF90870BCF90C602C
:1015B00002F50040129A02F50041002B0EDD0214E4
:1015C00005D4BA4203DA0A1401D4B24207DB139AF3
:1015D0001044149A013B11440234EEE719D0139DD4
:1015E0005A1E05FB02052D1409D4BD4207DA149DCD
:1015F00005FB0212121402D4B242C0F2AC804FF0CA
:10160000000E03EB0E02002A3EDC23EAE37304EB38
:101610004304BBF1000F40F3FE8030EE040A70EE8D
:10162000A40AC6EE807A109BBBF1010B31EE051ABD
:1016300020EEA77AB0EE626A61EE277ABEEEC86A43
:1016400077EE622A8DED116AFEEEC82AB0EE436A8B
:1016500037EEC33A12EE902ABEEEC83A92FBF3F38D
:1016600013EE102ABEEEC86A1393109B92FBF3F39D
:10167000049A14938DED126A109BB0EE673A08BF7E
:101680001346F0EE472A87E706145DD4DCF80850CD
:10169000B54259DD0F1457D4DCF80C20BA4253DDA3
:1016A000019A2DB207FB0525AA5D029D55F822502F
:1016B0002E0E49D06FF0010202FB0EF2039234F8B5
:1016C0000280059A5643721C02EB262212121FFA60
:1016D00082F94FEA2827C5F30746D243D2B216FB58
:1016E00009F607F0F80707FB0267C5F3072A4FEA78
:1016F000E806EDB24FEAC8085FFA88F815FB09F56D
:1017000008FB0255BFB21AFB09FAADB206F0FC069F
:1017100006FB02A67A1C05F1010A02EB17270AEB69
:10172000152AB6B2CAF3C42A07F478474AEA07076B
:1017300006F1010A0AEB162A4FEA5A1A0AF4FC6A61
:10174000039A47EA0A07A752139A1044149A0EF113
:10175000FF3E114455E74FF00008A3EB0802002AB2
:101760007FF753AFBCF90860019F0A14051406FB0C
:101770000272525D029D55F822502E0E44D0059AF9
:1017800034F818E05643721C02EB262212121FFA9C
:1017900082F94FEA2E27C5F30746D243D2B216FB91
:1017A00009F607F0F80707FB0267C5F3072A4FEAB7
:1017B000EE06EDB24FEACE0E5FFA8EFE15FB09F58E
:1017C0000EFB0255BFB21AFB09FAADB206F0FC06D9
:1017D00006FB02A67A1C05F1010A02EB17270AEBA9
:1017E000152AB6B2CAF3C42A07F478474AEA0707AB
:1017F00006F1010A0AEB162A4FEA5A1A0AF4FC6AA1
:1018000047EA0A0724F81870139A1044149A08F14A
:1018100001081144A1E707B0BDE8F08F2DE9F04FB2
:1018200085B08B4613980392DDE914244168DDF8F6
:1018300058E001FB0424026802EB4404DEF80020B7
:101840000092DEF8042004320192F7EE006ABBF148
:10185000000F03DC039A002A40F353810F9ABEF96C
:101860000870BEF90C6002F50041109A02F50042C2
:10187000002B0EDD081405D4B84203DA101401D48D
:10188000B04207DB119801441298013B0244023434
:10189000EEE717D0119D581E05FB00152D1409D435
:1018A000BD4207DA129D05FB0020001402D4B042AD
:1018B000C0F2BC800026981900283EDC23EAE373BE
:1018C00004EB4304BBF1000F40F31B8130EE040A2C
:1018D00070EEA40AC6EE807A0E9BBBF1010B31EECE
:1018E000051A20EEA77AB0EE626A61EE277ABEEEA4
:1018F000C86A77EE622A8DED0F6AFEEEC82AB0EE56
:10190000436A37EEC33A12EE902ABEEEC83A92FB13
:10191000F3F313EE102ABEEEC86A11930E9B92FBEE
:10192000F3F3039A12938DED106A0E9BB0EE673AB3
:1019300008BF1346F0EE472A89E70F145ED4DEF89D
:101940000850BD425ADD5FEA224C57D4DEF80C0045
:10195000604553DD00982DB20CFB0505E85D019D47
:1019600055F82000070EFF2F4ED0FDB2002F45D0B6
:101970006FF0010777431FFA85F934F80780029763
:101980004FEA282CC0F30747ED43EDB217FB09F7E8
:101990000CF0F80C0CFB057CC0F3072A4FEAE807B3
:1019A000C0B24FEAC8085FFA88F810FB09F008FBDC
:1019B000050080B21FFA8CFC1AFB09FA07F0FC073D
:1019C00007FB05A700F1010A0CF101050AEB102A3B
:1019D00005EB1C2CBFB2CAF3C42A0CF4784C4AEABB
:1019E0000C0C07F1010A0AEB172A4FEA5A1A0AF4FB
:1019F000FC6A02984CEA0A0C24F800C011980144D1
:101A00001298013E024456E76FF0010505FB06F708
:101A1000A5F2FE7505EA102C450905F4FC654CEAB3
:101A20000505C0F3C4000543E553E7E74FF00008A0
:101A3000A3EB080000287FF741AFBEF90860009FC4
:101A400010140D1406FB0070405D019D55F8200038
:101A5000060EFF2E48D0F5B2002E3ED034F818C046
:101A60001FFA85F94FEA2C27C0F30746ED43EDB284
:101A700016FB09F607F0F80707FB0567C0F3072A0E
:101A80004FEAEC06C0B24FEACC0C5FFA8CFC10FBBC
:101A900009F00CFB0500BFB21AFB09FA80B206F090
:101AA000FC0606FB05A67D1C00F1010A05EB1727C5
:101AB0000AEB102AB6B2CAF3C42A07F478474AEAF6
:101AC000070706F1010A0AEB162A4FEA5A1A0AF426
:101AD000FC6A47EA0A0724F8187011980144129822
:101AE00008F101080244A3E7074D05EA102645095D
:101AF00005F4FC653543C0F3C400054324F81850D1
:101B0000EBE705B0BDE8F08F00F8FFFF2DE9F04FDF
:101B100087B08B46159C04929DF864200592DDE900
:101B200016206168DDF860E001FB0020226802EB0E
:101B30004000DEF800200192DEF804200292F7EE69
:101B4000006ABBF1000F03DC049A002A40F34281D3
:101B5000119ABEF90870BEF90C6002F50041129AA4
:101B600002F50042002B0EDD0C1405D4BC4203DA52
:101B7000141401D4B44207DB139C2144149C013B90
:101B800022440230EEE719D0139D5C1E05FB0415BC
:101B90002D1409D4BD4207DA149D05FB0424241436
:101BA00002D4B442C0F2B1804FF0000803EB080445
:101BB000002C3EDC23EAE37300EB4300BBF1000F93
:101BC00040F3088130EE040A70EEA40AC6EE807A73
:101BD000109BBBF1010B31EE051A20EEA77AB0EE97
:101BE000626A61EE277ABEEEC86A77EE622A8DEDF0
:101BF000116AFEEEC82AB0EE436A37EEC33A12EE1F
